:100000000C944F010C9480010C9480010C9480019D
:100010000C9480010C9480010C9480010C9480015C
:100020000C9480010C9496060C9496060C949606FB
:100030000C9480010C940E080C9480010C948001A7
:100040000C9480010C94670A0C9480010C9480013C
:100050000C9480010C9480010C9480010C94C407D2
:100060000C9480010C947D090C9453090C9480012C
:100070000C9480010C9480010C9480010C948001FC
:100080000C9480010C9480010C9480010C948001EC
:100090000C9480010C9480010C9480010C94A006B7
:1000A0000C9480010C9480010C9480010C948001CC
:1000B0000C9480010C9480010C9480010C94A7098D
:1000C0000C9480010C9480010C9480010C942909FB
:1000D0000C94FF080C9480010C94D5080C94AB0888
:1000E0000C9480010C94A9010C94B2050C94650544
:1000F0000C94CE010C946E020C9464020C946A026F
:100100000C9414060C945D020C942D060C94F704C8
:100110000C9419050C948F020C9459020C940F0B3B
:100120000C9455020C9415060C9402020C94860251
:100130000C94A2040C948A020C94AC010C94AA01B5
:100140000C9474020C944F020C94E8040C940B056C
:100150000C94BB010C94D5010C9478020C945810AB
:100160000C9494020C9482020C94AB010C949002B7
:100170000C947C020C9461020200002100240027F0
:10018000002A002D003000330001010000040107A7
:10019000010A0100002200250028002B002E00315A
:1001A00000340002010000050108010B01000020DD
:1001B000002300260029002C002F0032000001003F
:1001C00000030106010901050505050705080808E2
:1001D00008020202020A0A080804040404010101D8
:1001E00001010101010303030303030303040707E0
:1001F000070C0C0C0C0C0C0C0C020202020606067E
:1002000006060606060B0B0B0B0B0B0B0B01021065
:100210002020080810204010204080020102010820
:1002200004020101020408102040808040201008D0
:100230000402018004020180402010080402010829
:100240000402010102040810204080010204081089
:1002500020408000000A0B02090C0D0E0807030461
:10026000010000000000000000000000000000008D
:10027000000000000000000000000000000000126C
:10028000111000000000000000000000000000004D
:10029000000000000000000000000F0B58101124A7
:1002A0001FBECFEFD1E2DEBFCDBF00E00CBF12E03A
:1002B000A0E0B2E0EEE7F5E200E00BBF02C007907D
:1002C0000D92A234B107D9F727E0A2E4B2E001C051
:1002D0001D92AC31B207E1F711E0CEE4D1E000E0CD
:1002E00006C021970109802FFE010E948F10CD3496
:1002F000D10780E00807A9F70E94F70C0C94AD1213
:100300000C9400002091B002260F3327331F2132B6
:100310003105ECF42091FD02FC0190E080E02430F6
:1003200069F082E00895A091B0022191AC0142579A
:100330005D4FA40FB52FB11D2C930196861798F32E
:100340008091B002680F6093B00280E0089581E070
:100350000895089508950895E0918C0280918B028C
:10036000E81730F4F0E0E559FD4F808190E0089502
:100370008FEF9FEF089590918C0280918B022FEF69
:100380003FEF981748F4E92FF0E0E559FD4F208141
:1003900030E09F5F90938C02C901089580918B0299
:1003A00090918C02891B990B0895CF92DF92EF9266
:1003B000FF920F931F93CF93DF937C01CB018A01B0
:1003C00020910303222389F0EB016B01C40ED51E9B
:1003D000CC15DD0569F06991D701ED91FC91019093
:1003E000F081E02DC7011995F3CF642F0E9482019F
:1003F000C801DF91CF911F910F91FF90EF90DF9097
:10040000CF900895CF93DF931F92CDB7DEB7698366
:10041000209103032223F9F020912603203258F083
:1004200021E030E0FC013383228390E080E00F90F4
:10043000DF91CF91089580910403E82FF0E0EB5F06
:10044000FC4F998190838F5F8093040380932603F0
:1004500081E090E0ECCF61E0CE0101960E94820144
:10046000F7CF8150823108F05AC0E82FF0E088279A
:10047000E35CFD4F8F4F0C948F105D0261024F02C1
:10048000550259028F0264026A026E0274027802F7
:100490007C02820286028F028A029002940280917C
:1004A00080008F77809380000895809180008F7DF9
:1004B000F9CF80918000877FF5CF84B58F7784BD99
:1004C000089584B58F7DFBCF8091B0008F778093A6
:1004D000B00008958091B0008F7DF9CF8091900099
:1004E0008F77809390000895809190008F7DF9CF51
:1004F00080919000877FF5CF8091A0008F778093C7
:10050000A00008958091A0008F7DF9CF8091A00078
:10051000877FF5CF809120018F7780932001089508
:10052000809120018F7DF9CF80912001877FF5CFC9
:10053000CF93DF93282F30E0F901ED5AFD4F8491DE
:10054000F901E35FFD4FD491F901E953FE4FC491E6
:10055000CC23A1F081110E943102EC2FF0E0EE0FCC
:10056000FF1FE355FE4FA591B491EC91ED2381E07F
:1005700090E009F480E0DF91CF91089580E090E071
:10058000FACF1F93CF93DF93282F30E0F901ED5A74
:10059000FD4F8491F901E35FFD4FD491F901E953D7
:1005A000FE4FC491CC23A9F0162F81110E94310275
:1005B000EC2FF0E0EE0FFF1FED56FE4FA591B4912A
:1005C0008FB7F894EC91111108C0D095DE23DC931D
:1005D0008FBFDF91CF911F910895DE2BF8CF10923E
:1005E000FD0281E08093FC021092D70261E084E179
:1005F0000E94C10261E085E10E94C102E9EBF0E0E6
:1006000080818E7F808380818D7F808388E480934A
:10061000B80085E48093BC000895CF93DF9391E008
:1006200090938D028823B9F0C091B800D091BA00A0
:100630008091BC008A7B8093BC0060E084E10E94D2
:10064000C10260E085E10E94C1020E94EF02D093E6
:10065000BA00C093B800DF91CF910895CF93DF9394
:1006600090E0FC01E35FFD4F249189539E4FFC0114
:1006700084918823D1F090E0880F991FFC01E758FE
:10068000FE4FA591B491FC01ED56FE4FC591D4915A
:1006900061110EC09FB7F8948C91E22FE0958E23E4
:1006A0008C932881E223E8839FBFDF91CF91089547
:1006B0008FB7F894EC91E22BEC938FBFF6CF3FB756
:1006C000F8948091670290916802A0916902B091BC
:1006D0006A0226B5A89B05C02F3F19F00196A11DFF
:1006E000B11D3FBFBA2FA92F982F8827BC01CD017C
:1006F000620F711D811D911D42E0660F771F881FDB
:10070000991F4A95D1F70895CF92DF92EF92FF9209
:100710000F931F93CF93DF93D091260381E0D132C3
:1007200008F09CC0C09125030E945F036B017C010F
:100730008091FD0281116CC082E08093FD0281E016
:100740008093FC028FEF8093FB021092FA02D09309
:10075000F902A5E0B3E0E9EDF2E080E0D8138DC046
:100760001092D8028091D802CC0FC82BC093D80227
:100770008091D702813009F084C01092D7020E9484
:100780005F036B017C018091D8028093BB00809154
:10079000FF0290910003A0910103B0910203892B05
:1007A0008A2B8B2BA1F00E945F030091FF02109116
:1007B000000320910103309102036C197D098E0919
:1007C0009F09061717072807390708F442C08091C8
:1007D000BC0083FDD8CF85EC8093BC000E945F03F2
:1007E0006B017C018091FD02823009F44CC0809144
:1007F000FB028F3F09F469C08091FB02803209F44B
:1008000066C08091FB02803309F463C084E026C097
:100810008091FF0290910003A0910103B091020327
:10082000892B8A2B8B2B09F483CF0E945F030091C5
:10083000FF021091000320910103309102036C1913
:100840007D098E099F09061717072807390708F041
:100850006FCF8091FE020E940D0385E01092040389
:100860001092260310920303DF91CF911F910F91F5
:10087000FF90EF90DF90CF9008959D9191938F5FBF
:100880006DCF85EEA9CF8091FF0290910003A091DA
:100890000103B0910203892B8A2B8B2B09F4A2CF81
:1008A0000E945F030091FF02109100032091010359
:1008B000309102036C197D098E099F0906171707ED
:1008C0002807390708F08ECFC4CF80E0C7CF82E079
:1008D000C5CF83E0C3CF0F931F93CF93DF93162F22
:1008E000072FC1EED6E0AA85BB859C8521E0209329
:1008F0000303909325031092040310922603ED91B5
:10090000FC9111970190F081E02D682FCD01199590
:100910008A859B85DC01ED91FC910190F081E02DB1
:10092000602F19958A859B85DC01ED91FC910190E2
:10093000F081E02D612F1995DF91CF911F910F91DB
:100940000C948403AF92BF92CF92DF92EF92FF920A
:100950000F931F93CF93DF936C017B018B01040FE7
:10096000151FEB015E01AE18BF08C017D10759F083
:100970006991D601ED91FC910190F081E02DC601C5
:100980001995892B79F7C501DF91CF911F910F91AF
:10099000FF90EF90DF90CF90BF90AF900895FC0153
:1009A000A089B1898C91A689B78982FD0FC09C91DD
:1009B000818D8F5F8F73228D821749F0A18DAE0FCD
:1009C000BF2FB11D5D969C93818F08958C910895E2
:1009D000FC01538D448D252F30E0842F90E0821B45
:1009E000930B541710F0CF96089501970895FC01CA
:1009F000918D828D981761F0A28DAE0FBF2FB11D22
:100A00005D968C91928D9F5F9F73928F90E0089579
:100A10008FEF9FEF0895FC01918D828D981731F033
:100A2000828DE80FF11D858D90E008958FEF9FEF87
:100A30000895FC01918D228D892F90E0805C9F4F5D
:100A4000821B91098F739927089583E393E00E9495
:100A5000190521E0892B09F420E0822F089580ED0B
:100A600093E00E94190521E0892B09F420E0822FF0
:100A700008958DE694E00E94190521E0892B09F480
:100A800020E0822F0895FC01A48DA80FB92FB11D7D
:100A9000A35ABF4F2C91848D90E001968F739927B4
:100AA000848FA689B7892C93A089B1898C91837092
:100AB00080648C93938D848D981306C00288F3898B
:100AC000E02D80818F7D80830895EF92FF920F93B8
:100AD0001F93CF93DF93EC0181E0888F9B8D8C8DEA
:100AE00098131AC0E889F989808185FF15C09FB7DE
:100AF000F894EE89FF896083E889F98980818370A1
:100B0000806480839FBF81E090E0DF91CF911F914F
:100B10000F91FF90EF900895F62E0B8D10E00F5F70
:100B20001F4F0F731127E02E8C8D8E110CC00FB646
:100B300007FCFACFE889F989808185FFF5CFCE01DE
:100B40000E944305F1CFEB8DEC0FFD2FF11DE35A11
:100B5000FF4FF0829FB7F8940B8FEA89FB89808161
:100B60008062CFCFCF93DF93EC01888D8823B9F0DB
:100B7000AA89BB89E889F9898C9185FD03C08081A8
:100B800086FD0DC00FB607FCF7CF8C9185FFF2CF25
:100B9000808185FFEDCFCE010E944305E9CFDF9133
:100BA000CF910895F0E0E0E0199480E090E0892B87
:100BB00029F00E94390581110E94000080E090E038
:100BC000892B49F080E090E0892B29F00E940000F9
:100BD00081110E9400000E942F0581110E94D20500
:100BE00080E090E0892B29F00E94250581110C946A
:100BF000000008958EBD00000DB407FEFDCF8EB538
:100C00000895FC01248131E03093030320932503F0
:100C100010920403109226038485682B87E293E0E8
:100C20000E9402020C948403089590E080E00895ED
:100C30000F931F93CF938C01C62F64600E9401060F
:100C40006C2F6B7FC8010E94010683EC90E0019736
:100C5000F1F7CF911F910F9108950F931F93CF93A9
:100C6000DF938C01C62FD62FD07FD1606D2F0E94CD
:100C700001066D2FC8010E94180680E1C89FE0019F
:100C80001124C1606C2FC8010E9401066C2FC8019D
:100C90000E94180681E090E0DF91CF911F910F91A3
:100CA0000895FC0101900020E9F73197AF01481B3E
:100CB000590BBC018DE694E00C94A20485ED809361
:100CC000BC008091FF0290910003A0910103B091BC
:100CD00002030796A11DB11D23E0B695A795979530
:100CE00087952A95D1F72091BC0024FD03C010926E
:100CF000FD0208954091FF025091000360910103AD
:100D000070910203452B462B472B69F30097A105F1
:100D1000B10541F025E32A95F1F700000197A109FB
:100D2000B109E1CF8091FE020C940D031F920F9246
:100D30000FB60F9211240F900FBE0F901F901895B1
:100D40001F920F920FB60F9211240BB60F922F9392
:100D50003F934F935F936F937F938F939F93AF9343
:100D6000BF93EF93FF938091B900887F803609F499
:100D70004DC008F040C0883209F4A9C028F5803180
:100D800009F49DC0C8F4882309F4FBC0883009F435
:100D900096C0FF91EF91BF91AF919F918F917F91FD
:100DA0006F915F914F913F912F910F900BBE0F90DC
:100DB0000FBE0F901F901895883109F488C08032BB
:100DC00041F78093FB0214C0803409F49DC040F4C5
:100DD0008033B9F38833E9F68093FB0285ECB0C029
:100DE000803509F485C0883509F496C0883489F6C1
:100DF0000E945E06CECF883909F48CC038F588375A
:100E000029F050F4883611F0803719F683E080938A
:100E1000FD021092D40257C0883809F47BC0803993
:100E200019F0803809F0B5CF8091D402803208F0F3
:100E300071C0E091D40281E08E0F8093D402809142
:100E4000BB00F0E0EC54FD4F80833DC0803B39F0A7
:100E5000E0F4803A09F479C0883A09F09ACF84E046
:100E60008093FD021092B1021092B002E091AE02A6
:100E7000F091AF0219958091B00281110FC081E00D
:100E80008093B00210928E0209C0803C09F4A6CF74
:100E9000883C09F4A3CF883B09F07BCFE091B102F5
:100EA00081E08E0F8093B102F0E0E257FD4F808128
:100EB0008093BB009091B1028091B00229C08091D3
:100EC000D8028093BB0085EC8093BC0062CF9091E8
:100ED000FA028091F902981758F5E091FA0281E040
:100EE0008E0F8093FA02F0E0E752FD4F8081E9CF48
:100EF000E091FA0281E08E0F8093FA028091BB00AC
:100F0000F0E0E752FD4F80839091FA028091F90260
:100F10009817C8F285E8D8CFE091FA0281E08E0FE9
:100F20008093FA028091BB00F0E0E752FD4F80838E
:100F30008091FC0281115CCF81E08093D70284EA2A
:100F40008093BC001092FD0224CF85EC8093BC00FE
:100F50001092FD028091D402803230F4E091D402EC
:100F6000F0E0EC54FD4F10826091D40270E0E0910B
:100F7000B202F091B30284EB92E019951092D40280
:100F800008CF1092FB0234CF1F920F920FB60F9230
:100F900011242F933F938F939F93AF93BF9380918F
:100FA000630290916402A0916502B0916602309153
:100FB000620223E0230F2D3758F50196A11DB11DC4
:100FC000209362028093630290936402A09365026F
:100FD000B09366028091670290916802A0916902C5
:100FE000B0916A020196A11DB11D80936702909392
:100FF0006802A0936902B0936A02BF91AF919F917A
:101000008F913F912F910F900FBE0F901F901895C9
:1010100026E8230F0296A11DB11DD2CF1F920F9279
:101020000FB60F9211240BB60F922F933F934F934D
:101030005F936F937F938F939F93AF93BF93EF9340
:10104000FF9380915D0290915E02A0915F02B0914A
:101050006002892B8A2B8B2BD1F190915C028091BD
:10106000000089278093000080915D0290915E02CC
:10107000A0915F02B0916002181619061A061B06AD
:101080009CF480915D0290915E02A0915F02B0910C
:1010900060020197A109B10980935D0290935E02FD
:1010A000A0935F02B0936002FF91EF91BF91AF9167
:1010B0009F918F917F916F915F914F913F912F9170
:1010C0000F900BBE0F900FBE0F901F901895809140
:1010D0000002E8E7F1E0E4919FEF90930002E23034
:1010E000E9F040F4EE2389F0E13091F060E00E94F5
:1010F000C102DACFE43049F110F1E530B9F790914F
:1011000073009D7F90937300F1CF10926E00EECF2D
:1011100090916F009D7F90936F00E8CF9091700049
:101120009D7F9093700091E09093B0009091B100FA
:10113000987F94609093B1001092B300D7CF9091B4
:1011400071009D7F90937100D1CF909172009D7F2F
:1011500090937200CBCF1F920F920FB60F92112473
:101160000BB60F922F933F934F935F936F937F93A1
:101170008F939F93AF93BF93EF93FF9383E393E09A
:101180000E944305FF91EF91BF91AF919F918F9185
:101190007F916F915F914F913F912F910F900BBE77
:1011A0000F900FBE0F901F9018951F920F920FB6C1
:1011B0000F9211240BB60F922F933F934F935F938F
:1011C0006F937F938F939F93AF93BF93EF93FF930F
:1011D00083E393E00E94CF04FF91EF91BF91AF9121
:1011E0009F918F917F916F915F914F913F912F913F
:1011F0000F900BBE0F900FBE0F901F9018951F926F
:101200000F920FB60F9211240BB60F922F933F93AC
:101210004F935F936F937F938F939F93AF93BF93FE
:10122000EF93FF9380ED93E00E944305FF91EF91D0
:10123000BF91AF919F918F917F916F915F914F91EE
:101240003F912F910F900BBE0F900FBE0F901F90EC
:1012500018951F920F920FB60F9211240BB60F9292
:101260002F933F934F935F936F937F938F939F93AE
:10127000AF93BF93EF93FF9380ED93E00E94CF0471
:10128000FF91EF91BF91AF919F918F917F916F915E
:101290005F914F913F912F910F900BBE0F900FBE1A
:1012A0000F901F9018951F920F920FB60F92112456
:1012B0000BB60F922F933F934F935F936F937F9350
:1012C0008F939F93AF93BF93EF93FF938DE694E03B
:1012D0000E944305FF91EF91BF91AF919F918F9134
:1012E0007F916F915F914F913F912F910F900BBE26
:1012F0000F900FBE0F901F9018951F920F920FB670
:101300000F9211240BB60F922F933F934F935F933D
:101310006F937F938F939F93AF93BF93EF93FF93BD
:101320008DE694E00E94CF04FF91EF91BF91AF91C1
:101330009F918F917F916F915F914F913F912F91ED
:101340000F900BBE0F900FBE0F901F9018951F921D
:101350000F920FB60F9211240BB60F922F933F935B
:101360004F935F936F937F938F939F93AF93BF93AD
:10137000EF93FF9380910B050E94980220910F0537
:10138000309110052F5F3F4F3093100520930F05CC
:1013900090910E05953618F096E090930A0590917D
:1013A0000A05943009F466C0B8F49230F1F0933035
:1013B00009F444C090910D05992309F46BC0811183
:1013C0007CC080910C05882309F463C080910C05D2
:1013D00061E00E94C1025EC0953009F457C09630AA
:1013E00049F791E09093DB054FC08111E3CF209145
:1013F0000F05309110052436310528F410921005A0
:1014000010920F05D7CF1092DB0510920E05E091D8
:101410000E0591E09E0F90930E05F0E020910F05D0
:1014200030911005EE0FFF1FE65FFA4F30872783DC
:101430001092100510920F0593E019C0813009F049
:10144000B9CFE0910E0591E09E0F90930E05F0E06C
:1014500020910F0530911005EE0FFF1FE65FFA4F48
:10146000308727831092100510920F0594E0909317
:101470000A05A0CF882359F220910F05309110055D
:101480002536310508F496CF95E0F1CF811192CF42
:10149000B5CF2F9AFF91EF91BF91AF919F918F910F
:1014A0007F916F915F914F913F912F910F900BBE64
:1014B0000F900FBE0F901F90189580910C058823F8
:1014C00021F080910C0560E084CF2F98E3CF1F922C
:1014D0000F920FB60F9211240BB60F922F933F93DA
:1014E0004F935F936F937F938F939F93AF93BF932C
:1014F000CF93DF93EF93FF9380915B02C091180627
:10150000D0E087FF23C01092850010928400809164
:101510005B028F5F80935B0280915B02082E000C60
:10152000990B8C179D0724F480915B028C3074F129
:10153000809184009091850084349C4908F465C0B2
:101540008091840090918500049661C080915B0237
:10155000082E000C990B8C179D07CCF630915B027E
:1015600025E03203F0011124E452FA4F808186FF16
:10157000CECF30915B023203F0011124E452FA4FD6
:10158000808160E08F730E94C102C1CF809184008E
:101590009091850030915B0225E03203F001112427
:1015A000E452FA4F41815281840F951F9093890034
:1015B0008093880030915B023203F0011124E452E1
:1015C000FA4F808186FF0CC030915B023203F0013C
:1015D0001124E452FA4F808161E08F730E94C102AE
:1015E000FF91EF91DF91CF91BF91AF919F918F913B
:1015F0007F916F915F914F913F912F910F900BBE13
:101600000F900FBE0F901F90189580E49CE9909367
:101610008900809388008FEF80935B02E1CF109266
:101620002A031092290388EE93E0A0E0B0E08093B3
:101630002B0390932C03A0932D03B0932E0323E14F
:1016400032E0309328032093270310923603109240
:1016500035038093370390933803A0933903B093F5
:101660003A0325E232E0309334032093330345E319
:1016700051E05093400340933F0344E351E05093C3
:1016800042034093410340E351E0509344034093AD
:10169000430341E351E0509346034093450342E343
:1016A00051E0509348034093470346E351E0509381
:1016B0004A034093490310924C0310924D03109239
:1016C0004E0310924F031092D3031092D2038093D3
:1016D000D4039093D503A093D603B093D70330934C
:1016E000D1032093D00345ED50E05093DD034093A8
:1016F000DC0344ED50E05093DF034093DE0340ED04
:1017000050E05093E1034093E00341ED50E05093EB
:10171000E3034093E20342ED50E05093E50340932E
:10172000E40346ED50E05093E7034093E603109244
:10173000E9031092EA031092EB031092EC0310926B
:10174000700410926F048093710490937204A093BC
:101750007304B093740430936E0420936D0485EC8D
:1017600090E090937A048093790484EC90E09093D5
:101770007C0480937B0480EC90E090937E048093C3
:101780007D0481EC90E09093800480937F0482EC50
:1017900090E0909382048093810486EC90E0909393
:1017A000840480938304109286041092870410921C
:1017B0008804109289048091070290910802A091F8
:1017C0000902B0910A028093020790930307A09345
:1017D0000407B093050780910B0290910C02A09131
:1017E0000D02B0910E028093060790930707A09315
:1017F0000807B093090784E080930A0787E0809385
:101800000B0710920C0784EB80930D0786E1809301
:101810000E0788E180930F0787E18093100789E125
:1018200080931107E0911806EC3008F4A9C08FEFFF
:1018300080931207E0911806EC3008F4B2C08FEFE5
:10184000809313078CE08093E10684E28093E206A4
:1018500086E08093E30685E08093E4068FE1809341
:10186000E5068EE18093E60683E28093E70682E256
:101870008093E80685E48093E90684E48093EA0691
:1018800080E48093ED061092F2061092F306109217
:10189000F4061092F5061092F6061092F7061092D2
:1018A000F8061092F906E3E2F6E08FEF9FEFDC0115
:1018B0001282138214821582168217821086118674
:1018C00083879487A587B6878787908BA18BB28BF8
:1018D000128611821082739626E0E13EF20741F7EC
:1018E0008DE090E00E949710FC011382128287E342
:1018F00092E091838083118687E2848384E18287EA
:1019000084E083871486F0932006E0931F061092EC
:1019100021061092220685E280930B0510920D0598
:1019200010921A061092190610921C0610921B06AD
:1019300010921E0610921D0661E070E090E080E0BB
:101940000E94BC110097F1F190931A06809319063A
:1019500010921C0610921B0620911D0630911E0647
:10196000232B11F4FC01108210921E0610921D060A
:1019700061E472E08091190690911A060C94A61207
:1019800081E08E0F80931806E093120725E0E29F16
:10199000F0011124E452FA4F88EB9BE0928381839B
:1019A00049CF81E08E0F80931806E093130785E0FE
:1019B000E89FF0011124E452FA4F88EB9BE09283F8
:1019C000818340CF8091190690911A06009711F0FB
:1019D0000E94331110921A061092190610921E06D8
:1019E00010921D0610921C0610921B060895CF93AC
:1019F000DF93CDB7DEB7A1970FB6F894DEBF0FBE69
:101A0000CDBF789484B5826084BD84B5816084BD87
:101A100085B5826085BD85B5816085BD80916E008C
:101A2000816080936E0010928100809181008260BD
:101A300080938100809181008160809381008091FA
:101A400080008160809380008091B10084608093E9
:101A5000B1008091B00081608093B00080919100CE
:101A600082608093910080919100816080939100C9
:101A7000809190008160809390008091A1008260AD
:101A80008093A1008091A10081608093A10080914A
:101A9000A00081608093A0008091210182608093EA
:101AA0002101809121018160809321018091200199
:101AB00081608093200180917A00846080937A0015
:101AC00080917A00826080937A0080917A008160B0
:101AD00080937A0080917A00806880937A001092D7
:101AE000C100E0917D04F0917E0482E08083E0916A
:101AF0007904F0917A041082E0917B04F0917C04E7
:101B00008FEC808310928504E0918104F09182042F
:101B100086E08083E0917F04F09180048081806181
:101B20008083E0917F04F0918004808188608083CD
:101B3000E0917F04F0918004808180688083E0914F
:101B40007F04F091800480818F7D808361E08091AB
:101B5000E2060E942E0360E08091E2060E94C1022C
:101B600060E08091E1060E942E0387E293E090936B
:101B7000EC068093EB0610928C0210928B0210926E
:101B80000403109226030E94EF0289EA91E09093E9
:101B9000AF028093AE028AEA91E09093B302809301
:101BA000B20280E090E1A0E0B0E08093EE06909376
:101BB000EF06A093F006B093F1068AE090E0A0E073
:101BC000B0E08093F2069093F306A093F406B093EE
:101BD000F50680E090E0A0E0B0E48093F6069093F4
:101BE000F706A093F806B093F90660E070E185E08F
:101BF0000E946B046FE979E380E00E946B04B3EE0E
:101C0000EB2EB6E0FB2E01EE16E085EEA82E86E068
:101C1000B82E9CEF492E91E0592E22E4622E22E04C
:101C2000722E3BECC32E37E0D32E4BE8842E992442
:101C30009394D70112969C91F70181917F01D8016D
:101C400059968C9359975A969C9361E00E942E0363
:101C500061E0F801828D0E942E03D70115969C91B8
:101C6000159713968C91F801858F968F61E00E94ED
:101C70002E0360E0D8015E968C910E942E0361E0F5
:101C8000F801858D0E94C1023FB6F89480916102EF
:101C9000811125C0F2018491F3019491E82FF0E0C5
:101CA000EE0FFF1FE758FE4FA591B4918C9198233A
:101CB00021F461E085E30E94C10261E085E30E94B6
:101CC0002E038CB580618CBD8CB580648CBD61E0C9
:101CD00084E30E942E0361E083E30E942E0380913F
:101CE00061028F5F809361023FBEC6010197F1F7E9
:101CF00060E0D8015D968C910E94C10288E80E9444
:101D0000FA0583E00E94FA0561E0F801858D0E94E2
:101D1000C102C6010197F1F760E0D8015D968C9190
:101D20000E94C10288E90E94FA0580E00E94FA053B
:101D300080E00E94FA0580E00E94FA0580E00E949F
:101D4000FA0561E0F801858D0E94C102C401019786
:101D5000F1F760E0D8015D968C910E94C10280EE9F
:101D60000E94FA0561E0F801858D0E94C1020E5FB4
:101D70001F4FA016B10609F05CCFF6E0EF2EF7E09A
:101D8000FF2E02E017E060E0D7018D917D010E94F7
:101D90002E03BAE0EB16B7E0FB06A9F74AE0E42E03
:101DA00047E0F42E56E0C52E57E0D52E65E0B62E5E
:101DB0007CE0972EE2E0AE2EF70181907F018781D3
:101DC0008C3008F046C061E0882D0E942E03D701B8
:101DD00017968C91B89EF0011124E452FA4F282DE9
:101DE0002F739081907C922B908313821482692DA3
:101DF0000E948310899DA001112430E020E0BA01E7
:101E0000620F731FB69EF001B79EF00D1124E452CD
:101E1000FA4F908196FD12C02F5F3F4F2C30310555
:101E200071F781110BC010928000A0928100109276
:101E3000850010928400A6BAA0926F00D701179671
:101E4000EC91BE9EF0011124E452FA4F808180642F
:101E50008083F70195818381D80152968C935297A4
:101E600053969C9360E00E942E0361E0F801838901
:101E70000E942E0360E0D80153968C910E94C1020B
:101E80000E5F1F4FC016D10609F096CFF89410923E
:101E9000200189E08093210180E293E09093290161
:101EA00080932801109225011092240112E01093D2
:101EB0007300789410930A0510920E0580910B051B
:101EC00060E00E942E0360E084E00E942E0360E048
:101ED00085E00E942E0360E083E30E942E0360E011
:101EE00085E30E942E03E0917D04F0917E0410832F
:101EF000E0917904F0917A041082E0917B04F091F2
:101F00007C0480E1808310928504E0918104F0914B
:101F1000820486E08083E0917F04F09180048081D8
:101F200080618083E0917F04F091800480818860EB
:101F30008083E0917F04F0918004808180688083B9
:101F4000E0917F04F091800480818F7D8083809177
:101F500009070E949802892BD1F31E01B1E12B0ED3
:101F6000311C3AE0432E512C612C712C60E08091A1
:101F700000070E94C10280E60E94FA058E010F5FF1
:101F80001F4F580180E00E94FA0590E0B0E0A0E009
:101F9000F50181939193A193B1935F01E215F3054C
:101FA00089F761E0809100070E94C10280E090E023
:101FB000DC01F801C190D190E190F1908F01BA2F2E
:101FC000A92F982F8827C80ED91EEA1EFB1ED701FD
:101FD000C601AE16BF0669F7181619061A061B06C3
:101FE0000CF04BC06DE28DE694E00E94650519A2ED
:101FF0008E010F5D1F4FC701B601A30192010E9420
:10200000611069017A01605DD8016E938D01C11480
:10201000D104E104F10479F70115110519F0C801A3
:102020000E9451068FE392E00E9451060E945F03D6
:102030004B015C018AE0C82ED12CE12CF12C0E94CE
:102040005F03681979098A099B09683E7340810515
:102050009105A8F3F1E0CF1AD108E108F10828EEC4
:10206000820E23E0921EA11CB11CC114D104E10414
:10207000F10429F70E94D50579CF22273327A9013A
:10208000281B390B4A0B5B0B19A28E010F5D1F4FEA
:10209000CA01B901A30192010E946110605DF801BB
:1020A00062938F01211531054105510589F7B4CFA0
:1020B0008091190690911A06009711F00C94331133
:1020C0000895A1E21A2EAA1BBB1BFD010DC0AA1F79
:1020D000BB1FEE1FFF1FA217B307E407F50720F091
:1020E000A21BB30BE40BF50B661F771F881F991F0C
:1020F0001A9469F760957095809590959B01AC0155
:10210000BD01CF010895991B79E004C0991F96176E
:1021100008F0961B881F7A95C9F780950895EE0FF1
:10212000FF1F881F8BBF0790F691E02D19940F9326
:102130001F93CF93DF938230910510F482E090E0FB
:10214000E0911A07F0911B0730E020E0B0E0A0E03A
:10215000309799F42115310509F44AC0281B390B31
:1021600024303105D8F58A819B816115710589F18B
:10217000FB0193838283FE0111C040815181028162
:10218000138148175907E0F04817590799F4109739
:1021900061F012960C93129713961C933296CF010E
:1021A000DF91CF911F910F91089500931A0710931B
:1021B0001B07F4CF2115310551F04217530738F0B2
:1021C000A901DB019A01BD01DF01F801C1CFEF01D7
:1021D000F9CF90931B0780931A07CDCFFE01E20F32
:1021E000F31F819391932250310939832883D7CFEC
:1021F0002091180730911907232B41F420910302F5
:10220000309104023093190720931807209101029E
:10221000309102022115310541F42DB73EB74091AE
:10222000050250910602241B350BE0911807F0912E
:102230001907E217F307A0F42E1B3F0B28173907E5
:1022400078F0AC014E5F5F4F2417350748F04E0F12
:102250005F1F5093190740931807819391939FCF65
:10226000F0E0E0E09CCFCF93DF930097E9F0FC0132
:10227000329713821282A0911A07B0911B07ED01C9
:1022800030E020E01097A1F420813181820F931F6C
:1022900020911807309119072817390709F061C0F4
:1022A000F0931907E0931807DF91CF910895EA01A1
:1022B000CE17DF07E8F54A815B819E014115510584
:1022C000B1F7E901FB83EA8349915991C40FD51F06
:1022D000EC17FD0761F4808191810296840F951FB0
:1022E000E90199838883828193819B838A83F0E0CB
:1022F000E0E012968D919C9113970097B9F52D917E
:102300003C911197CD010296820F931F20911807DF
:10231000309119072817390739F6309751F510927F
:102320001B0710921A07B0931907A0931807BCCF88
:10233000D383C28340815181840F951FC817D90769
:1023400061F44E5F5F4F88819981480F591F518317
:1023500040838A819B81938382832115310509F013
:10236000B0CFF0931B07E0931A079ECFFD01DC016D
:10237000C0CF13821282D7CF4F925F926F927F921B
:102380008F929F92AF92BF92CF92DF92EF92FF9285
:102390000F931F93CF93DF938C01009799F4CB0198
:1023A000DF91CF911F910F91FF90EF90DF90CF9031
:1023B000BF90AF909F908F907F906F905F904F9065
:1023C0000C949710FC01E60FF71F9C012250310975
:1023D000E217F30708F4AEC0D901CD91DC91119753
:1023E000C617D70720F1C530D10578F0CE01049784
:1023F0008617970750F0C61BD70B2297C193D1932E
:102400006D937C93CF010E943311C801DF91CF916E
:102410001F910F91FF90EF90DF90CF90BF90AF9002
:102420009F908F907F906F905F904F9008955B0189
:10243000AC1ABD0A4C018C0E9D1EA0911A07B091DA
:102440001B07512C412CF12CE12C109731F5809178
:102450001807909119078815990509F05CC0461670
:10246000570608F058C0809101029091020200972F
:1024700041F48DB79EB74091050250910602841B2E
:10248000950BE817F90708F055C0F0931907E0938A
:102490001807F90171836083B8CF8D919C911197D2
:1024A00012966C90129713967C901397A815B90505
:1024B00059F56C0142E0C40ED11CCA14DB0420F1B2
:1024C000AC014A195B09DA011296159780F0628215
:1024D000738251834083D9016D937C93E114F1049D
:1024E00071F0D7011396FC93EE9312978ECF22963C
:1024F0008C0F9D1FF90191838083F301EFCFF0933F
:102500001B07E0931A0781CF4816590608F42C01DF
:102510007D01D3019ACFCB010E9497107C010097D7
:1025200049F0AE01B8010E949D12C8010E9433110A
:1025300087016BCF10E000E068CFFB01DC0102C037
:1025400001900D9241505040D8F70895FB01DC01F5
:1025500001900D920020E1F7089511E0CEE4D1E062
:1025600000E006C0802FFE010E948F102196011D01
:0E257000CF34D10780E00807A9F7F894FFCF19
:10257E00FF00001C078000363738391B1D1A1C005F
:10258E000000000202D5011506AB01CE01BB01AC65
:10259E0001000000006505A204E804B2051905F764
:1025AE00040B05000000002D06A204150614060DEE
:0225BE000A0011
:00000001FF
