:100000000C9471010C94A2010C94A2010C94A20115
:100010000C94A2010C94A2010C94A2010C94A201D4
:100020000C94A2010C9407090C9407090C9407097D
:100030000C94A2010C947F0A0C94A2010C94A201CE
:100040000C94A2010C94D80C0C94A2010C94A20163
:100050000C94A2010C94A2010C94A2010C94350AF8
:100060000C94A2010C94EE0B0C94C40B0C94A20102
:100070000C94A2010C94A2010C94A2010C94A20174
:100080000C94A2010C94A2010C94A2010C94A20164
:100090000C94A2010C94A2010C94A2010C941109DD
:1000A0000C94A2010C94A2010C94A2010C94A20144
:1000B0000C94A2010C94A2010C94A2010C94180CB3
:1000C0000C94A2010C94A2010C94A2010C949A0B22
:1000D0000C94700B0C94A2010C94460B0C941C0B0A
:1000E0000C94A2010C94F7060C94CD060C94DD013F
:1000F0000C9496020C949A020C949E020C94A80202
:100100000C94B9050C9477020C9439130C943E07A7
:100110000C945F050C9425070C947B020C9424022C
:100120000C947F020C942F070C9486020C944B05C0
:100130000C94F7010C94B1020C94F6040C94E306B1
:100140000C9401070C9452070C948C020C94AC0292
:100150000C9471020C94800D0C9421080C941107DE
:100160000C9466070C94A4020C9490020C94200842
:100170000C94F0010C9439080C94B2020C944807CA
:100180000C94CD010C94CB010C946D050C9483025E
:100190000C943C050C94DE060C945C070C947007E0
:1001A0000C94B6020C9406060C94CC010C9409072E
:1001B0000C94ED060C941B070C94CE010200002158
:1001C00000240027002A002D003000330001010028
:1001D00000040107010A0100002200250028002B6D
:1001E000002E003100340002010000050108010B5F
:1001F00001000020002300260029002C002F0032DF
:1002000000000100000301060109010505050507BD
:100210000508080808020202020A0A080804040481
:1002200004010101010101010103030303030303AD
:1002300003040707070C0C0C0C0C0C0C0C0202023C
:100240000206060606060606060B0B0B0B0B0B0B2F
:100250000B010210202008081020401020408002CE
:1002600001020108040201010204081020408080FC
:100270004020100804020180040201804020100880
:100280000402010804020101020408102040800158
:100290000204081020408000000A0B02090C0D0E19
:1002A0000807030401000000000000000000000037
:1002B000000000000000000000000000000000003E
:1002C00000000012111000000000000000000000FB
:1002D0000000000000000000000000000000800D91
:1002E000391311241FBECFEFD1E2DEBFCDBF00E036
:1002F0000CBF12E0A0E0B2E0EEECFEE200E00BBFCB
:1003000002C007900D92A434B107D9F727E0A4E406
:10031000B2E001C01D92A232B207E1F711E0C0E7DE
:10032000D1E000E006C021970109802FFE010E9464
:100330008F14CF36D10780E00807A9F70E94680F15
:100340000C9455170C9400002091B602260F332709
:10035000331F21323105ECF420910303FC0190E0BE
:1003600080E0243069F082E00895A091B6022191E6
:10037000AC014C565D4FA40FB52FB11D2C930196C7
:10038000861798F38091B602680F6093B60280E0FA
:10039000089581E00895089508950895E0919202E6
:1003A00080919102E81730F4F0E0EF58FD4F808122
:1003B00090E008958FEF9FEF0895909192028091C1
:1003C00091022FEF3FEF981748F4E92FF0E0EF5834
:1003D000FD4F208130E09F5F90939202C901089504
:1003E0008091910290919202891B990B0895CF926E
:1003F000DF92EF92FF920F931F93CF93DF937C01D5
:10040000CB018A0120910903222389F0EB016B01C2
:10041000C40ED51ECC15DD0569F06991D701ED91AB
:10042000FC910190F081E02DC7011995F3CF642F65
:100430000E94A401C801DF91CF911F910F91FF90FD
:10044000EF90DF90CF900895CF93DF931F92CDB7B9
:10045000DEB76983209109032223F9F020912C0350
:10046000203258F021E030E0FC013383228390E019
:1004700080E00F90DF91CF91089580910A03E82FDB
:10048000F0E0E55FFC4F998190838F5F80930A03D2
:1004900080932C0381E090E0ECCF61E0CE010196E7
:1004A0000E94A401F7CF8150823108F05AC0E82F92
:1004B000F0E08827E15AFD4F8F4F0C948F147F0294
:1004C0008302710277027B02B10286028C029002E3
:1004D00096029A029E02A402A802B102AC02B202E3
:1004E000B602809180008F7780938000089580917C
:1004F00080008F7DF9CF80918000877FF5CF84B514
:100500008F7784BD089584B58F7DFBCF8091B00037
:100510008F778093B00008958091B0008F7DF9CFE0
:10052000809190008F778093900008958091900043
:100530008F7DF9CF80919000877FF5CF8091A000CB
:100540008F778093A00008958091A0008F7DF9CFD0
:100550008091A000877FF5CF809120018F778093D5
:1005600020010895809120018F7DF9CF8091200195
:10057000877FF5CFCF93DF93282F30E0F901E9563D
:10058000FD4F8491F901EF5AFD4FD491F901E55FD8
:10059000FD4FC491CC23A1F081110E945302EC2F96
:1005A000F0E0EE0FFF1FEF50FE4FA591B491EC91DC
:1005B000ED2381E090E009F480E0DF91CF91089590
:1005C00080E090E0FACF1F93CF93DF93282F30E0A5
:1005D000F901E956FD4F8491F901EF5AFD4FD4918D
:1005E000F901E55FFD4FC491CC23A9F0162F8111CD
:1005F0000E945302EC2FF0E0EE0FFF1FE952FE4F76
:10060000A591B4918FB7F894EC91111108C0D095D1
:10061000DE23DC938FBFDF91CF911F910895DE2BF6
:10062000F8CF1092030381E0809302031092DD0261
:1006300061E084E10E94E30261E085E10E94E3025F
:10064000E9EBF0E080818E7F808380818D7F8083E5
:1006500088E48093B80085E48093BC000895CF932C
:10066000DF9391E0909393028823B9F0C091B80092
:10067000D091BA008091BC008A7B8093BC0060E07E
:1006800084E10E94E30260E085E10E94E3020E94AF
:100690001103D093BA00C093B800DF91CF910895B1
:1006A000CF93DF9390E0FC01EF5AFD4F2491855FDB
:1006B0009D4FFC0184918823D1F090E0880F991F11
:1006C000FC01E354FE4FA591B491FC01E952FE4FA9
:1006D000C591D49161110EC09FB7F8948C91E22F0F
:1006E000E0958E238C932881E223E8839FBFDF91DE
:1006F000CF9108958FB7F894EC91E22BEC938FBFD4
:10070000F6CF3FB7F89480916D0290916E02A09160
:100710006F02B091700226B5A89B05C02F3F19F05B
:100720000196A11DB11D3FBFBA2FA92F982F882771
:10073000BC01CD01620F711D811D911D42E0660F4C
:10074000771F881F991F4A95D1F70895CF92DF929E
:10075000EF92FF920F931F93CF93DF93D0912C03CF
:1007600081E0D13208F09CC0C0912B030E9481032C
:100770006B017C018091030381116CC082E0809346
:10078000030381E0809302038FEF809301031092B3
:100790000003D093FF02ABE0B3E0EFEDF2E080E0C6
:1007A000D8138DC01092DE028091DE02CC0FC82BD0
:1007B000C093DE028091DD02813009F084C0109286
:1007C000DD020E9481036B017C018091DE02809337
:1007D000BB008091050390910603A0910703B0919F
:1007E0000803892B8A2B8B2BA1F00E948103009197
:1007F00005031091060320910703309108036C193B
:100800007D098E099F09061717072807390708F47D
:1008100042C08091BC0083FDD8CF85EC8093BC00A2
:100820000E9481036B017C0180910303823009F4F3
:100830004CC0809101038F3F09F469C0809101038E
:10084000803209F466C080910103803309F463C0EB
:1008500084E026C08091050390910603A0910703D0
:10086000B0910803892B8A2B8B2B09F483CF0E942C
:100870008103009105031091060320910703309135
:1008800008036C197D098E099F09061717072807A9
:10089000390708F06FCF809104030E942F0385E091
:1008A00010920A0310922C0310920903DF91CF914A
:1008B0001F910F91FF90EF90DF90CF9008959D9141
:1008C00091938F5F6DCF85EEA9CF809105039091B5
:1008D0000603A0910703B0910803892B8A2B8B2B69
:1008E00009F4A2CF0E948103009105031091060331
:1008F00020910703309108036C197D098E099F0927
:10090000061717072807390708F08ECFC4CF80E0F5
:10091000C7CF82E0C5CF83E0C3CF0F931F93CF93A0
:10092000DF93162F072FC7EED6E0AA85BB859C85DF
:1009300021E02093090390932B0310920A03109255
:100940002C03ED91FC9111970190F081E02D682F1F
:10095000CD0119958A859B85DC01ED91FC91019073
:10096000F081E02D602F19958A859B85DC01ED9142
:10097000FC910190F081E02D612F1995DF91CF91CD
:100980001F910F910C94A6038F929F92AF92BF92EA
:10099000CF92DF92EF92FF924B015C010E948103A4
:1009A0006B017C010E9481036C197D098E099F09EE
:1009B000683E734081059105A8F321E0821A9108F1
:1009C000A108B10888EEC80E83E0D81EE11CF11C16
:1009D00081149104A104B10429F7FF90EF90DF90F6
:1009E000CF90BF90AF909F908F900895AF92BF929D
:1009F000CF92DF92EF92FF920F931F93CF93DF93EB
:100A00006C017B018B01040F151FEB015E01AE1819
:100A1000BF08C017D10759F06991D601ED91FC913B
:100A20000190F081E02DC6011995892B79F7C50158
:100A3000DF91CF911F910F91FF90EF90DF90CF90BA
:100A4000BF90AF900895FC01A089B1898C91A689CF
:100A5000B78982FD0FC09C91818D8F5F8F73228D2E
:100A6000821749F0A18DAE0FBF2FB11D5D969C93EB
:100A7000818F08958C910895FC01538D448D252F0D
:100A800030E0842F90E0821B930B541710F0CF9628
:100A9000089501970895FC01918D828D981761F05A
:100AA000A28DAE0FBF2FB11D5D968C91928D9F5F71
:100AB0009F73928F90E008958FEF9FEF0895FC0150
:100AC000918D828D981731F0828DE80FF11D858D03
:100AD00090E008958FEF9FEF0895FC01918D228D96
:100AE000892F90E0805C9F4F821B91098F7399271B
:100AF000089589E393E00E946D0521E0892B09F4B4
:100B000020E0822F089586ED93E00E946D0521E09C
:100B1000892B09F420E0822F089583E794E00E9456
:100B20006D0521E0892B09F420E0822F0895FC0156
:100B3000A48DA80FB92FB11DA35ABF4F2C91848D3E
:100B400090E001968F739927848FA689B7892C939B
:100B5000A089B1898C91837080648C93938D848DEE
:100B6000981306C00288F389E02D80818F7D8083F1
:100B70000895EF92FF920F931F93CF93DF93EC01B1
:100B800081E0888F9B8D8C8D98131AC0E889F98934
:100B9000808185FF15C09FB7F894EE89FF89608337
:100BA000E889F98980818370806480839FBF81E0B8
:100BB00090E0DF91CF911F910F91FF90EF900895FA
:100BC000F62E0B8D10E00F5F1F4F0F731127E02ED5
:100BD0008C8D8E110CC00FB607FCFACFE889F9890D
:100BE000808185FFF5CFCE010E949705F1CFEB8D77
:100BF000EC0FFD2FF11DE35AFF4FF0829FB7F894E1
:100C00000B8FEA89FB8980818062CFCFCF93DF93FE
:100C1000EC01888D8823B9F0AA89BB89E889F98914
:100C20008C9185FD03C0808186FD0DC00FB607FC49
:100C3000F7CF8C9185FFF2CF808185FFEDCFCE017C
:100C40000E949705E9CFDF91CF910895F0E0E0E0B1
:100C5000199480E090E0892B29F00E948D05811184
:100C60000E94000080E090E0892B49F080E090E055
:100C7000892B29F00E94000081110E9400000E942F
:100C8000830581110E94260680E090E0892B29F0DF
:100C90000E94790581110C94000008958F929F9213
:100CA000AF92BF92CF92DF92EF92FF920F931F937A
:100CB000CF93DF93EC016A017B0120E030E04FE746
:100CC00053E4CB01B6010E94A3134B015C0120E069
:100CD00030E0A9010E943A1518168CF5C501B4013F
:100CE0000E9404158B01B98020E030E0A901C70102
:100CF000B6010E943A1560E018160CF061E08B2DE9
:100D00000E94E3020F3F110509F0ECF41127C8819E
:100D100061E08C2F0E94500301151105B9F460E0C9
:100D20008C2FDF91CF911F910F91FF90EF90DF906B
:100D3000CF90BF90AF909F908F900C94E302C5012D
:100D4000B4019058CDCF0FEF10E0E1CF0F3F110568
:100D500011F461E0E5CFEC2FF0E0E956FD4FE491AE
:100D6000E150E23108F0BCC0F0E08827E554F94FCB
:100D70008F4F0C948F14CD06DE06E306ED06F706C2
:100D800070070107090711071B0725072F073E07F3
:100D90004807700752075C07660784B5806884BD02
:100DA00007BDDF91CF911F910F91FF90EF90DF90E2
:100DB000CF90BF90AF909F908F90089584B5806240
:100DC00084BD08BDEECF8091800080688093800054
:100DD0001093890000938800E4CF809180008062A6
:100DE0008093800010938B0000938A00DACF80916B
:100DF000800088608093800010938D0000938C00A9
:100E0000D0CF8091B00080688093B0000093B30091
:100E1000C8CF8091B00080628093B0000093B4008E
:100E2000C0CF8091900080688093900010939900CB
:100E300000939800B6CF80919000806280939000DC
:100E400010939B0000939A00ACCF80919000886033
:100E50008093900010939D0000939C00A2CF8091FE
:100E6000A00080688093A0008091A0008F7B809379
:100E7000A0001093A9000093A80093CF8091A00038
:100E800080628093A0001093AB000093AA0089CFEA
:100E90008091A00088608093A0001093AD00009323
:100EA000AC007FCF80912001806880932001109357
:100EB00029010093280175CF8091200180628093E1
:100EC000200110932B0100932A016BCF8091200108
:100ED00088608093200110932D0100932C0161CF35
:100EE000003811050CF035CF1ACF8EBD00000DB4BF
:100EF00007FEFDCF8EB50895CF93DF93EC0160E040
:100F000088810E94E30288E90E94750780E00E94C0
:100F1000750780E00E94750780E00E94750780E0F9
:100F20000E94750761E088810E94E3028BE891E0EE
:100F30000197F1F760E088810E94E30280EE0E9451
:100F4000750761E08881DF91CF910C94E302AF9245
:100F5000BF92CF92DF92EF92FF920F931F93CF93A6
:100F6000DF93CDB7DEB760970FB6F894DEBF0FBE44
:100F7000CDBF6C0160E0FC0180810E94E30280E64D
:100F80000E9475079E012F5F3F4F79015E0131E19D
:100F9000A30EB11C870180E00E94750790E0B0E0CD
:100FA000A0E0F80181939193A193B1938F01EA1589
:100FB000FB0589F761E0F60180810E94E30280E091
:100FC00090E0DC01F70141915191619171917F01B4
:100FD000BA2FA92F982F8827840F951FA61FB71FF8
:100FE000E017F10779F79C01AD0166277727CB0160
:100FF000621B730B840B950B60960FB6F894DEBFE3
:101000000FBECDBFDF91CF911F910F91FF90EF9059
:10101000DF90CF90BF90AF900895FC01248131E024
:101020003093090320932B0310920A0310922C0390
:101030008485682B8DE293E00E9424020C94A60321
:10104000089590E080E008950F931F93CF938C0153
:10105000C62F64600E940D086C2F6B7FC8010E9430
:101060000D0883EC90E00197F1F7CF911F910F915C
:1010700008950F931F93CF93DF938C01C62FD62F24
:10108000D07FD1606D2F0E940D086D2FC8010E9486
:10109000240880E1C89FE0011124C1606C2FC801C1
:1010A0000E940D086C2FC8010E94240881E090E086
:1010B000DF91CF911F910F910895FC0101900020C5
:1010C000E9F73197AF01481B590BBC0183E794E066
:1010D0000C94F6048F929F92AF92BF920F931F933E
:1010E000CF93DF93CDB7DEB7A1970FB6F894DEBFED
:1010F0000FBECDBF19A2423008F44AE08E010F5D49
:101100001F4F842E912CB12CA12CA50194010E947B
:101110006114E62FB901CA01EA30F4F4E05DD801A8
:10112000EE938D01232B242B252B79F790E080E083
:10113000109719F0CD010E945D08A1960FB6F894A2
:10114000DEBF0FBECDBFDF91CF911F910F91BF903A
:10115000AF909F908F900895E95CE1CFCF92DF929E
:10116000EF92FF92CF93DF936B017C016DE283E7F7
:1011700094E00E94B905EC0166277727CB016C1932
:101180007D098E099F094AE00E946A088C0F9D1F05
:10119000DF91CF91FF90EF90DF90CF90089585ED94
:1011A0008093BC008091050390910603A0910703F2
:1011B000B09108030796A11DB11D23E0B695A79530
:1011C000979587952A95D1F72091BC0024FD03C0FF
:1011D0001092030308954091050350910603609116
:1011E000070370910803452B462B472B69F30097A3
:1011F000A105B10541F025E32A95F1F7000001971B
:10120000A109B109E1CF809104030C942F031F922F
:101210000F920FB60F9211240F900FBE0F901F90D8
:1012200018951F920F920FB60F9211240BB60F92C2
:101230002F933F934F935F936F937F938F939F93DE
:10124000AF93BF93EF93FF938091B900887F80366F
:1012500009F44DC008F040C0883209F4A9C028F54F
:10126000803109F49DC0C8F4882309F4FBC088309C
:1012700009F496C0FF91EF91BF91AF919F918F912B
:101280007F916F915F914F913F912F910F900BBE86
:101290000F900FBE0F901F901895883109F488C0E9
:1012A000803241F78093010314C0803409F49DC05B
:1012B00040F48033B9F38833E9F68093010385EC79
:1012C000B0C0803509F485C0883509F496C08834EB
:1012D00089F60E94CF08CECF883909F48CC038F542
:1012E000883729F050F4883611F0803719F683E0FA
:1012F000809303031092DA0257C0883809F47BC048
:10130000803919F0803809F0B5CF8091DA02803247
:1013100008F071C0E091DA0281E08E0F8093DA026A
:101320008091BB00F0E0E654FD4F80833DC0803BE0
:1013300039F0E0F4803A09F479C0883A09F09ACF9C
:1013400084E0809303031092B7021092B602E091FA
:10135000B402F091B50219958091B60281110FC0C7
:1013600081E08093B6021092940209C0803C09F497
:10137000A6CF883C09F4A3CF883B09F07BCFE0914E
:10138000B70281E08E0F8093B702F0E0EC56FD4F7C
:1013900080818093BB009091B7028091B60229C0F2
:1013A0008091DE028093BB0085EC8093BC0062CF0D
:1013B000909100038091FF02981758F5E091000387
:1013C00081E08E0F80930003F0E0E152FD4F8081B9
:1013D000E9CFE091000381E08E0F809300038091BC
:1013E000BB00F0E0E152FD4F8083909100038091BB
:1013F000FF029817C8F285E8D8CFE091000381E09A
:101400008E0F809300038091BB00F0E0E152FD4F0E
:1014100080838091020381115CCF81E08093DD02A3
:1014200084EA8093BC001092030324CF85EC809360
:10143000BC00109203038091DA02803230F4E09114
:10144000DA02F0E0E654FD4F10826091DA0270E0BB
:10145000E091B802F091B9028AEB92E019951092EE
:10146000DA0208CF1092010334CF1F920F920FB609
:101470000F9211242F933F938F939F93AF93BF931A
:101480008091690290916A02A0916B02B0916C0206
:101490003091680223E0230F2D3758F50196A11DE6
:1014A000B11D209368028093690290936A02A09311
:1014B0006B02B0936C0280916D0290916E02A091CC
:1014C0006F02B09170020196A11DB11D80936D0253
:1014D00090936E02A0936F02B0937002BF91AF9190
:1014E0009F918F913F912F910F900FBE0F901F9062
:1014F000189526E8230F0296A11DB11DD2CF1F9289
:101500000F920FB60F9211240BB60F922F933F93A9
:101510004F935F936F937F938F939F93AF93BF93FB
:10152000EF93FF9380915F0290916002A09161021E
:10153000B0916202892B8A2B8B2BD1F190915E02A4
:101540008091000089278093000080915F02909134
:101550006002A0916102B0916202181619061A0683
:101560001B069CF480915F0290916002A091610241
:10157000B09162020197A109B10980935F02909333
:101580006002A0936102B0936202FF91EF91BF915C
:10159000AF919F918F917F916F915F914F913F910B
:1015A0002F910F900BBE0F900FBE0F901F901895AC
:1015B00080910002ECEBF1E0E4919FEF9093000248
:1015C000E230E9F040F4EE2389F0E13091F060E0A0
:1015D0000E94E302DACFE43049F110F1E530B9F7C7
:1015E000909173009D7F90937300F1CF10926E00E5
:1015F000EECF90916F009D7F90936F00E8CF909118
:1016000070009D7F9093700091E09093B000909156
:10161000B100987F94609093B1001092B300D7CF3F
:10162000909171009D7F90937100D1CF9091720045
:101630009D7F90937200CBCF1F920F920FB60F92A7
:1016400011240BB60F922F933F934F935F936F9399
:101650007F938F939F93AF93BF93EF93FF9389E310
:1016600093E00E949705FF91EF91BF91AF919F91F9
:101670008F917F916F915F914F913F912F910F903B
:101680000BBE0F900FBE0F901F9018951F920F92D8
:101690000FB60F9211240BB60F922F933F934F93D7
:1016A0005F936F937F938F939F93AF93BF93EF93CA
:1016B000FF9389E393E00E942305FF91EF91BF918F
:1016C000AF919F918F917F916F915F914F913F91DA
:1016D0002F910F900BBE0F900FBE0F901F9018957B
:1016E0001F920F920FB60F9211240BB60F922F93E9
:1016F0003F934F935F936F937F938F939F93AF939A
:10170000BF93EF93FF9386ED93E00E949705FF91BF
:10171000EF91BF91AF919F918F917F916F915F9169
:101720004F913F912F910F900BBE0F900FBE0F90D6
:101730001F9018951F920F920FB60F9211240BB69F
:101740000F922F933F934F935F936F937F938F935A
:101750009F93AF93BF93EF93FF9386ED93E00E9427
:101760002305FF91EF91BF91AF919F918F917F9151
:101770006F915F914F913F912F910F900BBE0F9002
:101780000FBE0F901F9018951F920F920FB60F92D9
:1017900011240BB60F922F933F934F935F936F9348
:1017A0007F938F939F93AF93BF93EF93FF9383E7C1
:1017B00094E00E949705FF91EF91BF91AF919F91A7
:1017C0008F917F916F915F914F913F912F910F90EA
:1017D0000BBE0F900FBE0F901F9018951F920F9287
:1017E0000FB60F9211240BB60F922F933F934F9386
:1017F0005F936F937F938F939F93AF93BF93EF9379
:10180000FF9383E794E00E942305FF91EF91BF913E
:10181000AF919F918F917F916F915F914F913F9188
:101820002F910F900BBE0F900FBE0F901F90189529
:101830001F920F920FB60F9211240BB60F922F9397
:101840003F934F935F936F937F938F939F93AF9348
:10185000BF93EF93FF93809111050E94BA022091EC
:101860001505309116052F5F3F4F309316052093D5
:10187000150590911405953618F096E09093100593
:1018800090911005943009F466C0B8F49230F1F0EC
:10189000933009F444C090911305992309F46BC067
:1018A00081117CC080911205882309F463C0809166
:1018B000120561E00E94E3025EC0953009F457C052
:1018C000963049F791E09093E1054FC08111E3CF45
:1018D00020911505309116052436310528F4109213
:1018E000160510921505D7CF1092E1051092140538
:1018F000E091140591E09E0F90931405F0E0209183
:10190000150530911605EE0FFF1FE05FFA4F308787
:101910002783109216051092150593E019C08130A7
:1019200009F0B9CFE091140591E09E0F9093140552
:10193000F0E02091150530911605EE0FFF1FE05FD6
:10194000FA4F30872783109216051092150594E000
:1019500090931005A0CF882359F22091150530915E
:1019600016052536310508F496CF95E0F1CF8111A3
:1019700092CFB5CF2F9AFF91EF91BF91AF919F91E9
:101980008F917F916F915F914F913F912F910F9028
:101990000BBE0F900FBE0F901F90189580911205EF
:1019A000882321F08091120560E084CF2F98E3CF47
:1019B0001F920F920FB60F9211240BB60F922F9316
:1019C0003F934F935F936F937F938F939F93AF93C7
:1019D000BF93CF93DF93EF93FF9380915D02C0910C
:1019E0001E06D0E087FF23C010928500109284006D
:1019F00080915D028F5F80935D0280915D02082E71
:101A0000000C990B8C179D0724F480915D028C309B
:101A100074F1809184009091850084349C4908F48D
:101A200065C08091840090918500049661C080918A
:101A30005D02082E000C990B8C179D07CCF6309197
:101A40005D0225E03203F0011124EE51FA4F80814E
:101A500086FFCECF30915D023203F0011124EE51AA
:101A6000FA4F808160E08F730E94E302C1CF8091C2
:101A700084009091850030915D0225E03203F001F1
:101A80001124EE51FA4F41815281840F951F90939A
:101A900089008093880030915D023203F0011124A7
:101AA000EE51FA4F808186FF0CC030915D02320307
:101AB000F0011124EE51FA4F808161E08F730E9492
:101AC000E302FF91EF91DF91CF91BF91AF919F9191
:101AD0008F917F916F915F914F913F912F910F90D7
:101AE0000BBE0F900FBE0F901F90189580E49CE9DD
:101AF00090938900809388008FEF80935D02E1CFFF
:101B00001092300310922F0388EE93E0A0E0B0E033
:101B10008093310390933203A0933303B093340343
:101B200025E132E030932E0320932D0310923C03E5
:101B300010923B0380933D0390933E03A0933F0399
:101B4000B093400327E232E030933A032093390305
:101B500045E351E0509346034093450344E351E08D
:101B6000509348034093470340E351E050934A03A6
:101B70004093490341E351E050934C0340934B039E
:101B800042E351E050934E0340934D0346E351E04E
:101B90005093500340934F031092520310925303FB
:101BA00010925403109255031092D9031092D80347
:101BB0008093DA039093DB03A093DC03B093DD03FF
:101BC0003093D7032093D60345ED50E05093E303C1
:101BD0004093E20344ED50E05093E5034093E40367
:101BE00040ED50E05093E7034093E60341ED50E0B1
:101BF0005093E9034093E80342ED50E05093EB0328
:101C00004093EA0346ED50E05093ED034093EC031C
:101C10001092EF031092F0031092F1031092F2036E
:101C20001092760410927504809377049093780450
:101C3000A0937904B0937A043093740420937304CE
:101C400085EC90E09093800480937F0484EC90E096
:101C5000909382048093810480EC90E090938404BC
:101C60008093830481EC90E09093860480938504B4
:101C700082EC90E0909388048093870486EC90E057
:101C800090938A048093890410928C0410928D049E
:101C900010928E0410928F048091090290910A0292
:101CA000A0910B02B0910C02809308079093090752
:101CB000A0930A07B0930B0780910D0290910E023A
:101CC000A0910F02B091100280930C0790930D0722
:101CD000A0930E07B0930F0784E08093100787E06E
:101CE000809311071092120784EB8093130786E10B
:101CF0008093140788E18093150787E18093160786
:101D000089E180931707E0911E06EC3008F4A9C022
:101D10008FEF80931807E0911E06EC3008F4B2C0F4
:101D20008FEF809319078CE08093E70684E280931D
:101D3000E80686E08093E90685E08093EA068FE175
:101D40008093EB068EE18093EC0683E28093ED06B0
:101D500082E28093EE0685E48093EF0684E480932C
:101D6000F00680E48093F3061092F8061092F906CC
:101D70001092FA061092FB061092FC061092FD06D5
:101D80001092FE061092FF06E9E2F6E08FEF9FEF59
:101D9000DC01128213821482158216821782108649
:101DA000118683879487A587B6878787908BA18BB9
:101DB000B28B128611821082739626E0E73EF207FC
:101DC00041F78DE090E00E943F15FC0113821282E2
:101DD00089E392E091838083118687E2848384E1A2
:101DE000828784E083871486F0932606E093250695
:101DF000109227061092280685E280931105109212
:101E000013051092200610921F06109222061092BF
:101E10002106109224061092230661E070E090E003
:101E200080E00E9464160097F1F190932006809361
:101E30001F0610922206109221062091230630914F
:101E40002406232B11F4FC01108210922406109218
:101E5000230663E472E080911F06909120060C94A3
:101E60004E1781E08E0F80931E06E093180725E041
:101E7000E29FF0011124EE51FA4F88EB9BE0928330
:101E8000818349CF81E08E0F80931E06E09319076E
:101E900085E0E89FF0011124EE51FA4F88EB9BE0BA
:101EA0009283818340CF80911F06909120060097F6
:101EB00011F00E94DB151092200610921F0610925E
:101EC00024061092230610922206109221060895ED
:101ED000789484B5826084BD84B5816084BD85B505
:101EE000826085BD85B5816085BD80916E00816011
:101EF00080936E00109281008091810082608093B7
:101F000081008091810081608093810080918000B8
:101F10008160809380008091B10084608093B100E3
:101F20008091B00081608093B000809191008260C8
:101F300080939100809191008160809391008091C5
:101F400090008160809390008091A10082608093D6
:101F5000A1008091A10081608093A1008091A000E8
:101F600081608093A0008091210182608093210193
:101F70008091210181608093210180912001816005
:101F80008093200180917A00846080937A00809110
:101F90007A00826080937A0080917A0081608093D9
:101FA0007A0080917A00806880937A001092C10054
:101FB000E0918304F091840482E08083E0917F04C7
:101FC000F09180041082E0918104F09182048FEC02
:101FD000808310928B04E0918704F091880486E05E
:101FE0008083E0918504F091860480818061808304
:101FF000E0918504F0918604808188608083E0917F
:102000008504F0918604808180688083E091850456
:10201000F091860480818F7D808361E08091E80665
:102020000E94500360E08091E8060E94E30260E0B5
:102030008091E7060E9450038DE293E09093F206B0
:102040008093F106109292021092910210920A036C
:1020500010922C030E9411038BEC91E09093B50237
:102060008093B4028CEC91E09093B9028093B80213
:1020700080E090E1A0E0B0E08093F4069093F50654
:10208000A093F606B093F7068AE090E0A0E0B0E0F7
:102090008093F8069093F906A093FA06B093FB0696
:1020A00080E090E0A0E0B0E48093FC069093FD0611
:1020B000A093FE06B093FF0660E070E185E00E9409
:1020C0008D046FE979E380E00E948D0409EE16E04B
:1020D000C7EED6E05BEEC52E56E0D52E60E4662E48
:1020E00062E0762E76E8872E72E0972EEBECEE2EED
:1020F000E7E0FE2ED80112969C91F80181918F01A4
:10210000898F9A8F61E00E94500361E08A8D0E945E
:1021100050035E01FDE1AF0EB11CD80115969C91F4
:10212000159713968C918D8F9E8F61E00E945003BE
:1021300060E08E8D0E94500361E08D8D0E94E3026D
:102140005FB6F89480916302811125C0F3018491F8
:10215000F4019491E82FF0E0EE0FFF1FE354FE4FDF
:10216000A591B4918C91982321F461E085E30E94BC
:10217000E30261E085E30E9450038CB580618CBD71
:102180008CB580648CBD61E084E30E94500361E003
:1021900083E30E945003809163028F5F8093630208
:1021A0005FBEC7010197F1F760E08D8D0E94E302E9
:1021B00088E80E94750783E00E94750761E08D8DB5
:1021C0000E94E302C7010197F1F7C5010E947C0755
:1021D0002296CC16DD0609F08DCF0CE017E0C8E0A2
:1021E000D7E030E1E32E37E0F32E60E0D8018D91A7
:1021F0008D010E945003E016F106B9F700E117E0E7
:1022000085E0F82E9CE0D92E22E0E22EF801C19064
:102210008F0187818C3008F046C061E08C2D0E94D0
:102220005003D80117968C91F89EF0011124EE51BD
:10223000FA4F2C2D2F739081907C922B90831382D8
:1022400014826D2D0E9483148D9DA001112430E015
:1022500020E0BA01620F731FF69EF001F79EF00DA9
:102260001124EE51FA4F908196FD12C02F5F3F4F1F
:102270002C30310571F781110BC010928000E09273
:1022800081001092850010928400E6BAE0926F00FF
:10229000D8011796EC91FE9EF0011124EE51FA4FF1
:1022A000808180648083F801958183818A8B9B8BF8
:1022B00060E00E94500361E08B890E94500360E05F
:1022C0008B890E94E3022296F7E0CC30DF0709F009
:1022D0009DCFF8941092200189E08093210180E243
:1022E00093E0909329018093280110922501109288
:1022F0002401C2E0C09373007894C093100510923B
:1023000014058091110560E00E94500360E084E0B4
:102310000E94500360E085E00E94500360E080E38B
:102320000E94500360E081E30E945003E091830427
:10233000F0918404C083E0917F04F09180041082C6
:10234000E0918104F091820480E1808310928B04FB
:10235000E0918704F091880486E08083E091850411
:10236000F0918604808180618083E0918504F09102
:102370008604808188608083E0918504F0918604E2
:10238000808180688083E0918504F091860480815B
:102390008F7D808380910F070E94BA02892BD1F331
:1023A00086E097E00E947C0784E097E00E947C072B
:1023B00080910F070E94BA02892BD1F304E010E04C
:1023C0008091010290910202019690930202809303
:1023D0000102C0916602D0916702CF3387E1D8072E
:1023E0000CF015C140E050E060E87EEB82E097E041
:1023F0000E944E0686E097E00E94A7071616170671
:10240000180619060CF0D0C086E097E00E94A707D6
:10241000C60FD71FD0936702C093660284E097E08F
:102420000E94A70797FFCCC084E097E00E94A7070F
:1024300090958095709561957F4F8F4F9F4F6090DD
:10244000640270906502660E771E7092650260925B
:10245000640286E097E00E94A7076B017C0186E09A
:1024600097E00E947C0786E097E01C141D041E0480
:102470001F040CF0AAC00E94A7076B017C0186E034
:1024800097E00E947C0784E097E00E94A7074B0139
:102490005C0184E097E00E947C0784E097E0B7FE4F
:1024A000A5C00E94A7074B015C0184E097E00E9451
:1024B0007C07B094A09490948094811C911CA11CE2
:1024C000B11CC701B601681979098A099B090E94E4
:1024D000441320E030E048EC52E40E94A3134B0187
:1024E0005C01BE01D7FF04C0662777276C1B7D0BFC
:1024F00077FE03C071946194710866197709072EFD
:10250000000C880B990B0E94441320E030E048EC4B
:1025100052E40E94A3136B017C01BE01DD0F880B06
:10252000990B97FF6CC00E94AE0881E492E00E9474
:102530005D086091640270916502072E000C880BA3
:10254000990B97FF60C00E94AE0881E492E00E9460
:102550005D082FE632E143E85AE3C501B4010E9469
:10256000A3134B015C0122E838EA4BE758E3C701AB
:10257000B6010E94A3139B01AC01C501B4010E94E6
:10258000981420E030E040E85EE30E949814AB012C
:10259000BC0180E097E00E944E066AE070E080E0B7
:1025A00090E00E94C40415CF86E097E00E94A70740
:1025B00090958095709561957F4F8F4F9F4F28CF55
:1025C00084E097E00E94A7073ACF0E94A7076B011B
:1025D0007C0186E097E00E947C07F094E094D09420
:1025E000C094C11CD11CE11CF11C4DCF0E94A70757
:1025F0004B015C0184E097E00E947C0762CF4AE0D7
:102600000E946A0892CF4AE00E946A089ECF40E08A
:1026100050E060E070E882E097E00E944E0640E003
:1026200050E0BA0180E097E00E944E0662E370E05D
:1026300080E090E00E94C40410926702109266024B
:10264000109265021092640286E097E00E947C0777
:1026500084E097E00E947C070150110909F0B0CE98
:1026600068EC70E080E090E00E94C4040E942906BB
:102670009FCE80911F0690912006009711F00C9438
:10268000DB150895E89409C097FB3EF4909580957A
:10269000709561957F4F8F4F9F4F9923A9F0F92F28
:1026A00096E9BB279395F695879577956795B795A6
:1026B000F111F8CFFAF4BB0F11F460FF1BC06F5F8C
:1026C0007F4F8F4F9F4F16C0882311F096E911C09E
:1026D000772321F09EE8872F762F05C0662371F0BF
:1026E00096E8862F70E060E02AF09A95660F771FD3
:1026F000881FDAF7880F9695879597F90895990FAF
:102700000008550FAA0BE0E8FEEF16161706E807BB
:10271000F907C0F012161306E407F50798F0621BDC
:10272000730B840B950B39F40A2661F0232B242BB1
:10273000252B21F408950A2609F4A140A6958FEFD0
:10274000811D811D08950E94B6130C9427140E94C8
:10275000191438F00E94201420F0952311F00C94E5
:1027600010140C94161411240C945B140E94381449
:1027700070F3959FC1F3950F50E0551F629FF001D4
:10278000729FBB27F00DB11D639FAA27F00DB11DED
:10279000AA1F649F6627B00DA11D661F829F222776
:1027A000B00DA11D621F739FB00DA11D621F839FFD
:1027B000A00D611D221F749F3327A00D611D231FD3
:1027C000849F600D211D822F762F6A2F11249F5721
:1027D00050409AF0F1F088234AF0EE0FFF1FBB1F24
:1027E000661F771F881F91505040A9F79E3F5105E3
:1027F00080F00C9410140C945B145F3FE4F3983E4B
:10280000D4F3869577956795B795F795E7959F5F8C
:10281000C1F7FE2B880F911D9695879597F908951E
:1028200097F99F6780E870E060E008959FEF80EC83
:10283000089500240A941616170618060906089526
:1028400000240A9412161306140605060895092E8C
:102850000394000C11F4882352F0BB0F40F4BF2BFB
:1028600011F460FF04C06F5F7F4F8F4F9F4F08953B
:1028700057FD9058440F551F59F05F3F71F0479531
:10288000880F97FB991F61F09F3F79F08795089516
:10289000121613061406551FF2CF4695F1DF08C035
:1028A000161617061806991FF1CF86957105610552
:1028B00008940895E894BB2766277727CB0197F9FA
:1028C0000895A1E21A2EAA1BBB1BFD010DC0AA1F71
:1028D000BB1FEE1FFF1FA217B307E407F50720F089
:1028E000A21BB30BE40BF50B661F771F881F991F04
:1028F0001A9469F760957095809590959B01AC014D
:10290000BD01CF010895991B79E004C0991F961766
:1029100008F0961B881F7A95C9F780950895EE0FE9
:10292000FF1F881F8BBF0790F691E02D1994505818
:10293000BB27AA270E94AF140C9427140E941914D5
:1029400038F00E94201420F039F49F3F19F426F447
:102950000C9416140EF4E095E7FB0C941014E92F78
:102960000E94381458F3BA17620773078407950753
:1029700020F079F4A6F50C945A140EF4E0950B2E81
:10298000BA2FA02D0B01B90190010C01CA01A001C1
:102990001124FF27591B99F0593F50F4503E68F11C
:1029A0001A16F040A22F232F342F4427585FF3CF5D
:1029B000469537952795A795F0405395C9F77EF42E
:1029C0001F16BA0B620B730B840BBAF09150A1F077
:1029D000FF0FBB1F661F771F881FC2F70EC0BA0FFD
:1029E000621F731F841F48F4879577956795B79585
:1029F000F7959E3F08F0B0CF9395880F08F0992780
:102A0000EE0F9795879508950E940B156894B11164
:102A10000C945B1408950E94401488F09F5798F01E
:102A2000B92F9927B751B0F0E1F0660F771F881FD3
:102A3000991F1AF0BA95C9F714C0B13091F00E94ED
:102A40005A14B1E008950C945A14672F782F8827F0
:102A5000B85F39F0B93FCCF3869577956795B39514
:102A6000D9F73EF490958095709561957F4F8F4F83
:102A70009F4F08950E947F1308F48FEF08950F93DE
:102A80001F93CF93DF938230910510F482E090E0A2
:102A9000E0912007F091210730E020E0B0E0A0E0D5
:102AA000309799F42115310509F44AC0281B390BD8
:102AB00024303105D8F58A819B816115710589F132
:102AC000FB0193838283FE0111C040815181028109
:102AD000138148175907E0F04817590799F41097E0
:102AE00061F012960C93129713961C933296CF01B5
:102AF000DF91CF911F910F910895009320071093BC
:102B00002107F4CF2115310551F04217530738F052
:102B1000A901DB019A01BD01DF01F801C1CFEF017D
:102B2000F9CF9093210780932007CDCFFE01E20FCC
:102B3000F31F819391932250310939832883D7CF92
:102B400020911E0730911F07232B41F4209105028D
:102B50003091060230931F0720931E072091030235
:102B6000309104022115310541F42DB73EB7409153
:102B7000070250910802241B350BE0911E07F091CB
:102B80001F07E217F307A0F42E1B3F0B2817390786
:102B900078F0AC014E5F5F4F2417350748F04E0FB9
:102BA0005F1F50931F0740931E07819391939FCF00
:102BB000F0E0E0E09CCFCF93DF930097E9F0FC01D9
:102BC000329713821282A0912007B0912107ED0164
:102BD00030E020E01097A1F420813181820F931F13
:102BE00020911E0730911F072817390709F061C08F
:102BF000F0931F07E0931E07DF91CF910895EA013C
:102C0000CE17DF07E8F54A815B819E01411551052A
:102C1000B1F7E901FB83EA8349915991C40FD51FAC
:102C2000EC17FD0761F4808191810296840F951F56
:102C3000E90199838883828193819B838A83F0E071
:102C4000E0E012968D919C9113970097B9F52D9124
:102C50003C911197CD010296820F931F20911E0780
:102C600030911F072817390739F6309751F5109220
:102C7000210710922007B0931F07A0931E07BCCF17
:102C8000D383C28340815181840F951FC817D90710
:102C900061F44E5F5F4F88819981480F591F5183BE
:102CA00040838A819B81938382832115310509F0BA
:102CB000B0CFF0932107E09320079ECFFD01DC0108
:102CC000C0CF13821282D7CF4F925F926F927F92C2
:102CD0008F929F92AF92BF92CF92DF92EF92FF922C
:102CE0000F931F93CF93DF938C01009799F4CB013F
:102CF000DF91CF911F910F91FF90EF90DF90CF90D8
:102D0000BF90AF909F908F907F906F905F904F900B
:102D10000C943F15FC01E60FF71F9C01225031096E
:102D2000E217F30708F4AEC0D901CD91DC911197F9
:102D3000C617D70720F1C530D10578F0CE0104972A
:102D40008617970750F0C61BD70B2297C193D193D4
:102D50006D937C93CF010E94DB15C801DF91CF9169
:102D60001F910F91FF90EF90DF90CF90BF90AF90A9
:102D70009F908F907F906F905F904F9008955B0130
:102D8000AC1ABD0A4C018C0E9D1EA0912007B0917B
:102D90002107512C412CF12CE12C109731F5809119
:102DA0001E0790911F078815990509F05CC046160B
:102DB000570608F058C080910302909104020097D2
:102DC00041F48DB79EB74091070250910802841BD1
:102DD000950BE817F90708F055C0F0931F07E0932B
:102DE0001E07F90171836083B8CF8D919C91119773
:102DF00012966C90129713967C901397A815B905AC
:102E000059F56C0142E0C40ED11CCA14DB0420F158
:102E1000AC014A195B09DA011296159780F06282BB
:102E2000738251834083D9016D937C93E114F10443
:102E300071F0D7011396FC93EE9312978ECF2296E2
:102E40008C0F9D1FF90191838083F301EFCFF093E5
:102E50002107E093200781CF4816590608F42C017A
:102E60007D01D3019ACFCB010E943F157C010097D1
:102E700049F0AE01B8010E944517C8010E94DB1558
:102E800087016BCF10E000E068CFFB01DC0102C0DE
:102E900001900D9241505040D8F70895FB01DC019C
:102EA00001900D920020E1F7089511E0C0E7D1E014
:102EB00000E006C0802FFE010E948F142196011DA4
:0E2EC000C137D10780E00807A9F7F894FFCFCB
:102ECE00FF0100000022078000363738391B1D1A1B
:102EDE001C000000002402F7012108CD01F001DDE5
:102EEE0001CE0100000000B905F6043C0506066D92
:102EFE00054B055F05000000003908F60421082087
:042F0E00080D0A00A0
:00000001FF
