:100000000C9471010C94A2010C94A2010C94A20115
:100010000C94A2010C94A2010C94A2010C94A201D4
:100020000C94A2010C941E0E0C941E0E0C941E0E29
:100030000C94A2010C94960F0C94A2010C94A201B2
:100040000C94A2010C94EF110C94A2010C94A20147
:100050000C94A2010C94A2010C94A2010C944C0FDC
:100060000C94A2010C9405110C94DB100C94A201C9
:100070000C94A2010C94A2010C94A2010C94A20174
:100080000C94A2010C94A2010C94A2010C94A20164
:100090000C94A2010C94A2010C94A2010C94280EC1
:1000A0000C94A2010C94A2010C94A2010C94A20144
:1000B0000C94A2010C94A2010C94A2010C942F1197
:1000C0000C94A2010C94A2010C94A2010C94B11006
:1000D0000C9487100C94A2010C945D100C943310B6
:1000E0000C94A2010C9464080C94DD010C9496020B
:1000F0000C949A020C949E020C94D6050C94A802BF
:100100000C9477020C946F070C940A070C947417E4
:100110000C943D080C9465070C944C070C947B02DE
:100120000C9424020C947F020C9486020C94EA0630
:100130000C94F7010C94B1020C9414070C9459051B
:100140000C9468050C948C020C94AC020C94710213
:100150000C9497120C941E070C9413050C94A40293
:100160000C9490020C94F0010C943E080C94B20292
:100170000C948A050C9426070C942E070C947C058D
:100180000C94CD010C94CB010C9483020C94380791
:100190000C94B6020C948D070C945B070C94CC0164
:1001A0000C9479070C9442070C94CE010C948307AD
:1001B0000C9400070C9423060C94FB06020000210B
:1001C00000240027002A002D003000330001010028
:1001D00000040107010A0100002200250028002B6D
:1001E000002E003100340002010000050108010B5F
:1001F00001000020002300260029002C002F0032DF
:1002000000000100000301060109010505050507BD
:100210000508080808020202020A0A080804040481
:1002200004010101010101010103030303030303AD
:1002300003040707070C0C0C0C0C0C0C0C0202023C
:100240000206060606060606060B0B0B0B0B0B0B2F
:100250000B010210202008081020401020408002CE
:1002600001020108040201010204081020408080FC
:100270004020100804020180040201804020100880
:100280000402010804020101020408102040800158
:100290000204081020408000000A0B02090C0D0E19
:1002A0000807030401000000000000000000000037
:1002B000000000000000000000000000000000003E
:1002C00000000012111000000000000000000000FB
:1002D0000000000000000000000000000000971275
:1002E000741711241FBECFEFD1E2DEBFCDBF00E0F7
:1002F0000CBF12E0A0E0B2E0EAE7F8E300E00BBFD9
:1003000002C007900D92A235B107D9F727E0A2E508
:10031000B2E001C01D92AE33B207E1F711E0C0E7D1
:10032000D1E000E006C021970109802FFE010E9464
:10033000EE18CF36D10780E00807A9F70E947F1496
:100340000C942B1C0C9400002091D202260F332712
:10035000331F21323105ECF420911F03FC0190E0A2
:1003600080E0243069F082E00895A091D2022191CA
:10037000AC0140555D4FA40FB52FB11D2C930196D4
:10038000861798F38091D202680F6093D20280E0C2
:10039000089581E00895089508950895E091AE02CA
:1003A0008091AD02E81730F4F0E0E357FD4F808113
:1003B00090E008958FEF9FEF08959091AE028091A5
:1003C000AD022FEF3FEF981748F4E92FF0E0E35725
:1003D000FD4F208130E09F5F9093AE02C9010895E8
:1003E0008091AD029091AE02891B990B0895CF9236
:1003F000DF92EF92FF920F931F93CF93DF937C01D5
:10040000CB018A0120912503222389F0EB016B01A6
:10041000C40ED51ECC15DD0569F06991D701ED91AB
:10042000FC910190F081E02DC7011995F3CF642F65
:100430000E94A401C801DF91CF911F910F91FF90FD
:10044000EF90DF90CF900895CF93DF931F92CDB7B9
:10045000DEB76983209125032223F9F02091480318
:10046000203258F021E030E0FC013383228390E019
:1004700080E00F90DF91CF91089580912603E82FBF
:10048000F0E0E95DFC4F998190838F5F80932603B4
:100490008093480381E090E0ECCF61E0CE010196CB
:1004A0000E94A401F7CF8150823108F05AC0E82F92
:1004B000F0E08827E15AFD4F8F4F0C94EE187F0231
:1004C0008302710277027B02B10286028C029002E3
:1004D00096029A029E02A402A802B102AC02B202E3
:1004E000B602809180008F7780938000089580917C
:1004F00080008F7DF9CF80918000877FF5CF84B514
:100500008F7784BD089584B58F7DFBCF8091B00037
:100510008F778093B00008958091B0008F7DF9CFE0
:10052000809190008F778093900008958091900043
:100530008F7DF9CF80919000877FF5CF8091A000CB
:100540008F778093A00008958091A0008F7DF9CFD0
:100550008091A000877FF5CF809120018F778093D5
:1005600020010895809120018F7DF9CF8091200195
:10057000877FF5CFCF93DF93282F30E0F901E9563D
:10058000FD4F8491F901EF5AFD4FD491F901E55FD8
:10059000FD4FC491CC23A1F081110E945302EC2F96
:1005A000F0E0EE0FFF1FEF50FE4FA591B491EC91DC
:1005B000ED2381E090E009F480E0DF91CF91089590
:1005C00080E090E0FACF1F93CF93DF93282F30E0A5
:1005D000F901E956FD4F8491F901EF5AFD4FD4918D
:1005E000F901E55FFD4FC491CC23A9F0162F8111CD
:1005F0000E945302EC2FF0E0EE0FFF1FE952FE4F76
:10060000A591B4918FB7F894EC91111108C0D095D1
:10061000DE23DC938FBFDF91CF911F910895DE2BF6
:10062000F8CF10921F0381E080931E031092F9020D
:1006300061E084E10E94E30261E085E10E94E3025F
:10064000E9EBF0E080818E7F808380818D7F8083E5
:1006500088E48093B80085E48093BC000895CF932C
:10066000DF9391E09093AF028823B9F0C091B80076
:10067000D091BA008091BC008A7B8093BC0060E07E
:1006800084E10E94E30260E085E10E94E3020E94AF
:100690001103D093BA00C093B800DF91CF910895B1
:1006A000CF93DF9390E0FC01EF5AFD4F2491855FDB
:1006B0009D4FFC0184918823D1F090E0880F991F11
:1006C000FC01E354FE4FA591B491FC01E952FE4FA9
:1006D000C591D49161110EC09FB7F8948C91E22F0F
:1006E000E0958E238C932881E223E8839FBFDF91DE
:1006F000CF9108958FB7F894EC91E22BEC938FBFD4
:10070000F6CF863308F0865320917B00982F98709F
:10071000277F922B90937B008770806480937C006E
:1007200080917A00806480937A0080917A0086FDBF
:10073000FCCF809178009091790008953FB7F894AC
:100740008091890290918A02A0918B02B0918C02D3
:1007500026B5A89B05C02F3F19F00196A11DB11D1C
:100760003FBFBA2FA92F982F8827BC01CD01620F58
:10077000711D811D911D42E0660F771F881F991F13
:100780004A95D1F70895CF92DF92EF92FF920F939F
:100790001F93CF93DF93D091480381E0D13208F0CB
:1007A0009CC0C09147030E949E036B017C01809115
:1007B0001F0381116CC082E080931F0381E080934E
:1007C0001E038FEF80931D0310921C03D0931B0315
:1007D000A7E2B3E0EBEFF2E080E0D8138DC0109217
:1007E000FA028091FA02CC0FC82BC093FA028091D2
:1007F000F902813009F084C01092F9020E949E0330
:100800006B017C018091FA028093BB0080912103EF
:1008100090912203A0912303B0912403892B8A2B6A
:100820008B2BA1F00E949E030091210310912203C3
:1008300020912303309124036C197D098E099F09AF
:10084000061717072807390708F442C08091BC0033
:1008500083FDD8CF85EC8093BC000E949E036B0182
:100860007C0180911F03823009F44CC080911D03EC
:100870008F3F09F469C080911D03803209F466C07E
:1008800080911D03803309F463C084E026C0809109
:10089000210390912203A0912303B0912403892B7B
:1008A0008A2B8B2B09F483CF0E949E030091210396
:1008B0001091220320912303309124036C197D09A8
:1008C0008E099F09061717072807390708F06FCF09
:1008D000809120030E942F0385E01092260310923E
:1008E000480310922503DF91CF911F910F91FF9044
:1008F000EF90DF90CF9008959D9191938F5F6DCF92
:1009000085EEA9CF8091210390912203A09123032A
:10091000B0912403892B8A2B8B2B09F4A2CF0E9440
:100920009E03009121031091220320912303309113
:1009300024036C197D098E099F09061717072807DC
:10094000390708F08ECFC4CF80E0C7CF82E0C5CF93
:1009500083E0C3CF0F931F93CF93DF93162F072FFF
:10096000C3E0D7E0AA85BB859C8521E020932503C1
:10097000909347031092260310924803ED91FC9147
:1009800011970190F081E02D682FCD0119958A858E
:100990009B85DC01ED91FC910190F081E02D602FB1
:1009A00019958A859B85DC01ED91FC910190F08180
:1009B000E02D612F1995DF91CF911F910F910C942C
:1009C000C3038F929F92AF92BF92CF92DF92EF922A
:1009D000FF924B015C010E949E036B017C010E940F
:1009E0009E036C197D098E099F09683E734081053D
:1009F0009105A8F321E0821A9108A108B10888EEB8
:100A0000C80E83E0D81EE11CF11C81149104A104DE
:100A1000B10429F7FF90EF90DF90CF90BF90AF9097
:100A20009F908F900895AF92BF92CF92DF92EF92F6
:100A3000FF920F931F93CF93DF936C017B018B0188
:100A4000040F151FEB015E01AE18BF08C017D107D8
:100A500059F06991D601ED91FC910190F081E02D62
:100A6000C6011995892B79F7C501DF91CF911F91A7
:100A70000F91FF90EF90DF90CF90BF90AF900895CF
:100A8000FC01A089B1898C91A689B78982FD0FC02C
:100A90009C91818D8F5F8F73228D821749F0A18D7C
:100AA000AE0FBF2FB11D5D969C93818F08958C91E1
:100AB0000895FC01538D448D252F30E0842F90E064
:100AC000821B930B541710F0CF9608950197089549
:100AD000FC01918D828D981761F0A28DAE0FBF2F12
:100AE000B11D5D968C91928D9F5F9F73928F90E068
:100AF00008958FEF9FEF0895FC01918D828D9817D7
:100B000031F0828DE80FF11D858D90E008958FEF13
:100B10009FEF0895FC01918D228D892F90E0805CDC
:100B20009F4F821B91098F739927089585E593E064
:100B30000E948A0521E0892B09F420E0822F089584
:100B400082EF93E00E948A0521E0892B09F420E0DE
:100B5000822F08958FE894E00E948A0521E0892B76
:100B600009F420E0822F0895FC01A48DA80FB92F6D
:100B7000B11DA35ABF4F2C91848D90E001968F73C5
:100B80009927848FA689B7892C93A089B1898C91E4
:100B9000837080648C93938D848D981306C0028833
:100BA000F389E02D80818F7D80830895EF92FF92FD
:100BB0000F931F93CF93DF93EC0181E0888F9B8D80
:100BC0008C8D98131AC0E889F989808185FF15C03A
:100BD0009FB7F894EE89FF896083E889F98980815D
:100BE0008370806480839FBF81E090E0DF91CF912C
:100BF0001F910F91FF90EF900895F62E0B8D10E04E
:100C00000F5F1F4F0F731127E02E8C8D8E110CC0BC
:100C10000FB607FCFACFE889F989808185FFF5CF07
:100C2000CE010E94B405F1CFEB8DEC0FFD2FF11D2D
:100C3000E35AFF4FF0829FB7F8940B8FEA89FB8944
:100C400080818062CFCFCF93DF93EC01888D8823A2
:100C5000B9F0AA89BB89E889F9898C9185FD03C01F
:100C6000808186FD0DC00FB607FCF7CF8C9185FF04
:100C7000F2CF808185FFEDCFCE010E94B405E9CF90
:100C8000DF91CF910895F0E0E0E0199480E090E0EA
:100C9000892B29F00E94AA0581110E94000080E0A2
:100CA00090E0892B49F080E090E0892B29F00E94A8
:100CB000000081110E9400000E94A00581110E9485
:100CC000430680E090E0892B29F00E94960581116F
:100CD0000C94000008958F929F92AF92BF92CF9292
:100CE000DF92EF92FF920F931F93CF93DF93EC016C
:100CF0006A017B0120E030E04FE753E4CB01B6010D
:100D00000E94E3174B015C0120E030E0A9010E9442
:100D10000B1A18168CF5C501B4010E94D5198B0168
:100D2000B98020E030E0A901C701B6010E940B1A8A
:100D300060E018160CF061E08B2D0E94E3020F3F7B
:100D4000110509F0ECF41127C88161E08C2F0E9495
:100D5000500301151105B9F460E08C2FDF91CF919C
:100D60001F910F91FF90EF90DF90CF90BF90AF90C9
:100D70009F908F900C94E302C501B4019058CDCFA1
:100D80000FEF10E0E1CF0F3F110511F461E0E5CF67
:100D9000EC2FF0E0E956FD4FE491E150E23108F02C
:100DA000BCC0F0E08827E852F94F8F4F0C94EE1842
:100DB000EA06FB0600070A0714078D071E07260729
:100DC0002E07380742074C075B0765078D076F073B
:100DD0007907830784B5806884BD07BDDF91CF9113
:100DE0001F910F91FF90EF90DF90CF90BF90AF9049
:100DF0009F908F90089584B5806284BD08BDEECF2A
:100E00008091800080688093800010938900009317
:100E10008800E4CF809180008062809380001093EE
:100E20008B0000938A00DACF8091800088608093E5
:100E3000800010938D0000938C00D0CF8091B00083
:100E400080688093B0000093B300C8CF8091B00059
:100E500080628093B0000093B400C0CF8091900076
:100E60008068809390001093990000939800B6CF0B
:100E70008091900080628093900010939B0000937B
:100E80009A00ACCF8091900088608093900010937E
:100E90009D0000939C00A2CF8091A0008068809369
:100EA000A0008091A0008F7B8093A0001093A900E8
:100EB0000093A80093CF8091A00080628093A0004F
:100EC0001093AB000093AA0089CF8091A0008860A6
:100ED0008093A0001093AD000093AC007FCF809171
:100EE000200180688093200110932901009328013C
:100EF00075CF8091200180628093200110932B0197
:100F000000932A016BCF809120018860809320019B
:100F100010932D0100932C0161CF003811050CF0C6
:100F200035CF1ACF8EBD00000DB407FEFDCF8EB5B4
:100F30000895CF93DF93EC0160E088810E94E30283
:100F400088E90E94920780E00E94920780E00E9458
:100F5000920780E00E94920780E00E94920761E081
:100F600088810E94E3028BE891E00197F1F760E04D
:100F700088810E94E30280EE0E94920761E08881EE
:100F8000DF91CF910C94E302AF92BF92CF92DF92A8
:100F9000EF92FF920F931F93CF93DF93CDB7DEB7FE
:100FA00060970FB6F894DEBF0FBECDBF6C0160E056
:100FB000FC0180810E94E30280E60E9492079E016C
:100FC0002F5F3F4F79015E0131E1A30EB11C870114
:100FD00080E00E94920790E0B0E0A0E0F8018193E9
:100FE0009193A193B1938F01EA15FB0589F761E015
:100FF000F60180810E94E30280E090E0DC01F701CD
:1010000041915191619171917F01BA2FA92F982F30
:101010008827840F951FA61FB71FE017F10779F7E0
:101020009C01AD0166277727CB01621B730B840BF4
:10103000950B60960FB6F894DEBF0FBECDBFDF9163
:10104000CF911F910F91FF90EF90DF90CF90BF90C5
:10105000AF900895FC01248131E030932503209363
:10106000470310922603109248038485682B89E475
:1010700093E00E9424020C94C303089590E080E062
:10108000089580E30E94BA02892B31F481E30E9423
:10109000BA0221E0892B09F020E0822F08950F93F6
:1010A0001F93CF938C01C62F64600E942A086C2F77
:1010B0006B7FC8010E942A0883EC90E00197F1F74A
:1010C000CF911F910F9108950F931F93CF93DF93AB
:1010D0008C01C62FD62FD07FD1606D2F0E942A0899
:1010E0006D2FC8010E944F0880E1C89FE0011124C4
:1010F000C1606C2FC8010E942A086C2FC8010E9491
:101100004F0881E090E0DF91CF911F910F910895FA
:1011100040E050E060E070E88EE197E00E946B06EE
:1011200040E050E0BA018CE197E00E946B066AEF64
:1011300070E080E090E00E94E10482E297E00E948B
:10114000990780E297E00C949907FC010190002038
:10115000E9F73197AF01481B590BBC018FE894E0C8
:101160000C9413058F929F92AF92BF920F931F938F
:10117000CF93DF93CDB7DEB7A1970FB6F894DEBF5C
:101180000FBECDBF19A2423008F44AE08E010F5DB8
:101190001F4F842E912CB12CA12CA50194010E94EB
:1011A000C018E62FB901CA01EA30F4F4E05DD801B5
:1011B000EE938D01232B242B252B79F790E080E0F3
:1011C000109719F0CD010E94A508A1960FB6F894CA
:1011D000DEBF0FBECDBFDF91CF911F910F91BF90AA
:1011E000AF909F908F900895E95CE1CFCF93DF930C
:1011F0000E94A508EC0183E492E00E94A5088C0FF0
:101200009D1FDF91CF910895CF92DF92EF92FF92D1
:10121000CF93DF936B017C01F7FE1FC06DE28FE877
:1012200094E00E94D605EC0166277727CB016C1964
:101230007D098E099F094AE00E94B208C80FD91F94
:1012400083E492E00E94A5088C0F9D1FDF91CF914F
:10125000FF90EF90DF90CF9008954AE00E94B2088F
:10126000EC01EECF4F925F926F927F928F929F929E
:10127000AF92BF92CF92DF92EF92FF921F93CF93E4
:10128000DF936B017C01D42FAC019B010E94101AEB
:101290008823D9F086E492E00E94A508EC0183E45B
:1012A00092E00E94A5088C0F9D1FDF91CF911F91A6
:1012B000FF90EF90DF90CF90BF90AF909F908F9076
:1012C0007F906F905F904F90089546015701E8948A
:1012D000B7F82FEF3FEF4FE75FE7C501B4010E947A
:1012E000101A81110DC02FEF3FEF4FE75FE7C501E7
:1012F000B4010E947D1718161CF48AE492E0CCCF4A
:101300002FEF3FEF4FE75FE4C701B6010E940B1AD2
:1013100018161CF48EE492E0BFCF2FEF3FEF4FE79B
:101320005FECC701B6010E947D1787FDF3CF20E077
:1013300030E0A901C701B6010E947D17B12CA12C94
:1013400087FF0AC06DE28FE894E00E94D6055C0139
:10135000F7FAF094F7F8F0941D2F60E070E080E069
:101360009FE3C0E020E030E040E251E40E946319D6
:10137000CF5FCD17B8F3A70196010E94F7186B0154
:101380007C010E94DC192B013C010E9482179B0109
:10139000AC01C701B6010E94F6186B017C014AE05E
:1013A000C301B2010E94B208EC016EE28FE894E042
:1013B0000E94D605C80FD91FCA0DDB1D115008F4B5
:1013C0006ECF20E030E040E251E4C701B6010E9458
:1013D000E3174B015C010E94DC196B01F12CE12C3D
:1013E0004AE0C701B6010E94B208C80FD91FC70161
:1013F000B6010E9482179B01AC01C501B4010E9495
:10140000F6186B017C01DACF4F925F926F927F9258
:101410008F929F92AF92BF92CF92DF92EF92FF9204
:10142000CF93DF932FB7F894609185027091860275
:1014300080918702909188022FBFC0907302D09054
:101440007402E0907502F09076026C197D098E09A5
:101450009F090E94841720E030E048E452E40E9493
:101460000B1A87FDBCC082E297E00E94C4071616E3
:101470001706180619060CF0C9C082E297E00E9410
:10148000C407EB0180E297E00E94C40797FFC7C042
:1014900080E297E00E94C4079095809570956195D1
:1014A0007F4F8F4F9F4FAE01461B570BBA01072E40
:1014B000000C880B990B0E9484176B017C01209112
:1014C0006F023091700240917102509172020E943D
:1014D000F7184B015C0180926F0290927002A0920B
:1014E0007102B092720225EB3EEF46E958E3C70164
:1014F000B6010E94E3172B013C012BEE35EF46E7C6
:1015000055E3C501B4010E94E3179B01AC01C3017F
:10151000B2010E94F71820E030E040EA51E40E9456
:10152000E31760936B0270936C0280936D0290934B
:101530006E0242E050E0C701B6010E94320960919C
:101540006B0270916C0280916D0290916E024AE084
:1015500050E00E94320985E492E00E94F60882E29F
:1015600097E00E94C40716161706180619060CF015
:1015700068C082E297E00E94C4070E94040980E2EA
:1015800097E00E94C40797FF68C080E297E00E943E
:10159000C40790958095709561957F4F8F4F9F4FB1
:1015A0000E94040985E492E00E94F60861E070E080
:1015B00080E090E00E94E1042FB7F89480918502CA
:1015C00090918602A0918702B09188022FBF8093EC
:1015D000730290937402A0937502B09376026091A7
:1015E0006B0270916C0280916D0290916E02DF919E
:1015F000CF91FF90EF90DF90CF90BF90AF909F90F2
:101600008F907F906F905F904F90089582E297E067
:101610000E94C407CC27DD27C61BD70B33CF80E23F
:1016200097E00E94C4079B01AC0188279927DC0141
:10163000821B930BA40BB50B66277727681B790BCE
:1016400032CF82E297E00E94C40790958095709512
:1016500061957F4F8F4F9F4F90CF80E297E00E9420
:10166000C4079ECF8F929F92AF92BF92CF92DF928C
:10167000EF92FF928091820290918302009709F08D
:1016800055C08FEF9FEF909383028093820281EE8B
:10169000882E87E0982EA12CB12CC12CD12C76015C
:1016A000C39482E297E00E94C40716161706180634
:1016B00019060CF04BC082E297E00E94C407623E1C
:1016C0007740810591050CF0A4C082E297E00E946A
:1016D000C40716161706180619060CF043C082E256
:1016E00097E00E94C4070E94841727E636E447E982
:1016F00054E40E947D1718160CF440C043E353E3F2
:1017000063EB7EEB8EE197E00E946B060E94040A79
:1017100023E333E343EB5EE30E94F718AB01BC0124
:1017200070588CE197E00E946B06BBCF8F3F980703
:1017300019F482E090E0A7CF029719F481E090E0DD
:10174000A2CF1092830210928202A1CF82E297E090
:101750000E94C40790958095709561957F4F8F4F3B
:101760009F4FADCF82E297E00E94C407909580958D
:10177000709561957F4F8F4F9F4FB5CF82E297E075
:101780000E94C4071616170618061906B4F582E259
:1017900097E00E94C407A50194010E94A118C70107
:1017A000B601621B730B840B950B0E94841720E01B
:1017B00030E040E25FEB0E94E3172AE939E949E3B0
:1017C0005FE30E94F718609377027093780280932A
:1017D000790290937A02AB01BC0170588EE197E0D8
:1017E0000E946B060E94040A2091770230917802D1
:1017F0004091790250917A028FCF82E297E00E9465
:10180000C40790958095709561957F4F8F4F9F4F3E
:10181000C2CFFF90EF90DF90CF90BF90AF909F909E
:101820008F900C9488088F929F92AF92BF92CF9224
:10183000DF92EF92FF928091820290918302009753
:1018400009F054C081E090E090938302809382027B
:1018500081EE882E87E0982EA12CB12CC12CD12CA2
:101860007601C39482E297E00E94C4071616170619
:10187000180619060CF04AC082E297E00E94C407DD
:10188000623E7740810591050CF0A2C082E297E0AC
:101890000E94C40716161706180619060CF042C057
:1018A00082E297E00E94C4070E94841727E636E48C
:1018B00047E954E40E947D1718160CF43FC043E337
:1018C00053E363EB7EE38EE197E00E946B060E9498
:1018D000040A23E333E343EB5EE30E94F718AB0112
:1018E000BC018CE197E00E946B06BCCF8F3F98074C
:1018F00029F41092830210928202AACF029719F45F
:101900008FEF9FEFA1CF82E090E09ECF82E297E041
:101910000E94C40790958095709561957F4F8F4F79
:101920009F4FAECF82E297E00E94C40790958095CA
:10193000709561957F4F8F4F9F4FB6CF82E297E0B2
:101940000E94C4071616170618061906ACF582E29F
:1019500097E00E94C407A50194010E94A118C70145
:10196000B601621B730B840B950B0E94841720E059
:1019700030E040E25FEB0E94E3172AE939E949E3EE
:101980005FE30E94F718AB01BC01409377025093CC
:1019900078026093790270937A028EE197E00E9458
:1019A0006B060E94040A20917702309178024091E0
:1019B000790250917A0291CF82E297E00E94C407A7
:1019C00090958095709561957F4F8F4F9F4FC3CFB6
:1019D000FF90EF90DF90CF90BF90AF909F908F904F
:1019E0000C94880880918202909183028230910544
:1019F00009F45DC02091010230910202280F391FC5
:101A00003093020220930102892B49F48091030252
:101A100090910402019690930402809303026EE673
:101A200070E080E090E00E94E10482E297E00E9492
:101A3000C40716161706180619060CF03EC082E2F7
:101A400097E00E94C40765357A41810591050CF045
:101A5000BBC082E297E00E94C4071616170618065C
:101A60001906BCF582E297E00E94C4070E94841721
:101A700020E030E848E255E40E947D171816ACF1EA
:101A800043E353E363EB7EEB8EE197E00E946B064A
:101A90000E94040A23E333E343EB5EE30E94F7185A
:101AA000AB01BC018CE197E00E946B06BECF809138
:101AB0000302909104020197AECF82E297E00E9468
:101AC000C40790958095709561957F4F8F4F9F4F7C
:101AD000BACF82E297E00E94C407909580957095F6
:101AE00061957F4F8F4F9F4FC1CF82E297E00E9459
:101AF000C4071616170618061906ECF482E297E0DA
:101B00000E94C4070E94841720E030E743E955E4AF
:101B10000E947D171816DCF04DEC5CEC6CEC7EEB53
:101B20008EE197E00E946B060E94040A25E83BEED6
:101B300041ED5EE3B3CF82E297E00E94C407909547
:101B40008095709561957F4F8F4F9F4FDBCF82E2DD
:101B500097E00E94C4071616170618061906ECF43B
:101B600082E297E00E94C4070E94841720E030E9D7
:101B70004DEB55E40E947D174DEC5CEC6CE47EEB84
:101B80001816BCF08EE197E00E946B060E94040AD2
:101B90002EE33AE047E55EE381CF82E297E00E94E0
:101BA000C40790958095709561957F4F8F4F9F4F9B
:101BB000DBCF8EE197E00E946B060E94040A2DECB9
:101BC0003CEC4CE45EE36ACF0C94880885ED80938E
:101BD000BC008091210390912203A0912303B09136
:101BE00024030796A11DB11D23E0B695A7959795EF
:101BF00087952A95D1F72091BC0024FD03C010924F
:101C00001F03089540912103509122036091230303
:101C100070912403452B462B472B69F30097A105B0
:101C2000B10541F025E32A95F1F700000197A109DC
:101C3000B109E1CF809120030C942F031F920F92E2
:101C40000FB60F9211240F900FBE0F901F90189592
:101C50001F920F920FB60F9211240BB60F922F9373
:101C60003F934F935F936F937F938F939F93AF9324
:101C7000BF93EF93FF938091B900887F803609F47A
:101C80004DC008F040C0883209F4A9C028F5803161
:101C900009F49DC0C8F4882309F4FBC0883009F416
:101CA00096C0FF91EF91BF91AF919F918F917F91DE
:101CB0006F915F914F913F912F910F900BBE0F90BD
:101CC0000FBE0F901F901895883109F488C080329C
:101CD00041F780931D0314C0803409F49DC040F483
:101CE0008033B9F38833E9F680931D0385ECB0C0E7
:101CF000803509F485C0883509F496C0883489F6A2
:101D00000E94E60DCECF883909F48CC038F58837AB
:101D100029F050F4883611F0803719F683E080936B
:101D20001F031092F60257C0883809F47BC080392F
:101D300019F0803809F0B5CF8091F602803208F0B2
:101D400071C0E091F60281E08E0F8093F6028091DF
:101D5000BB00F0E0EA52FD4F80833DC0803B39F08C
:101D6000E0F4803A09F479C0883A09F09ACF84E027
:101D700080931F031092D3021092D202E091D002FE
:101D8000F091D10219958091D20281110FC081E0AA
:101D90008093D2021092B00209C0803C09F4A6CF11
:101DA000883C09F4A3CF883B09F07BCFE091D302B4
:101DB00081E08E0F8093D302F0E0E055FD4F8081EB
:101DC0008093BB009091D3028091D20229C0809170
:101DD000FA028093BB0085EC8093BC0062CF9091A7
:101DE0001C0380911B03981758F5E0911C0381E0B8
:101DF0008E0F80931C03F0E0E550FD4F8081E9CF0A
:101E0000E0911C0381E08E0F80931C038091BB0046
:101E1000F0E0E550FD4F808390911C0380911B03FF
:101E20009817C8F285E8D8CFE0911C0381E08E0FA7
:101E300080931C038091BB00F0E0E550FD4F808350
:101E400080911E0381115CCF81E08093F90284EAC6
:101E50008093BC0010921F0324CF85EC8093BC00BC
:101E600010921F038091F602803230F4E091F60266
:101E7000F0E0EA52FD4F10826091F60270E0E091CE
:101E8000D402F091D50286ED92E019951092F602F7
:101E900008CF10921D0334CF1F920F920FB60F92EE
:101EA00011242F933F938F939F93AF93BF93809170
:101EB000850290918602A0918702B09188023091AC
:101EC000840223E0230F2D3758F50196A11DB11D83
:101ED000209384028093850290938602A0938702C8
:101EE000B09388028091890290918A02A0918B021E
:101EF000B0918C020196A11DB11D8093890290932F
:101F00008A02A0938B02B0938C02BF91AF919F91F4
:101F10008F913F912F910F900FBE0F901F901895AA
:101F200026E8230F0296A11DB11DD2CF1F920F925A
:101F30000FB60F9211240BB60F922F933F934F932E
:101F40005F936F937F938F939F93AF93BF93EF9321
:101F5000FF9380917D0290917E02A0917F02B091CB
:101F60008002892B8A2B8B2BD1F190917C0280915E
:101F7000000089278093000080917D0290917E026D
:101F8000A0917F02B0918002181619061A061B064E
:101F90009CF480917D0290917E02A0917F02B0918D
:101FA00080020197A109B10980937D0290937E027E
:101FB000A0937F02B0938002FF91EF91BF91AF9108
:101FC0009F918F917F916F915F914F913F912F9151
:101FD0000F900BBE0F900FBE0F901F901895809121
:101FE0000002ECEBF1E0E4919FEF90930002E2300D
:101FF000E9F040F4EE2389F0E13091F060E00E94D6
:10200000E302DACFE43049F110F1E530B9F790910D
:1020100073009D7F90937300F1CF10926E00EECF0E
:1020200090916F009D7F90936F00E8CF909170002A
:102030009D7F9093700091E09093B0009091B100DB
:10204000987F94609093B1001092B300D7CF909195
:1020500071009D7F90937100D1CF909172009D7F10
:1020600090937200CBCF1F920F920FB60F92112454
:102070000BB60F922F933F934F935F936F937F9382
:102080008F939F93AF93BF93EF93FF9385E593E077
:102090000E94B405FF91EF91BF91AF919F918F91F5
:1020A0007F916F915F914F913F912F910F900BBE58
:1020B0000F900FBE0F901F9018951F920F920FB6A2
:1020C0000F9211240BB60F922F933F934F935F9370
:1020D0006F937F938F939F93AF93BF93EF93FF93F0
:1020E00085E593E00E944005FF91EF91BF91AF918C
:1020F0009F918F917F916F915F914F913F912F9120
:102100000F900BBE0F900FBE0F901F9018951F924F
:102110000F920FB60F9211240BB60F922F933F938D
:102120004F935F936F937F938F939F93AF93BF93DF
:10213000EF93FF9382EF93E00E94B405FF91EF913C
:10214000BF91AF919F918F917F916F915F914F91CF
:102150003F912F910F900BBE0F900FBE0F901F90CD
:1021600018951F920F920FB60F9211240BB60F9273
:102170002F933F934F935F936F937F938F939F938F
:10218000AF93BF93EF93FF9382EF93E00E944005DC
:10219000FF91EF91BF91AF919F918F917F916F913F
:1021A0005F914F913F912F910F900BBE0F900FBEFB
:1021B0000F901F9018951F920F920FB60F92112437
:1021C0000BB60F922F933F934F935F936F937F9331
:1021D0008F939F93AF93BF93EF93FF938FE894E018
:1021E0000E94B405FF91EF91BF91AF919F918F91A4
:1021F0007F916F915F914F913F912F910F900BBE07
:102200000F900FBE0F901F9018951F920F920FB650
:102210000F9211240BB60F922F933F934F935F931E
:102220006F937F938F939F93AF93BF93EF93FF939E
:102230008FE894E00E944005FF91EF91BF91AF912C
:102240009F918F917F916F915F914F913F912F91CE
:102250000F900BBE0F900FBE0F901F9018951F92FE
:102260000F920FB60F9211240BB60F922F933F933C
:102270004F935F936F937F938F939F93AF93BF938E
:10228000EF93FF9380912D050E94BA0220913105B2
:10229000309132052F5F3F4F309332052093310547
:1022A00090913005953618F096E090932C0590911A
:1022B0002C05943009F466C0B8F49230F1F09330F4
:1022C00009F444C090912F05992309F46BC0811142
:1022D0007CC080912E05882309F463C080912E056F
:1022E00061E00E94E3025EC0953009F457C0963069
:1022F00049F791E09093FD054FC08111E3CF209104
:102300003105309132052436310528F4109232051A
:1023100010923105D7CF1092FD0510923005E09153
:10232000300591E09E0F90933005F0E0209131054B
:1023300030913205EE0FFF1FE45DFA4F308727839F
:10234000109232051092310593E019C0813009F0E6
:10235000B9CFE091300591E09E0F90933005F0E009
:102360002091310530913205EE0FFF1FE45DFA4FE9
:1023700030872783109232051092310594E09093B4
:102380002C05A0CF882359F22091310530913205D8
:102390002536310508F496CF95E0F1CF811192CF23
:1023A000B5CF2F9AFF91EF91BF91AF919F918F91F0
:1023B0007F916F915F914F913F912F910F900BBE45
:1023C0000F900FBE0F901F90189580912E058823B7
:1023D00021F080912E0560E084CF2F98E3CF1F92EB
:1023E0000F920FB60F9211240BB60F922F933F93BB
:1023F0004F935F936F937F938F939F93AF93BF930D
:10240000CF93DF93EF93FF9380917B02C0913A06C5
:10241000D0E087FF23C01092850010928400809145
:102420007B028F5F80937B0280917B02082E000CE1
:10243000990B8C179D0724F480917B028C3074F1EA
:10244000809184009091850084349C4908F465C093
:102450008091840090918500049661C080917B02F8
:10246000082E000C990B8C179D07CCF630917B023F
:1024700025E03203F0011124E250FA4F808186FFFB
:10248000CECF30917B023203F0011124E250FA4F9B
:10249000808160E08F730E94E302C1CF809184004D
:1024A0009091850030917B0225E03203F0011124E8
:1024B000E250FA4F41815281840F951F9093890019
:1024C0008093880030917B023203F0011124E250A6
:1024D000FA4F808186FF0CC030917B023203F001FD
:1024E0001124E250FA4F808161E08F730E94E30271
:1024F000FF91EF91DF91CF91BF91AF919F918F911C
:102500007F916F915F914F913F912F910F900BBEF3
:102510000F900FBE0F901F90189580E49CE9909348
:102520008900809388008FEF80937B02E1CF109227
:102530004C0310924B0388EE93E0A0E0B0E0809350
:102540004D0390934E03A0934F03B093500327E1A4
:1025500032E030934A0320934903109258031092BB
:1025600057038093590390935A03A0935B03B0934E
:102570005C0329E232E0309356032093550345E390
:1025800051E0509362034093610344E351E0509360
:1025900064034093630340E351E050936603409328
:1025A000650341E351E0509368034093670342E3BE
:1025B00051E050936A034093690346E351E050931E
:1025C0006C0340936B0310926E0310926F03109292
:1025D0007003109271031092F5031092F40380932C
:1025E000F6039093F703A093F803B093F9033093A5
:1025F000F3032093F20345ED50E05093FF03409323
:10260000FE0344ED50E0509301044093000440ED7C
:1026100050E0509303044093020441ED50E0509386
:1026200005044093040442ED50E0509307044093A6
:10263000060446ED50E050930904409308041092BC
:102640000B0410920C0410920D0410920E041092C0
:102650009204109291048093930490939404A09315
:102660009504B09396043093900420938F0485ECE6
:1026700090E090939C0480939B0484EC90E0909372
:102680009E0480939D0480EC90E09093A00480933E
:102690009F0481EC90E09093A2048093A10482ECCB
:1026A00090E09093A4048093A30486EC90E0909330
:1026B000A6048093A5041092A8041092A904109275
:1026C000AA041092AB0480910B0290910C02A0918D
:1026D0000D02B0910E028093240790932507A093DA
:1026E0002607B093270780910F0290911002A091C6
:1026F0001102B09112028093280790932907A093AA
:102700002A07B0932B0784E080932C0787E08093FF
:102710002D0710922E0784EB80932F0786E180937C
:10272000300788E18093310787E18093320789E1A0
:1027300080933307E0913A06EC3008F4A9C08FEF9C
:1027400080933407E0913A06EC3008F4B2C08FEF82
:10275000809335078CE08093030784E2809304071D
:1027600086E08093050785E0809306078FE18093DC
:1027700007078EE18093080783E28093090782E2CE
:1027800080930A0785E480930B0784E480930C0709
:1027900080E480930F07109214071092150710928F
:1027A0001607109217071092180710921907109227
:1027B0001A0710921B07E5E4F6E08FEF9FEFDC01AC
:1027C0001282138214821582168217821086118655
:1027D00083879487A587B6878787908BA18BB28BD9
:1027E000128611821082739627E0E330F20741F7D8
:1027F0008DE090E00E94151AFC01138212828BE397
:1028000092E091838083118687E2848384E18287CA
:1028100084E083871486F0934206E0934106109289
:1028200043061092440685E280932D0510922F05F1
:1028300010923C0610923B0610923E0610923D0606
:102840001092400610923F0661E070E090E080E058
:102850000E943A1B0097F1F190933C0680933B064F
:1028600010923E0610923D0620913F0630914006A0
:10287000232B11F4FC0110821092400610923F06A7
:1028800065E472E080913B0690913C060C94241C18
:1028900081E08E0F80933A06E093340725E0E29FB3
:1028A000F0011124E250FA4F88EB9BE09283818380
:1028B00049CF81E08E0F80933A06E093350785E09B
:1028C000E89FF0011124E250FA4F88EB9BE09283DD
:1028D000818340CF80913B0690913C06009711F098
:1028E0000E94B11A10923C0610923B0610924006CC
:1028F00010923F0610923E0610923D06089578947D
:1029000084B5826084BD84B5816084BD85B58260F4
:1029100085BD85B5816085BD80916E0081608093A5
:102920006E0010928100809181008260809381000E
:10293000809181008160809381008091800081601E
:10294000809380008091B10084608093B100809179
:10295000B00081608093B00080919100826080938C
:10296000910080919100816080939100809190000E
:102970008160809390008091A10082608093A1008B
:102980008091A10081608093A1008091A00081606E
:102990008093A00080912101826080932101809129
:1029A00021018160809321018091200181608093C9
:1029B000200180917A00846080937A0080917A006F
:1029C000826080937A0080917A00816080937A009F
:1029D00080917A00806880937A001092C100E09123
:1029E0009F04F091A00482E08083E0919B04F09129
:1029F0009C041082E0919D04F0919E048FEC8083F2
:102A00001092A704E091A304F091A40486E08083CF
:102A1000E091A104F091A204808180618083E09123
:102A2000A104F091A204808188608083E091A104D8
:102A3000F091A204808180688083E091A104F091EC
:102A4000A20480818F7D808361E0809104070E94D1
:102A5000500360E0809104070E94E30260E08091EF
:102A600003070E94500389E493E090930E0780933C
:102A70000D071092AE021092AD0210922603109232
:102A800048030E9411038BEC91E09093D102809354
:102A9000D0028CEC91E09093D5028093D40280E038
:102AA00090E1A0E0B0E08093100790931107A0930D
:102AB0001207B09313078AE090E0A0E0B0E08093A3
:102AC000140790931507A0931607B093170780E09B
:102AD00090E0A0E0B0E48093180790931907A093CA
:102AE0001A07B0931B0760E070E185E00E94AA041A
:102AF0006FE979E380E00E94AA0405E017E0C3E0F3
:102B0000D7E067E0C62E67E0D62E70E4672E72E04D
:102B1000772EE6E88E2EE2E09E2EFBECEF2EF7E01D
:102B2000FF2EF801928181918F01898F9A8F61E048
:102B30000E94500361E08A8D0E9450035E01FDE116
:102B4000AF0EB11CF801958183818D8F9E8F61E05E
:102B50000E94500360E08E8D0E94500361E08D8DD5
:102B60000E94E3025FB6F89480918102811125C032
:102B7000F3018491F4019491E82FF0E0EE0FFF1F30
:102B8000E354FE4FA591B4918C91982321F461E018
:102B900085E30E94E30261E085E30E9450038CB567
:102BA00080618CBD8CB580648CBD61E084E30E9443
:102BB000500361E083E30E945003809181028F5FA4
:102BC000809381025FBEC7010197F1F760E08D8DB0
:102BD0000E94E30288E80E94920783E00E94920725
:102BE00061E08D8D0E94E302C7010197F1F7C501F5
:102BF0000E9499072296CC16DD0609F092CF08E2D2
:102C000017E0C4E2D7E04CE2E42E47E0F42E60E0A7
:102C1000F80181918F010E945003E016F106B9F787
:102C200088E2E82E87E0F82E04E217E095E0D92E3E
:102C30002CE0B22E32E0C32E88898C3008F043C0DD
:102C4000A88461E08A2D0E9450038889D89EF001F3
:102C50001124E250FA4F2A2D2F739081907C922BF1
:102C60009083138214826B2D0E94E2188B9DA00129
:102C7000112430E020E0BA01620F731FD69EF001EC
:102C8000D79EF00D1124E250FA4F908196FD12C0AC
:102C90002F5F3F4F2C30310571F781110BC010921F
:102CA0008000C09281001092850010928400C6BA04
:102CB000C0926F00E889DE9EF0011124E250FA4FC5
:102CC0008081806480839E858C85F801828B938BC4
:102CD00060E00E94500361E0F80183890E94500384
:102CE00060E0F80183890E94E30221960E5F1F4F86
:102CF000E016F10609F0A0CFF8941092200189E0C7
:102D00008093210180E293E0909329018093280130
:102D10001092250110922401C2E0C09373007894B0
:102D2000C0932C051092300580912D0560E00E9423
:102D3000500360E084E00E94500360E085E00E9460
:102D4000500360E080E30E94500360E081E30E9452
:102D50005003E0919F04F091A004C083E0919B0494
:102D6000F0919C041082E0919D04F0919E0480E11A
:102D700080831092A704E091A304F091A40486E05C
:102D80008083E091A104F091A2048081806180831E
:102D9000E091A104F091A204808188608083E09199
:102DA000A104F091A204808180688083E091A10455
:102DB000F091A20480818F7D808364E670E080E0E2
:102DC00090E00E94E104C4EFD1E0812C912C5401E9
:102DD00075016401A7019601C501B4010E94F618AE
:102DE0002B013C0120E030E04CE553E40E947D17CC
:102DF00087FF23C042E050E0C301B2010E943209C4
:102E000084E00E948103BC01990F880B990B0E94FA
:102E100084176B017C0185E00E948103BC01990F3E
:102E2000880B990B0E9484174B015C0161E070E0F4
:102E300080E090E00E94E104CDCF219759F66CED3F
:102E400075E080E090E00E94E10482E297E00E9459
:102E5000990780E297E00E94990780910302909180
:102E600004020A97A9F08091010290910202823037
:102E70009105D1F08330910531F1019749F4C0916A
:102E80008202D0918302CF3FDC0729F40E94130C09
:102E90000E944606E2CF0E944108882311F0CD2B04
:102EA000A9F30E94F20CF4CF0E9441088823C9F3D1
:102EB0000E94130C0E944108882399F30E94320B50
:102EC0000E94320BEECFC0918202D0918302C130BA
:102ED000D10519F40E94320BDBCF0E9441088823F0
:102EE00001F3CD2BF1F6F6CF80913B0690913C0695
:102EF000009711F00C94B11A08950E94BF1708F4BE
:102F000081E00895E89409C097FB3EF49095809580
:102F1000709561957F4F8F4F9F4F9923A9F0F92F9F
:102F200096E9BB279395F695879577956795B7951D
:102F3000F111F8CFFAF4BB0F11F460FF1BC06F5F03
:102F40007F4F8F4F9F4F16C0882311F096E911C015
:102F5000772321F09EE8872F762F05C0662371F036
:102F600096E8862F70E060E02AF09A95660F771F4A
:102F7000881FDAF7880F9695879597F90895990F26
:102F80000008550FAA0BE0E8FEEF16161706E80733
:102F9000F907C0F012161306E407F50798F0621B54
:102FA000730B840B950B39F40A2661F0232B242B29
:102FB000252B21F408950A2609F4A140A6958FEF48
:102FC000811D811D08950E94F6170C9467180E94B8
:102FD000591838F00E94601820F0952311F00C94D5
:102FE00050180C94561811240C949B180E947818B1
:102FF00070F3959FC1F3950F50E0551F629FF0014C
:10300000729FBB27F00DB11D639FAA27F00DB11D64
:10301000AA1F649F6627B00DA11D661F829F2227ED
:10302000B00DA11D621F739FB00DA11D621F839F74
:10303000A00D611D221F749F3327A00D611D231F4A
:10304000849F600D211D822F762F6A2F11249F5798
:1030500050409AF0F1F088234AF0EE0FFF1FBB1F9B
:10306000661F771F881F91505040A9F79E3F51055A
:1030700080F00C9450180C949B185F3FE4F3983E3A
:10308000D4F3869577956795B795F795E7959F5F04
:10309000C1F7FE2B880F911D9695879597F9089596
:1030A00097F99F6780E870E060E008959FEF80ECFB
:1030B000089500240A94161617061806090608959E
:1030C00000240A9412161306140605060895092E04
:1030D0000394000C11F4882352F0BB0F40F4BF2B73
:1030E00011F460FF04C06F5F7F4F8F4F9F4F0895B3
:1030F00057FD9058440F551F59F05F3F71F04795A9
:10310000880F97FB991F61F09F3F79F0879508958D
:10311000121613061406551FF2CF4695F1DF08C0AC
:10312000161617061806991FF1CF869571056105C9
:1031300008940895E894BB2766277727CB0197F971
:103140000895052E97FB1EF400940E94B81857FDB1
:1031500007D00E94C01807FC03D04EF40C94B81896
:1031600050954095309521953F4F4F4F5F4F0895B3
:1031700090958095709561957F4F8F4F9F4F0895E3
:10318000A1E21A2EAA1BBB1BFD010DC0AA1FBB1F6B
:10319000EE1FFF1FA217B307E407F50720F0A21BDD
:1031A000B30BE40BF50B661F771F881F991F1A944A
:1031B00069F760957095809590959B01AC01BD0174
:1031C000CF010895991B79E004C0991F961708F064
:1031D000961B881F7A95C9F780950895EE0FFF1FFB
:1031E000881F8BBF0790F691E02D19945058BB278C
:1031F000AA270E940E190C9467180E94591838F0DB
:103200000E94601820F039F49F3F19F426F40C94C2
:1032100056180EF4E095E7FB0C945018E92F0E9425
:10322000781858F3BA17620773078407950720F0D8
:1032300079F4A6F50C949A180EF4E0950B2EBA2F9B
:10324000A02D0B01B90190010C01CA01A0011124AC
:10325000FF27591B99F0593F50F4503E68F11A1658
:10326000F040A22F232F342F4427585FF3CF4695E9
:1032700037952795A795F0405395C9F77EF41F160B
:10328000BA0B620B730B840BBAF09150A1F0FF0FD5
:10329000BB1F661F771F881FC2F70EC0BA0F621FC1
:1032A000731F841F48F4879577956795B795F795B1
:1032B0009E3F08F0B0CF9395880F08F09927EE0F46
:1032C0009795879508950E9477190C9467180E9426
:1032D000601858F00E94591840F029F45F3F29F017
:1032E0000C94501851110C949B180C9456180E9471
:1032F000781868F39923B1F3552391F3951B550B77
:10330000BB27AA2762177307840738F09F5F5F4FB8
:10331000220F331F441FAA1FA9F335D00E2E3AF0F7
:10332000E0E832D091505040E695001CCAF72BD00F
:10333000FE2F29D0660F771F881FBB1F2617370760
:103340004807AB07B0E809F0BB0B802DBF01FF2792
:1033500093585F4F3AF09E3F510578F00C94501807
:103360000C949B185F3FE4F3983ED4F386957795D1
:103370006795B795F7959F5FC9F7880F911D96954B
:10338000879597F90895E1E0660F771F881FBB1FA7
:10339000621773078407BA0720F0621B730B840B54
:1033A000BA0BEE1F88F7E09508950E94DC19689427
:1033B000B1110C949B1808950E94801888F09F57B3
:1033C00098F0B92F9927B751B0F0E1F0660F771F49
:1033D000881F991F1AF0BA95C9F714C0B13091F03F
:1033E0000E949A18B1E008950C949A18672F782FCC
:1033F0008827B85F39F0B93FCCF386957795679504
:10340000B395D9F73EF490958095709561957F4F6F
:103410008F4F9F4F08950E94BF1708F48FEF0895B4
:103420000E94BF17880B990B08950F931F93CF939A
:10343000DF938230910510F482E090E0E0913C0748
:10344000F0913D0730E020E0B0E0A0E0309799F443
:103450002115310509F44AC0281B390B24303105E8
:10346000D8F58A819B816115710589F1FB019383F0
:103470008283FE0111C0408151810281138148176E
:103480005907E0F04817590799F4109761F0129620
:103490000C93129713961C933296CF01DF91CF9124
:1034A0001F910F91089500933C0710933D07F4CFAF
:1034B0002115310551F04217530738F0A901DB01FE
:1034C0009A01BD01DF01F801C1CFEF01F9CF90935F
:1034D0003D0780933C07CDCFFE01E20FF31F8193A0
:1034E00091932250310939832883D7CF20913A070D
:1034F00030913B07232B41F42091070230910802C1
:1035000030933B0720933A07209105023091060241
:103510002115310541F42DB73EB740910902509174
:103520000A02241B350BE0913A07F0913B07E217A2
:10353000F307A0F42E1B3F0B2817390778F0AC01D6
:103540004E5F5F4F2417350748F04E0F5F1F5093B3
:103550003B0740933A07819391939FCFF0E0E0E0DF
:103560009CCFCF93DF930097E9F0FC013297138251
:103570001282A0913C07B0913D07ED0130E020E0C0
:103580001097A1F420813181820F931F20913A0777
:1035900030913B072817390709F061C0F0933B07CA
:1035A000E0933A07DF91CF910895EA01CE17DF0744
:1035B000E8F54A815B819E0141155105B1F7E901AA
:1035C000FB83EA8349915991C40FD51FEC17FD077E
:1035D00061F4808191810296840F951FE90199839E
:1035E0008883828193819B838A83F0E0E0E0129656
:1035F0008D919C9113970097B9F52D913C9111975E
:10360000CD010296820F931F20913A0730913B071C
:103610002817390739F6309751F510923D07109267
:103620003C07B0933B07A0933A07BCCFD383C28338
:1036300040815181840F951FC817D90761F44E5FEF
:103640005F4F88819981480F591F518340838A8138
:103650009B81938382832115310509F0B0CFF093CC
:103660003D07E0933C079ECFFD01DC01C0CF1382F4
:103670001282D7CF4F925F926F927F928F929F92DA
:10368000AF92BF92CF92DF92EF92FF920F931F9370
:10369000CF93DF938C01009799F4CB01DF91CF9109
:1036A0001F910F91FF90EF90DF90CF90BF90AF9060
:1036B0009F908F907F906F905F904F900C94151A11
:1036C000FC01E60FF71F9C0122503109E217F307B6
:1036D00008F4AEC0D901CD91DC911197C617D70778
:1036E00020F1C530D10578F0CE01049786179707F1
:1036F00050F0C61BD70B2297C193D1936D937C9347
:10370000CF010E94B11AC801DF91CF911F910F9193
:10371000FF90EF90DF90CF90BF90AF909F908F90F1
:103720007F906F905F904F9008955B01AC1ABD0A37
:103730004C018C0E9D1EA0913C07B0913D07512C71
:10374000412CF12CE12C109731F580913A079091A2
:103750003B078815990509F05CC04616570608F026
:1037600058C08091050290910602009741F48DB7F0
:103770009EB74091090250910A02841B950BE817ED
:10378000F90708F055C0F0933B07E0933A07F901B9
:1037900071836083B8CF8D919C91119712966C9034
:1037A000129713967C901397A815B90559F56C01DB
:1037B00042E0C40ED11CCA14DB0420F1AC014A194A
:1037C0005B09DA011296159780F062827382518349
:1037D0004083D9016D937C93E114F10471F0D7011A
:1037E0001396FC93EE9312978ECF22968C0F9D1F0B
:1037F000F90191838083F301EFCFF0933D07E093CC
:103800003C0781CF4816590608F42C017D01D301ED
:103810009ACFCB010E94151A7C01009749F0AE01A6
:10382000B8010E941B1CC8010E94B11A87016BCF0E
:1038300010E000E068CFFB01DC0102C001900D92B6
:1038400041505040D8F70895FB01DC0101900D92E2
:103850000020E1F7089511E0C0E7D1E000E006C0E4
:10386000802FFE010E94EE182196011DC137D1075D
:0A38700080E00807A9F7F894FFCFE5
:10387A00FF0200010000003E078000363738391B7E
:10388A001D1A1C000000002402F7013E08CD01F0B9
:10389A0001DD01CE0100000000D6051305590523FC
:1038AA00068A0568057C0500000000640813053EC9
:1038BA00083D080D0A006E616E00696E66006F763B
:0238CA00660096
:00000001FF
