:100000000C9471010C94A2010C94A2010C94A20115
:100010000C94A2010C94A2010C94A2010C94A201D4
:100020000C94A2010C94F60D0C94F60D0C94F60DA4
:100030000C94A2010C946E0F0C94A2010C94A201DA
:100040000C94A2010C94C7110C94A2010C94A2016F
:100050000C94A2010C94A2010C94A2010C94240F04
:100060000C94A2010C94DD100C94B3100C94A2011A
:100070000C94A2010C94A2010C94A2010C94A20174
:100080000C94A2010C94A2010C94A2010C94A20164
:100090000C94A2010C94A2010C94A2010C94000EE9
:1000A0000C94A2010C94A2010C94A2010C94A20144
:1000B0000C94A2010C94A2010C94A2010C940711BF
:1000C0000C94A2010C94A2010C94A2010C9489102E
:1000D0000C945F100C94A2010C9435100C940B102E
:1000E0000C94A2010C94B5070C9432070C94A30253
:1000F0000C94DA020C9497070C94F4010C9481058B
:100100000C94B8020C943B050C9446070C944E07D3
:100110000C941F020C944C020C9405020C9456078C
:100120000C94E4160C94B2050C94AB070C944B069B
:100130000C94A4050C9428070C94DE020C94D402B1
:100140000C949F020C9465080C9499020C94BE02C6
:100150000C9418020C946F120C94AE020C942307AA
:100160000C94F5010C9466080C946A070C949005A5
:100170000C94D9020C94C6020C94A1070C94D002E2
:100180000C9412070C94FE050C943C070C948D07FC
:100190000C94AB020C9460070C948C080C94C20273
:1001A0000C94F3010C94F6010C94B4020C948307A4
:1001B0000C9474070C94CC020C94A702020000214A
:1001C00000240027002A002D003000330001010028
:1001D00000040107010A0100002200250028002B6D
:1001E000002E003100340002010000050108010B5F
:1001F00001000020002300260029002C002F0032DF
:1002000000000100000301060109010505050507BD
:100210000508080808020202020A0A080804040481
:1002200004010101010101010103030303030303AD
:1002300003040707070C0C0C0C0C0C0C0C0202023C
:100240000206060606060606060B0B0B0B0B0B0B2F
:100250000B010210202008081020401020408002CE
:1002600001020108040201010204081020408080FC
:100270004020100804020180040201804020100880
:100280000402010804020101020408102040800158
:100290000204081020408000000A0B02090C0D0E19
:1002A0000807030401000000000000000000000037
:1002B000000000000000000000000000000000003E
:1002C00000000012111000000000000000000000FB
:1002D00000000000000000000000000000006F129D
:1002E000E41611241FBECFEFD1E2DEBFCDBF00E088
:1002F0000CBF12E0A0E0B2E0EAE5F7E300E00BBFDC
:1003000002C007900D92A835B107D9F727E0A8E5FC
:10031000B2E001C01D92A434B207E1F711E0C0E7DA
:10032000D1E000E006C021970109802FFE010E9464
:100330005E18CF36D10780E00807A9F70E9457144E
:100340000C949B1B0C940000E5E9F4E0A089B189B2
:1003500082E08C93A485B5851C92A685B7858FEC29
:100360008C93108EA489B58986E08C93A289B38979
:100370008C9180618C93A289B3898C9188608C93D5
:10038000A289B3898C9180688C930288F389E02DCF
:1003900080818F7D808308952091D802260F332796
:1003A000331F21323105ECF420912503FC0190E04C
:1003B00080E0243069F082E00895A091D802219174
:1003C000AC014A545D4FA40FB52FB11D2C9301967B
:1003D000861798F38091D802680F6093D80280E066
:1003E000089581E00895089508950895E091B40274
:1003F0008091B302E81730F4F0E0ED56FD4F8081B4
:1004000090E008958FEF9FEF08959091B40280914E
:10041000B3022FEF3FEF981748F4E92FF0E0ED56C5
:10042000FD4F208130E09F5F9093B402C901089591
:100430008091B3029091B402891B990B0895CF92D9
:10044000DF92EF92FF920F931F93CF93DF937C0184
:10045000CB018A0120912B03222389F0EB016B0150
:10046000C40ED51ECC15DD0569F06991D701ED915B
:10047000FC910190F081E02DC7011995F3CF642F15
:100480000E94CC01C801DF91CF911F910F91FF9085
:10049000EF90DF90CF900895CF93DF931F92CDB769
:1004A000DEB7698320912B032223F9F020914E03BC
:1004B000203258F021E030E0FC013383228390E0C9
:1004C00080E00F90DF91CF91089580912C03E82F69
:1004D000F0E0E35DFC4F998190838F5F80932C0364
:1004E00080934E0381E090E0ECCF61E0CE01019675
:1004F0000E94CC01F7CF8150823108F05AC0E82F1A
:10050000F0E08827E957FD4F8F4F0C945E18A70243
:10051000AB0299029F02A302D902AE02B402B80252
:10052000BE02C202C602CC02D002D902D402DA0252
:10053000DE02809180008F77809380000895809103
:1005400080008F7DF9CF80918000877FF5CF84B5C3
:100550008F7784BD089584B58F7DFBCF8091B000E7
:100560008F778093B00008958091B0008F7DF9CF90
:10057000809190008F7780939000089580919000F3
:100580008F7DF9CF80919000877FF5CF8091A0007B
:100590008F778093A00008958091A0008F7DF9CF80
:1005A0008091A000877FF5CF809120018F77809385
:1005B00020010895809120018F7DF9CF8091200145
:1005C000877FF5CFCF93DF93282F30E0F901E956ED
:1005D000FD4F8491F901EF5AFD4FD491F901E55F88
:1005E000FD4FC491CC23A1F081110E947B02EC2F1E
:1005F000F0E0EE0FFF1FEF50FE4FA591B491EC918C
:10060000ED2381E090E009F480E0DF91CF9108953F
:1006100080E090E0FACF1F93CF93DF93282F30E054
:10062000F901E956FD4F8491F901EF5AFD4FD4913C
:10063000F901E55FFD4FC491CC23A9F0162F81117C
:100640000E947B02EC2FF0E0EE0FFF1FE952FE4FFD
:10065000A591B4918FB7F894EC91111108C0D09581
:10066000DE23DC938FBFDF91CF911F910895DE2BA6
:10067000F8CF1092250381E0809324031092FF02AB
:1006800061E084E10E940B0361E085E10E940B03BD
:10069000E9EBF0E080818E7F808380818D7F808395
:1006A00088E48093B80085E48093BC000895CF93DC
:1006B000DF9391E09093B5028823B9F0C091B80020
:1006C000D091BA008091BC008A7B8093BC0060E02E
:1006D00084E10E940B0360E085E10E940B030E940D
:1006E0003903D093BA00C093B800DF91CF91089539
:1006F000CF93DF9390E0FC01EF5AFD4F2491855F8B
:100700009D4FFC0184918823D1F090E0880F991FC0
:10071000FC01E354FE4FA591B491FC01E952FE4F58
:10072000C591D49161110EC09FB7F8948C91E22FBE
:10073000E0958E238C932881E223E8839FBFDF918D
:10074000CF9108958FB7F894EC91E22BEC938FBF83
:10075000F6CF863308F0865320917B00982F98704F
:10076000277F922B90937B008770806480937C001E
:1007700080917A00806480937A0080917A0086FD6F
:10078000FCCF809178009091790008953FB7F8945C
:1007900080918F0290919002A0919102B09192026B
:1007A00026B5A89B05C02F3F19F00196A11DB11DCC
:1007B0003FBFBA2FA92F982F8827BC01CD01620F08
:1007C000711D811D911D42E0660F771F881F991FC3
:1007D0004A95D1F70895CF92DF92EF92FF920F934F
:1007E0001F93CF93DF93D0914E0381E0D13208F075
:1007F0009CC0C0914D030E94C6036B017C01809197
:10080000250381116CC082E08093250381E08093F1
:1008100024038FEF8093230310922203D0932103AC
:10082000ADE2B3E0E1E0F3E080E0D8138DC01092D8
:10083000000380910003CC0FC82BC093000380916C
:10084000FF02813009F084C01092FF020E94C603AB
:100850006B017C01809100038093BB008091270392
:1008600090912803A0912903B0912A03892B8A2B08
:100870008B2BA1F00E94C60300912703109128033F
:100880002091290330912A036C197D098E099F0953
:10089000061717072807390708F442C08091BC00E3
:1008A00083FDD8CF85EC8093BC000E94C6036B010A
:1008B0007C0180912503823009F44CC08091230390
:1008C0008F3F09F469C080912303803209F466C028
:1008D00080912303803309F463C084E026C08091B3
:1008E000270390912803A0912903B0912A03892B13
:1008F0008A2B8B2B09F483CF0E94C6030091270318
:10090000109128032091290330912A036C197D0945
:100910008E099F09061717072807390708F06FCFB8
:10092000809126030E94570385E010922C031092B9
:100930004E0310922B03DF91CF911F910F91FF90E7
:10094000EF90DF90CF9008959D9191938F5F6DCF41
:1009500085EEA9CF8091270390912803A0912903C8
:10096000B0912A03892B8A2B8B2B09F4A2CF0E94EA
:10097000C603009127031091280320912903309189
:100980002A036C197D098E099F0906171707280786
:10099000390708F08ECFC4CF80E0C7CF82E0C5CF43
:1009A00083E0C3CF0F931F93CF93DF93162F072FAF
:1009B000C9E0D7E0AA85BB859C8521E020932B0365
:1009C00090934D0310922C0310924E03ED91FC91E5
:1009D00011970190F081E02D682FCD0119958A853E
:1009E0009B85DC01ED91FC910190F081E02D602F61
:1009F00019958A859B85DC01ED91FC910190F08130
:100A0000E02D612F1995DF91CF911F910F910C94DB
:100A1000EB038F929F92AF92BF92CF92DF92EF92B1
:100A2000FF924B015C010E94C6036B017C010E9496
:100A3000C6036C197D098E099F09683E73408105C4
:100A40009105A8F321E0821A9108A108B10888EE67
:100A5000C80E83E0D81EE11CF11C81149104A1048E
:100A6000B10429F7FF90EF90DF90CF90BF90AF9047
:100A70009F908F900895AF92BF92CF92DF92EF92A6
:100A8000FF920F931F93CF93DF936C017B018B0138
:100A9000040F151FEB015E01AE18BF08C017D10788
:100AA00059F06991D601ED91FC910190F081E02D12
:100AB000C6011995892B79F7C501DF91CF911F9157
:100AC0000F91FF90EF90DF90CF90BF90AF9008957F
:100AD000FC01A089B1898C91A689B78982FD0FC0DC
:100AE0009C91818D8F5F8F73228D821749F0A18D2C
:100AF000AE0FBF2FB11D5D969C93818F08958C9191
:100B00000895FC01538D448D252F30E0842F90E013
:100B1000821B930B541710F0CF96089501970895F8
:100B2000FC01918D828D981761F0A28DAE0FBF2FC1
:100B3000B11D5D968C91928D9F5F9F73928F90E017
:100B400008958FEF9FEF0895FC01918D828D981786
:100B500031F0828DE80FF11D858D90E008958FEFC3
:100B60009FEF0895FC01918D228D892F90E0805C8C
:100B70009F4F821B91098F73992708958BE593E00E
:100B80000E94B20521E0892B09F420E0822F08950C
:100B900088EF93E00E94B20521E0892B09F420E060
:100BA000822F089585E994E00E94B20521E0892B07
:100BB00009F420E0822F0895FC01A48DA80FB92F1D
:100BC000B11DA35ABF4F2C91848D90E001968F7375
:100BD0009927848FA689B7892C93A089B1898C9194
:100BE000837080648C93938D848D981306C00288E3
:100BF000F389E02D80818F7D80830895EF92FF92AD
:100C00000F931F93CF93DF93EC0181E0888F9B8D2F
:100C10008C8D98131AC0E889F989808185FF15C0E9
:100C20009FB7F894EE89FF896083E889F98980810C
:100C30008370806480839FBF81E090E0DF91CF91DB
:100C40001F910F91FF90EF900895F62E0B8D10E0FD
:100C50000F5F1F4F0F731127E02E8C8D8E110CC06C
:100C60000FB607FCFACFE889F989808185FFF5CFB7
:100C7000CE010E94DC05F1CFEB8DEC0FFD2FF11DB5
:100C8000E35AFF4FF0829FB7F8940B8FEA89FB89F4
:100C900080818062CFCFCF93DF93EC01888D882352
:100CA000B9F0AA89BB89E889F9898C9185FD03C0CF
:100CB000808186FD0DC00FB607FCF7CF8C9185FFB4
:100CC000F2CF808185FFEDCFCE010E94DC05E9CF18
:100CD000DF91CF910895F0E0E0E0199480E090E09A
:100CE000892B29F00E94D20581110E94000080E02A
:100CF00090E0892B49F080E090E0892B29F00E9458
:100D0000000081110E9400000E94C80581110E940C
:100D10006B0680E090E0892B29F00E94BE058111CE
:100D20000C94000008958F929F92AF92BF92CF9241
:100D3000DF92EF92FF920F931F93CF93DF93EC011B
:100D40006A017B0120E030E04FE753E4CB01B601BC
:100D50000E9453174B015C0120E030E0A9010E9482
:100D60007B1918168CF5C501B4010E9445198B0139
:100D7000B98020E030E0A901C701B6010E947B19CB
:100D800060E018160CF061E08B2D0E940B030F3F02
:100D9000110509F0ECF41127C88161E08C2F0E9445
:100DA000780301151105B9F460E08C2FDF91CF9124
:100DB0001F910F91FF90EF90DF90CF90BF90AF9079
:100DC0009F908F900C940B03C501B4019058CDCF28
:100DD0000FEF10E0E1CF0F3F110511F461E0E5CF17
:100DE000EC2FF0E0E956FD4FE491E150E23108F0DC
:100DF000BCC0F0E08827E050F94F8F4F0C945E188C
:100E000012072307280732073C07B50746074E0796
:100E1000560760076A07740783078D07B5079707AA
:100E2000A107AB0784B5806884BD07BDDF91CF9172
:100E30001F910F91FF90EF90DF90CF90BF90AF90F8
:100E40009F908F90089584B5806284BD08BDEECFD9
:100E500080918000806880938000109389000093C7
:100E60008800E4CF8091800080628093800010939E
:100E70008B0000938A00DACF809180008860809395
:100E8000800010938D0000938C00D0CF8091B00033
:100E900080688093B0000093B300C8CF8091B00009
:100EA00080628093B0000093B400C0CF8091900026
:100EB0008068809390001093990000939800B6CFBB
:100EC0008091900080628093900010939B0000932B
:100ED0009A00ACCF8091900088608093900010932E
:100EE0009D0000939C00A2CF8091A0008068809319
:100EF000A0008091A0008F7B8093A0001093A90098
:100F00000093A80093CF8091A00080628093A000FE
:100F10001093AB000093AA0089CF8091A000886055
:100F20008093A0001093AD000093AC007FCF809120
:100F300020018068809320011093290100932801EB
:100F400075CF8091200180628093200110932B0146
:100F500000932A016BCF809120018860809320014B
:100F600010932D0100932C0161CF003811050CF076
:100F700035CF1ACF8EBD00000DB407FEFDCF8EB564
:100F80000895CF93DF93EC0160E088810E940B030A
:100F900088E90E94BA0780E00E94BA0780E00E94B8
:100FA000BA0780E00E94BA0780E00E94BA0761E0B9
:100FB00088810E940B038BE891E00197F1F760E0D4
:100FC00088810E940B0380EE0E94BA0761E088814D
:100FD000DF91CF910C940B03AF92BF92CF92DF922F
:100FE000EF92FF920F931F93CF93DF93CDB7DEB7AE
:100FF00060970FB6F894DEBF0FBECDBF6C0160E006
:10100000FC0180810E940B0380E60E94BA079E01CA
:101010002F5F3F4F79015E0131E1A30EB11C8701C3
:1010200080E00E94BA0790E0B0E0A0E0F801819370
:101030009193A193B1938F01EA15FB0589F761E0C4
:10104000F60180810E940B0380E090E0DC01F70153
:1010500041915191619171917F01BA2FA92F982FE0
:101060008827840F951FA61FB71FE017F10779F790
:101070009C01AD0166277727CB01621B730B840BA4
:10108000950B60960FB6F894DEBF0FBECDBFDF9113
:10109000CF911F910F91FF90EF90DF90CF90BF9075
:1010A000AF900895FC01248131E030932B0320930D
:1010B0004D0310922C0310924E038485682B8FE40D
:1010C00093E00E944C020C94EB03089590E080E0C2
:1010D000089580E30E94E202892B31F481E30E94AB
:1010E000E20221E0892B09F020E0822F08950F937E
:1010F0001F93CF938C01C62F64600E9452086C2FFF
:101100006B7FC8010E94520883EC90E00197F1F7D1
:10111000CF911F910F9108950F931F93CF93DF935A
:101120008C01C62FD62FD07FD1606D2F0E94520820
:101130006D2FC8010E94770880E1C89FE00111244B
:10114000C1606C2FC8010E9452086C2FC8010E9418
:10115000770881E090E0DF91CF911F910F91089582
:1011600040E050E060E070E884E297E00E9493067F
:1011700040E050E0BA0182E297E00E94930666E9FF
:1011800070E080E090E00E94090588E297E00E940C
:10119000C10786E297E00C94C107FC010190002092
:1011A000E9F73197AF01481B590BBC0185E994E081
:1011B0000C943B058F929F92AF92BF920F931F9317
:1011C000CF93DF93CDB7DEB7A1970FB6F894DEBF0C
:1011D0000FBECDBF19A2423008F44AE08E010F5D68
:1011E0001F4F842E912CB12CA12CA50194010E949B
:1011F0003018E62FB901CA01EA30F4F4E05DD801F5
:10120000EE938D01232B242B252B79F790E080E0A2
:10121000109719F0CD010E94CD08A1960FB6F89451
:10122000DEBF0FBECDBFDF91CF911F910F91BF9059
:10123000AF909F908F900895E95CE1CFCF93DF93BB
:101240000E94CD08EC0183E492E00E94CD088C0F4F
:101250009D1FDF91CF910895CF92DF92EF92FF9281
:10126000CF93DF936B017C01F7FE1FC06DE285E930
:1012700094E00E94FE05EC0166277727CB016C19EC
:101280007D098E099F094AE00E94DA08C80FD91F1C
:1012900083E492E00E94CD088C0F9D1FDF91CF91D7
:1012A000FF90EF90DF90CF9008954AE00E94DA0817
:1012B000EC01EECF4F925F926F927F928F929F924E
:1012C000AF92BF92CF92DF92EF92FF921F93CF9394
:1012D000DF936B017C01D42FAC019B010E9480192C
:1012E0008823D9F086E492E00E94CD08EC0183E4E3
:1012F00092E00E94CD088C0F9D1FDF91CF911F912E
:10130000FF90EF90DF90CF90BF90AF909F908F9025
:101310007F906F905F904F90089546015701E89439
:10132000B7F82FEF3FEF4FE75FE7C501B4010E9429
:10133000801981110DC02FEF3FEF4FE75FE7C50127
:10134000B4010E94ED1618161CF48AE492E0CCCF8A
:101350002FEF3FEF4FE75FE4C701B6010E947B1913
:1013600018161CF48EE492E0BFCF2FEF3FEF4FE74B
:101370005FECC701B6010E94ED1687FDF3CF20E0B8
:1013800030E0A901C701B6010E94ED16B12CA12CD5
:1013900087FF0AC06DE285E994E00E94FE055C01CA
:1013A000F7FAF094F7F8F0941D2F60E070E080E019
:1013B0009FE3C0E020E030E040E251E40E94D31817
:1013C000CF5FCD17B8F3A70196010E9467186B0194
:1013D0007C010E944C192B013C010E94F2169B01DA
:1013E000AC01C701B6010E9466186B017C014AE09E
:1013F000C301B2010E94DA08EC016EE285E994E0D3
:101400000E94FE05C80FD91FCA0DDB1D115008F43C
:101410006ECF20E030E040E251E4C701B6010E9407
:1014200053174B015C010E944C196B01F12CE12C0C
:101430004AE0C701B6010E94DA08C80FD91FC701E8
:10144000B6010E94F2169B01AC01C501B4010E94D5
:1014500066186B017C01DACF4F925F926F927F9298
:101460008F929F92AF92BF92CF92DF92EF92FF92B4
:10147000CF93DF932FB7F89460918B0270918C0219
:1014800080918D0290918E022FBFC0907902D090F2
:101490007A02E0907B02F0907C026C197D098E0943
:1014A0009F090E94F41620E030E048E452E40E94D4
:1014B0007B1987FDBAC082E592E00E941E0988E28E
:1014C00097E00E94EC0716161706180619060CF08E
:1014D000C3C088E297E00E94EC07EB0186E297E048
:1014E0000E94EC0797FFC1C086E297E00E94EC07DC
:1014F00090958095709561957F4F8F4F9F4FAE016E
:10150000461B570BBA01072E000C880B990B0E9443
:10151000F4166B017C0120917502309176024091A6
:101520007702509178020E9467184B015C0180920B
:10153000750290927602A0927702B092780227E12B
:1015400037EB41E558E3C701B6010E9453172B0161
:101550003C0127E837E941EF55E3C501B4010E949A
:1015600053179B01AC01C301B2010E94671820E030
:1015700030E040EA51E40E94531760937102709387
:101580007202809373029093740242E050E0C701AC
:10159000B6010E945A0960917102709172028091A5
:1015A0007302909174024AE050E00E945A0985E467
:1015B00092E00E941E0988E297E00E94EC0716164E
:1015C0001706180619060CF062C088E297E00E9420
:1015D000EC070E942C0986E297E00E94EC0797FF37
:1015E00062C086E297E00E94EC0790958095709526
:1015F00061957F4F8F4F9F4F0E942C0985E492E0A9
:101600000E941E092FB7F89480918B0290918C0252
:10161000A0918D02B0918E022FBF8093790290939A
:101620007A02A0937B02B0937C0260917102709168
:1016300072028091730290917402DF91CF91FF90BA
:10164000EF90DF90CF90BF90AF909F908F907F9062
:101650006F905F904F90089588E297E00E94EC07AA
:10166000CC27DD27C61BD70B39CF86E297E00E9437
:10167000EC079B01AC0188279927DC01821B930BA7
:10168000A40BB50B66277727681B790B38CF88E248
:1016900097E00E94EC0790958095709561957F4F3B
:1016A0008F4F9F4F96CF86E297E00E94EC07A4CF22
:1016B0008F929F92AF92BF92CF92DF92EF92FF9262
:1016C0008091880290918902009709F055C08FEFB0
:1016D0009FEF90938902809388028DED882E87E09A
:1016E000982EA12CB12CC12CD12C7601C39488E268
:1016F00097E00E94EC0716161706180619060CF05C
:101700004BC088E297E00E94EC076E3D7740810570
:1017100091050CF0A4C088E297E00E94EC07161631
:101720001706180619060CF043C088E297E00E94DD
:10173000EC070E94F4162AE939EF46E954E40E94C6
:10174000ED1618160CF440C043E353E363EB7EEB55
:1017500084E297E00E9493060E942C0A23E333E37D
:1017600043EB5EE30E946718AB01BC01705882E254
:1017700097E00E949306BBCF8F3F980719F482E051
:1017800090E0A7CF029719F481E090E0A2CF1092E9
:10179000890210928802A1CF88E297E00E94EC07AC
:1017A00090958095709561957F4F8F4F9F4FADCFEE
:1017B00088E297E00E94EC0790958095709561957E
:1017C0007F4F8F4F9F4FB5CF88E297E00E94EC0785
:1017D0001616170618061906B4F588E297E00E9457
:1017E000EC07A50194010E941118C701B601621B04
:1017F000730B840B950B0E94F41620E030E040E25E
:101800005FEB0E9453172AE939E949E35FE30E943D
:10181000671860937D0270937E0280937F0290939D
:101820008002AB01BC01705884E297E00E949306ED
:101830000E942C0A20917D0230917E0240917F020D
:10184000509180028FCF88E297E00E94EC0790953C
:101850008095709561957F4F8F4F9F4FC2CFFF90BE
:10186000EF90DF90CF90BF90AF909F908F900C94AF
:10187000B0088F929F92AF92BF92CF92DF92EF9279
:10188000FF928091880290918902009709F054C0DC
:1018900081E090E090938902809388028DED882EFC
:1018A00087E0982EA12CB12CC12CD12C7601C394A9
:1018B00088E297E00E94EC0716161706180619062C
:1018C0000CF04AC088E297E00E94EC076E3D77403A
:1018D000810591050CF0A2C088E297E00E94EC0718
:1018E00016161706180619060CF042C088E297E093
:1018F0000E94EC070E94F4162AE939EF46E954E405
:101900000E94ED1618160CF43FC043E353E363EB5B
:101910007EE384E297E00E9493060E942C0A23E370
:1019200033E343EB5EE30E946718AB01BC0182E244
:1019300097E00E949306BCCF8F3F980729F410923E
:10194000890210928802AACF029719F48FEF9FEFB5
:10195000A1CF82E090E09ECF88E297E00E94EC0762
:1019600090958095709561957F4F8F4F9F4FAECF2B
:1019700088E297E00E94EC079095809570956195BC
:101980007F4F8F4F9F4FB6CF88E297E00E94EC07C2
:101990001616170618061906ACF588E297E00E949D
:1019A000EC07A50194010E941118C701B601621B42
:1019B000730B840B950B0E94F41620E030E040E29C
:1019C0005FEB0E9453172AE939E949E35FE30E947C
:1019D0006718AB01BC0140937D0250937E02609377
:1019E0007F027093800284E297E00E9493060E9437
:1019F0002C0A20917D0230917E0240917F0250910D
:101A0000800291CF88E297E00E94EC079095809544
:101A1000709561957F4F8F4F9F4FC3CFFF90EF9091
:101A2000DF90CF90BF90AF909F908F900C94B008B4
:101A30000E94B008809188029091890282309105BD
:101A400009F46DC02091010230910202280F391F64
:101A50003093020220930102892B49F48091030202
:101A6000909104020196909304028093030240E057
:101A700050E060E87EEB84E297E00E94930640E04D
:101A800050E060E87EE382E297E00E94930664E61D
:101A900070E080E090E00E94090588E297E00E94F3
:101AA000EC0716161706180619060CF03EC088E259
:101AB00097E00E94EC0765357A41810591050CF0AD
:101AC0005BC088E297E00E94EC071616170618061E
:101AD0001906BCF588E297E00E94EC070E94F41614
:101AE00020E038EF4DE955E40E94ED161816ACF1F0
:101AF00043E353E363EB7EEB84E297E00E949306BB
:101B00000E942C0A2BEE31E548EB5EE30E94671839
:101B1000AB01BC0182E297E00E949306BECF8091A8
:101B200003029091040201979ECF88E297E00E9401
:101B3000EC0790958095709561957F4F8F4F9F4FE3
:101B4000BACF88E297E00E94EC0790958095709557
:101B500061957F4F8F4F9F4FC1CF4DEC5CEC6CE494
:101B60007EEB84E297E00E9493060E942C0A2EE30B
:101B70003AE047E55EE3CACF0C94B00885ED809368
:101B8000BC008091270390912803A0912903B09174
:101B90002A030796A11DB11D23E0B695A795979539
:101BA00087952A95D1F72091BC0024FD03C010929F
:101BB000250308954091270350912803609129033C
:101BC00070912A03452B462B472B69F30097A105FB
:101BD000B10541F025E32A95F1F700000197A1092D
:101BE000B109E1CF809126030C9457031F920F9205
:101BF0000FB60F9211240F900FBE0F901F901895E3
:101C00001F920F920FB60F9211240BB60F922F93C3
:101C10003F934F935F936F937F938F939F93AF9374
:101C2000BF93EF93FF938091B900887F803609F4CA
:101C30004DC008F040C0883209F4A9C028F58031B1
:101C400009F49DC0C8F4882309F4FBC0883009F466
:101C500096C0FF91EF91BF91AF919F918F917F912E
:101C60006F915F914F913F912F910F900BBE0F900D
:101C70000FBE0F901F901895883109F488C08032EC
:101C800041F78093230314C0803409F49DC040F4CD
:101C90008033B9F38833E9F68093230385ECB0C031
:101CA000803509F485C0883509F496C0883489F6F2
:101CB0000E94BE0DCECF883909F48CC038F5883724
:101CC00029F050F4883611F0803719F683E08093BC
:101CD00025031092FC0257C0883809F47BC0803974
:101CE00019F0803809F0B5CF8091FC02803208F0FD
:101CF00071C0E091FC0281E08E0F8093FC02809124
:101D0000BB00F0E0E452FD4F80833DC0803B39F0E2
:101D1000E0F4803A09F479C0883A09F09ACF84E077
:101D2000809325031092D9021092D802E091D60236
:101D3000F091D70219958091D80281110FC081E0EE
:101D40008093D8021092B60209C0803C09F4A6CF55
:101D5000883C09F4A3CF883B09F07BCFE091D902FE
:101D600081E08E0F8093D902F0E0EA54FD4F80812C
:101D70008093BB009091D9028091D80229C08091B4
:101D800000038093BB0085EC8093BC0062CF9091F0
:101D9000220380912103981758F5E091220381E0F6
:101DA0008E0F80932203F0E0EF5FFC4F8081E9CF3C
:101DB000E091220381E08E0F809322038091BB008B
:101DC000F0E0EF5FFC4F808390912203809121032C
:101DD0009817C8F285E8D8CFE091220381E08E0FF2
:101DE000809322038091BB00F0E0EF5FFC4F808383
:101DF0008091240381115CCF81E08093FF0284EA0B
:101E00008093BC001092250324CF85EC8093BC0006
:101E1000109225038091FC02803230F4E091FC02A4
:101E2000F0E0E452FD4F10826091FC0270E0E0911E
:101E3000DA02F091DB028CED92E019951092FC022F
:101E400008CF1092230334CF1F920F920FB60F9238
:101E500011242F933F938F939F93AF93BF938091C0
:101E60008B0290918C02A0918D02B0918E023091E4
:101E70008A0223E0230F2D3758F50196A11DB11DCD
:101E800020938A0280938B0290938C02A0938D0200
:101E9000B0938E0280918F0290919002A091910256
:101EA000B09192020196A11DB11D80938F02909373
:101EB0009002A0939102B0939202BF91AF919F9133
:101EC0008F913F912F910F900FBE0F901F901895FB
:101ED00026E8230F0296A11DB11DD2CF1F920F92AB
:101EE0000FB60F9211240BB60F922F933F934F937F
:101EF0005F936F937F938F939F93AF93BF93EF9372
:101F0000FF938091830290918402A0918502B09109
:101F10008602892B8A2B8B2BD1F1909182028091A2
:101F200000008927809300008091830290918402B1
:101F3000A0918502B0918602181619061A061B0692
:101F40009CF48091830290918402A0918502B091CB
:101F500086020197A109B1098093830290938402BC
:101F6000A0938502B0938602FF91EF91BF91AF914C
:101F70009F918F917F916F915F914F913F912F91A1
:101F80000F900BBE0F900FBE0F901F901895809171
:101F90000002ECEBF1E0E4919FEF90930002E2305D
:101FA000E9F040F4EE2389F0E13091F060E00E9426
:101FB0000B03DACFE43049F110F1E530B9F7909135
:101FC00073009D7F90937300F1CF10926E00EECF5F
:101FD00090916F009D7F90936F00E8CF909170007B
:101FE0009D7F9093700091E09093B0009091B1002C
:101FF000987F94609093B1001092B300D7CF9091E6
:1020000071009D7F90937100D1CF909172009D7F60
:1020100090937200CBCF1F920F920FB60F921124A4
:102020000BB60F922F933F934F935F936F937F93D2
:102030008F939F93AF93BF93EF93FF938BE593E0C1
:102040000E94DC05FF91EF91BF91AF919F918F911D
:102050007F916F915F914F913F912F910F900BBEA8
:102060000F900FBE0F901F9018951F920F920FB6F2
:102070000F9211240BB60F922F933F934F935F93C0
:102080006F937F938F939F93AF93BF93EF93FF9340
:102090008BE593E00E946805FF91EF91BF91AF91AE
:1020A0009F918F917F916F915F914F913F912F9170
:1020B0000F900BBE0F900FBE0F901F9018951F92A0
:1020C0000F920FB60F9211240BB60F922F933F93DE
:1020D0004F935F936F937F938F939F93AF93BF9330
:1020E000EF93FF9388EF93E00E94DC05FF91EF915F
:1020F000BF91AF919F918F917F916F915F914F9120
:102100003F912F910F900BBE0F900FBE0F901F901D
:1021100018951F920F920FB60F9211240BB60F92C3
:102120002F933F934F935F936F937F938F939F93DF
:10213000AF93BF93EF93FF9388EF93E00E946805FE
:10214000FF91EF91BF91AF919F918F917F916F918F
:102150005F914F913F912F910F900BBE0F900FBE4B
:102160000F901F9018951F920F920FB60F92112487
:102170000BB60F922F933F934F935F936F937F9381
:102180008F939F93AF93BF93EF93FF9385E994E071
:102190000E94DC05FF91EF91BF91AF919F918F91CC
:1021A0007F916F915F914F913F912F910F900BBE57
:1021B0000F900FBE0F901F9018951F920F920FB6A1
:1021C0000F9211240BB60F922F933F934F935F936F
:1021D0006F937F938F939F93AF93BF93EF93FF93EF
:1021E00085E994E00E946805FF91EF91BF91AF915E
:1021F0009F918F917F916F915F914F913F912F911F
:102200000F900BBE0F900FBE0F901F9018951F924E
:102210000F920FB60F9211240BB60F922F933F938C
:102220004F935F936F937F938F939F93AF93BF93DE
:10223000EF93FF93809133050E94E20220913705CE
:10224000309138052F5F3F4F309338052093370585
:1022500090913605953618F096E09093320590915E
:102260003205943009F466C0B8F49230F1F093303E
:1022700009F444C090913505992309F46BC081118C
:102280007CC080913405882309F463C080913405B3
:1022900061E00E940B035EC0953009F457C0963090
:1022A00049F791E0909303064FC08111E3CF20914D
:1022B0003705309138052436310528F41092380559
:1022C00010923705D7CF1092030610923605E09191
:1022D000360591E09E0F90933605F0E0209137058A
:1022E00030913805EE0FFF1FEE5CFA4F30872783E1
:1022F000109238051092370593E019C0813009F02B
:10230000B9CFE091360591E09E0F90933605F0E04D
:102310002091370530913805EE0FFF1FEE5CFA4F24
:1023200030872783109238051092370594E09093F8
:102330003205A0CF882359F2209137053091380516
:102340002536310508F496CF95E0F1CF811192CF73
:10235000B5CF2F9AFF91EF91BF91AF919F918F9140
:102360007F916F915F914F913F912F910F900BBE95
:102370000F900FBE0F901F90189580913405882301
:1023800021F08091340560E084CF2F98E3CF1F9235
:102390000F920FB60F9211240BB60F922F933F930B
:1023A0004F935F936F937F938F939F93AF93BF935D
:1023B000CF93DF93EF93FF9380918102C09140060A
:1023C000D0E087FF23C01092850010928400809196
:1023D00081028F5F8093810280918102082E000C20
:1023E000990B8C179D0724F4809181028C3074F135
:1023F000809184009091850084349C4908F465C0E4
:102400008091840090918500049661C08091810242
:10241000082E000C990B8C179D07CCF63091810289
:1024200025E03203F0011124EC5FF94F808186FF33
:10243000CECF309181023203F0011124EC5FF94FCD
:10244000808160E08F730E940B03C1CF8091840074
:10245000909185003091810225E03203F001112432
:10246000EC5FF94F41815281840F951F9093890051
:1024700080938800309181023203F0011124EC5FD7
:10248000F94F808186FF0CC0309181023203F00148
:102490001124EC5FF94F808161E08F730E940B0380
:1024A000FF91EF91DF91CF91BF91AF919F918F916C
:1024B0007F916F915F914F913F912F910F900BBE44
:1024C0000F900FBE0F901F90189580E49CE9909399
:1024D0008900809388008FEF80938102E1CF109272
:1024E00052031092510388EE93E0A0E0B0E0809395
:1024F000530390935403A0935503B093560327E1DD
:1025000032E03093500320934F0310925E031092F9
:102510005D0380935F0390936003A0936103B09386
:10252000620329E232E030935C0320935B0345E3CE
:1025300051E0509368034093670344E351E05093A4
:102540006A034093690340E351E050936C03409366
:102550006B0341E351E050936E0340936D0342E3FC
:1025600051E05093700340936F0346E351E0509362
:1025700072034093710310927403109275031092CA
:102580007603109277031092FB031092FA03809364
:10259000FC039093FD03A093FE03B093FF033093DD
:1025A000F9032093F80345ED50E050930504409360
:1025B000040444ED50E0509307044093060440EDBA
:1025C00050E0509309044093080441ED50E05093CB
:1025D0000B0440930A0442ED50E050930D044093E5
:1025E0000C0446ED50E050930F0440930E041092FB
:1025F00011041092120410921304109214041092F9
:102600009804109297048093990490939A04A0934D
:102610009B04B0939C04309396042093950485EC1E
:1026200090E09093A2048093A10484EC90E09093B6
:10263000A4048093A30480EC90E09093A60480937C
:10264000A50481EC90E09093A8048093A70482EC09
:1026500090E09093AA048093A90486EC90E0909374
:10266000AC048093AB041092AE041092AF041092AD
:10267000B0041092B10480910B0290910C02A091D1
:102680000D02B0910E0280932A0790932B07A0931E
:102690002C07B0932D0780910F0290911002A0910A
:1026A0001102B091120280932E0790932F07A093EE
:1026B0003007B093310784E08093320787E080933E
:1026C00033071092340784EB8093350786E18093BB
:1026D000360788E18093370787E18093380789E1DF
:1026E00080933907E0914006EC3008F4A9C08FEFE1
:1026F00080933A07E0914006EC3008F4B2C08FEFC7
:1027000080933B078CE08093090784E280930A075B
:1027100086E080930B0785E080930C078FE1809320
:102720000D078EE180930E0783E280930F0782E20C
:102730008093100785E48093110784E48093120747
:1027400080E48093150710921A0710921B071092CD
:102750001C0710921D0710921E0710921F0710925F
:10276000200710922107EBE4F6E08FEF9FEFDC01EA
:1027700012821382148215821682178210861186A5
:1027800083879487A587B6878787908BA18BB28B29
:10279000128611821082739627E0E930F20741F722
:1027A0008DE090E00E948519FC01138212828BE378
:1027B00092E091838083118687E2848384E182871B
:1027C00084E083871486F0934806E09347061092CE
:1027D000490610924A0685E280933305109235052A
:1027E000109242061092410610924406109243063F
:1027F000109246061092450661E070E090E080E09D
:102800000E94AA1A0097F1F1909342068093410624
:1028100010924406109243062091450630914606D8
:10282000232B11F4FC0110821092460610924506EB
:1028300065E472E080914106909142060C94941BED
:1028400081E08E0F80934006E0933A0725E0E29FF7
:10285000F0011124EC5FF94F88EB9BE092838183B8
:1028600049CF81E08E0F80934006E0933B0785E0DF
:10287000E89FF0011124EC5FF94F88EB9BE0928315
:10288000818340CF8091410690914206009711F0DC
:102890000E94211A1092420610924106109246069A
:1028A00010924506109244061092430608957894BB
:1028B00084B5826084BD84B5816084BD85B5826045
:1028C00085BD85B5816085BD80916E0081608093F6
:1028D0006E0010928100809181008260809381005F
:1028E000809181008160809381008091800081606F
:1028F000809380008091B10084608093B1008091CA
:10290000B00081608093B0008091910082608093DC
:10291000910080919100816080939100809190005E
:102920008160809390008091A10082608093A100DB
:102930008091A10081608093A1008091A0008160BE
:102940008093A00080912101826080932101809179
:102950002101816080932101809120018160809319
:10296000200180917A00846080937A0080917A00BF
:10297000826080937A0080917A00816080937A00EF
:1029800080917A00806880937A001092C1000E9442
:10299000A40161E080910A070E94780360E08091C1
:1029A0000A070E940B0360E0809109070E947803E8
:1029B0008FE493E090931407809313071092B4026E
:1029C0001092B30210922C0310924E030E9439030E
:1029D00083EF91E09093D7028093D60284EF91E049
:1029E0009093DB028093DA0280E090E1A0E0B0E017
:1029F0008093160790931707A0931807B0931907B1
:102A00008AE090E0A0E0B0E080931A0790931B0763
:102A1000A0931C07B0931D0780E090E0A0E0B0E415
:102A200080931E0790931F07A0932007B093210760
:102A300060E070E185E00E94D2046FE979E380E014
:102A40000E94D2040BE017E0C9E0D7E060E4A62EB4
:102A500062E0B62E76E8872E72E0972EEBECEE2E33
:102A6000E7E0FE2EF801928181918F01898F9A8F84
:102A700061E00E94780361E08A8D0E9478036E0114
:102A8000FDE1CF0ED11CF801958183818D8F9E8F42
:102A900061E00E94780360E08E8D0E94780361E01F
:102AA0008D8D0E940B037FB6F8948091870281116F
:102AB00025C0F5018491F4019491E82FF0E0EE0F28
:102AC000FF1FE354FE4FA591B4918C91982321F4FC
:102AD00061E085E30E940B0361E085E30E947803D7
:102AE0008CB580618CBD8CB580648CBD61E084E365
:102AF0000E94780361E083E30E947803809187025B
:102B00008F5F809387027FBEC7010197F1F760E076
:102B10008D8D0E940B0388E80E94BA0783E00E9413
:102B2000BA0761E08D8D0E940B03C7010197F1F791
:102B3000C6010E94C1072296F7E0CD30DF0709F0F9
:102B400091CF0EE217E0CAE2D7E042E3E42E47E07D
:102B5000F42E60E0F80181918F010E947803E01665
:102B6000F106B9F78EE2E82E87E0F82E0AE217E0C8
:102B700095E0D92E2CE0B22E32E0C32E88898C301D
:102B800008F043C0A88461E08A2D0E9478038889F8
:102B9000D89EF0011124EC5FF94F2A2D2F739081FC
:102BA000907C922B9083138214826B2D0E9452187A
:102BB0008B9DA001112430E020E0BA01620F731F49
:102BC000D69EF001D79EF00D1124EC5FF94F908155
:102BD00096FD12C02F5F3F4F2C30310571F78111E8
:102BE0000BC010928000C09281001092850010925C
:102BF0008400C6BAC0926F00E889DE9EF0011124FD
:102C0000EC5FF94F8081806480839E858C85F8011C
:102C1000828B938B60E00E94780361E0F8018389E6
:102C20000E94780360E0F80183890E940B032196DB
:102C30000E5F1F4FE016F10609F0A0CFF894109236
:102C4000200189E08093210180E293E090932901A3
:102C500080932801109225011092240182E0809334
:102C60007300789480933205109236058091330575
:102C700060E00E94780360E084E00E94780360E0F6
:102C800085E00E94780360E080E30E94780360E0C2
:102C900081E30E9478030E94A40164E670E080E072
:102CA00090E00E940905C4EFD1E0812C912C5401E1
:102CB00075016401A7019601C501B4010E9466185F
:102CC0002B013C0120E030E04CED52E40E94ED1677
:102CD00087FF23C042E050E0C301B2010E945A09BD
:102CE00084E00E94A903BC01990F880B990B0E94F4
:102CF000F4166B017C0185E00E94A903BC01990FC9
:102D0000880B990B0E94F4164B015C0161E070E0A6
:102D100080E090E00E940905CDCF219759F66CED37
:102D200075E080E090E00E94090588E297E00E944B
:102D3000C10786E297E00E94C1078091030290914B
:102D400004020A97A9F08091010290910202823058
:102D50009105D1F08330910531F1019749F4C0918B
:102D60008802D0918902CF3FDC0729F40E94390CF8
:102D70000E946E06E2CF0E946908882311F0CD2BD5
:102D8000A9F30E94180DF4CF0E9469088823C9F3A3
:102D90000E94390C0E946908882399F30E94580BFD
:102DA0000E94580BEECFC0918802D0918902C130A9
:102DB000D10519F40E94580BDBCF0E9469088823C3
:102DC00001F3CD2BF1F6F6CF8091410690914206AA
:102DD000009711F00C94211A08950E942F1708F4FF
:102DE00081E00895E89409C097FB3EF490958095A2
:102DF000709561957F4F8F4F9F4F9923A9F0F92FC1
:102E000096E9BB279395F695879577956795B7953E
:102E1000F111F8CFFAF4BB0F11F460FF1BC06F5F24
:102E20007F4F8F4F9F4F16C0882311F096E911C036
:102E3000772321F09EE8872F762F05C0662371F057
:102E400096E8862F70E060E02AF09A95660F771F6B
:102E5000881FDAF7880F9695879597F90895990F47
:102E60000008550FAA0BE0E8FEEF16161706E80754
:102E7000F907C0F012161306E407F50798F0621B75
:102E8000730B840B950B39F40A2661F0232B242B4A
:102E9000252B21F408950A2609F4A140A6958FEF69
:102EA000811D811D08950E9466170C94D7170E94FA
:102EB000C91738F00E94D01720F0952311F00C9418
:102EC000C0170C94C61711240C940B180E94E81715
:102ED00070F3959FC1F3950F50E0551F629FF0016D
:102EE000729FBB27F00DB11D639FAA27F00DB11D86
:102EF000AA1F649F6627B00DA11D661F829F22270F
:102F0000B00DA11D621F739FB00DA11D621F839F95
:102F1000A00D611D221F749F3327A00D611D231F6B
:102F2000849F600D211D822F762F6A2F11249F57B9
:102F300050409AF0F1F088234AF0EE0FFF1FBB1FBC
:102F4000661F771F881F91505040A9F79E3F51057B
:102F500080F00C94C0170C940B185F3FE4F3983E7C
:102F6000D4F3869577956795B795F795E7959F5F25
:102F7000C1F7FE2B880F911D9695879597F90895B7
:102F800097F99F6780E870E060E008959FEF80EC1C
:102F9000089500240A9416161706180609060895BF
:102FA00000240A9412161306140605060895092E25
:102FB0000394000C11F4882352F0BB0F40F4BF2B94
:102FC00011F460FF04C06F5F7F4F8F4F9F4F0895D4
:102FD00057FD9058440F551F59F05F3F71F04795CA
:102FE000880F97FB991F61F09F3F79F087950895AF
:102FF000121613061406551FF2CF4695F1DF08C0CE
:10300000161617061806991FF1CF869571056105EA
:1030100008940895E894BB2766277727CB0197F992
:103020000895052E97FB1EF400940E94281857FD62
:1030300007D00E94301807FC03D04EF40C942818D7
:1030400050954095309521953F4F4F4F5F4F0895D4
:1030500090958095709561957F4F8F4F9F4F089504
:10306000A1E21A2EAA1BBB1BFD010DC0AA1FBB1F8C
:10307000EE1FFF1FA217B307E407F50720F0A21BFE
:10308000B30BE40BF50B661F771F881F991F1A946B
:1030900069F760957095809590959B01AC01BD0195
:1030A000CF010895991B79E004C0991F961708F085
:1030B000961B881F7A95C9F780950895EE0FFF1F1C
:1030C000881F8BBF0790F691E02D19945058BB27AD
:1030D000AA270E947E180C94D7170E94C91738F0AF
:1030E0000E94D01720F039F49F3F19F426F40C9475
:1030F000C6170EF4E095E7FB0C94C017E92F0E9469
:10310000E81758F3BA17620773078407950720F08A
:1031100079F4A6F50C940A180EF4E0950B2EBA2F4C
:10312000A02D0B01B90190010C01CA01A0011124CD
:10313000FF27591B99F0593F50F4503E68F11A1679
:10314000F040A22F232F342F4427585FF3CF46950A
:1031500037952795A795F0405395C9F77EF41F162C
:10316000BA0B620B730B840BBAF09150A1F0FF0FF6
:10317000BB1F661F771F881FC2F70EC0BA0F621FE2
:10318000731F841F48F4879577956795B795F795D2
:103190009E3F08F0B0CF9395880F08F09927EE0F67
:1031A0009795879508950E94E7180C94D7170E9469
:1031B000D01758F00E94C91740F029F45F3F29F05A
:1031C0000C94C01751110C940B180C94C6170E9444
:1031D000E81768F39923B1F3552391F3951B550B29
:1031E000BB27AA2762177307840738F09F5F5F4FDA
:1031F000220F331F441FAA1FA9F335D00E2E3AF019
:10320000E0E832D091505040E695001CCAF72BD030
:10321000FE2F29D0660F771F881FBB1F2617370781
:103220004807AB07B0E809F0BB0B802DBF01FF27B3
:1032300093585F4F3AF09E3F510578F00C94C017B9
:103240000C940B185F3FE4F3983ED4F38695779582
:103250006795B795F7959F5FC9F7880F911D96956C
:10326000879597F90895E1E0660F771F881FBB1FC8
:10327000621773078407BA0720F0621B730B840B75
:10328000BA0BEE1F88F7E09508950E944C196894D8
:10329000B1110C940B1808950E94F01788F09F57F5
:1032A00098F0B92F9927B751B0F0E1F0660F771F6A
:1032B000881F991F1AF0BA95C9F714C0B13091F060
:1032C0000E940A18B1E008950C940A18672F782F0D
:1032D0008827B85F39F0B93FCCF386957795679525
:1032E000B395D9F73EF490958095709561957F4F91
:1032F0008F4F9F4F08950E942F1708F48FEF089566
:103300000E942F17880B990B08950F931F93CF934B
:10331000DF938230910510F482E090E0E091420763
:10332000F091430730E020E0B0E0A0E0309799F45E
:103330002115310509F44AC0281B390B2430310509
:10334000D8F58A819B816115710589F1FB01938311
:103350008283FE0111C0408151810281138148178F
:103360005907E0F04817590799F4109761F0129641
:103370000C93129713961C933296CF01DF91CF9145
:103380001F910F9108950093420710934307F4CFC4
:103390002115310551F04217530738F0A901DB011F
:1033A0009A01BD01DF01F801C1CFEF01F9CF909380
:1033B000430780934207CDCFFE01E20FF31F8193B5
:1033C00091932250310939832883D7CF2091400728
:1033D00030914107232B41F42091070230910802DC
:1033E0003093410720934007209105023091060257
:1033F0002115310541F42DB73EB740910902509196
:103400000A02241B350BE0914007F0914107E217B7
:10341000F307A0F42E1B3F0B2817390778F0AC01F7
:103420004E5F5F4F2417350748F04E0F5F1F5093D4
:10343000410740934007819391939FCFF0E0E0E0F4
:103440009CCFCF93DF930097E9F0FC013297138272
:103450001282A0914207B0914307ED0130E020E0D5
:103460001097A1F420813181820F931F2091400792
:10347000309141072817390709F061C0F0934107DF
:10348000E0934007DF91CF910895EA01CE17DF075F
:10349000E8F54A815B819E0141155105B1F7E901CB
:1034A000FB83EA8349915991C40FD51FEC17FD079F
:1034B00061F4808191810296840F951FE9019983BF
:1034C0008883828193819B838A83F0E0E0E0129677
:1034D0008D919C9113970097B9F52D913C9111977F
:1034E000CD010296820F931F209140073091410732
:1034F0002817390739F6309751F510924307109283
:103500004207B0934107A0934007BCCFD383C28347
:1035100040815181840F951FC817D90761F44E5F10
:103520005F4F88819981480F591F518340838A8159
:103530009B81938382832115310509F0B0CFF093ED
:103540004307E09342079ECFFD01DC01C0CF138209
:103550001282D7CF4F925F926F927F928F929F92FB
:10356000AF92BF92CF92DF92EF92FF920F931F9391
:10357000CF93DF938C01009799F4CB01DF91CF912A
:103580001F910F91FF90EF90DF90CF90BF90AF9081
:103590009F908F907F906F905F904F900C948519C3
:1035A000FC01E60FF71F9C0122503109E217F307D7
:1035B00008F4AEC0D901CD91DC911197C617D70799
:1035C00020F1C530D10578F0CE0104978617970712
:1035D00050F0C61BD70B2297C193D1936D937C9368
:1035E000CF010E94211AC801DF91CF911F910F9145
:1035F000FF90EF90DF90CF90BF90AF909F908F9013
:103600007F906F905F904F9008955B01AC1ABD0A58
:103610004C018C0E9D1EA0914207B0914307512C86
:10362000412CF12CE12C109731F5809140079091BD
:1036300041078815990509F05CC04616570608F041
:1036400058C08091050290910602009741F48DB711
:103650009EB74091090250910A02841B950BE8170E
:10366000F90708F055C0F0934107E0934007F901CE
:1036700071836083B8CF8D919C91119712966C9055
:10368000129713967C901397A815B90559F56C01FC
:1036900042E0C40ED11CCA14DB0420F1AC014A196B
:1036A0005B09DA011296159780F06282738251836A
:1036B0004083D9016D937C93E114F10471F0D7013B
:1036C0001396FC93EE9312978ECF22968C0F9D1F2C
:1036D000F90191838083F301EFCFF0934307E093E7
:1036E000420781CF4816590608F42C017D01D30109
:1036F0009ACFCB010E9485197C01009749F0AE0159
:10370000B8010E948B1BC8010E94211A87016BCF50
:1037100010E000E068CFFB01DC0102C001900D92D7
:1037200041505040D8F70895FB01DC0101900D9203
:103730000020E1F7089511E0C0E7D1E000E006C005
:10374000802FFE010E945E182196011DC137D1070E
:0A37500080E00807A9F7F894FFCF06
:10375A00FF02000100000044078000363738391B99
:10376A001D1A1C000000004C021F026608F5011811
:10377A00020502F60100000000FE053B0581054B2B
:10378A0006B2059005A405000000008C083B0566FA
:10379A000865080D0A006E616E00696E66006F7634
:0837AA0066006465627574009D
:00000001FF
