:100000000C9471010C94A2010C94A2010C94A20115
:100010000C94A2010C94A2010C94A2010C94A201D4
:100020000C94A2010C943A0C0C943A0C0C943A0CDB
:100030000C94A2010C94B20D0C94A2010C94A20198
:100040000C94A2010C940B100C94A2010C94A2012C
:100050000C94A2010C94A2010C94A2010C94680DC2
:100060000C94A2010C94210F0C94F70E0C94A20195
:100070000C94A2010C94A2010C94A2010C94A20174
:100080000C94A2010C94A2010C94A2010C94A20164
:100090000C94A2010C94A2010C94A2010C94440CA7
:1000A0000C94A2010C94A2010C94A2010C94A20144
:1000B0000C94A2010C94A2010C94A2010C944B0F7D
:1000C0000C94A2010C94A2010C94A2010C94CD0EEC
:1000D0000C94A30E0C94A2010C94790E0C944F0E68
:1000E0000C94A2010C94C4040C940C070C943B05D2
:1000F0000C94DD010C94FD060C9496020C9487057B
:100100000C949A020C949E020C94A8020C94770210
:100110000C9448150C94D7060C943E070C942A07AF
:100120000C947B020C9424020C94D4050C947F0252
:100130000C9486020C94F7010C94B1020C942007E5
:100140000C94BB060C948C020C94EF070C94AC023C
:100150000C9471020C94B3100C9415080C949B062B
:100160000C94A4020C9490020C94F0010C94DF0601
:100170000C94C5060C94F3060C94B2020C9434074C
:100180000C9419050C94CD010C94CB010C94EE0742
:100190000C9416070C9483020C94E9060C94B60296
:1001A0000C940A050C94CC010C94CF060C942D05EC
:1001B0000C94AC060C94CE010C94B1060200002104
:1001C00000240027002A002D003000330001010028
:1001D00000040107010A0100002200250028002B6D
:1001E000002E003100340002010000050108010B5F
:1001F00001000020002300260029002C002F0032DF
:1002000000000100000301060109010505050507BD
:100210000508080808020202020A0A080804040481
:1002200004010101010101010103030303030303AD
:1002300003040707070C0C0C0C0C0C0C0C0202023C
:100240000206060606060606060B0B0B0B0B0B0B2F
:100250000B010210202008081020401020408002CE
:1002600001020108040201010204081020408080FC
:100270004020100804020180040201804020100880
:100280000402010804020101020408102040800158
:100290000204081020408000000A0B02090C0D0E19
:1002A0000807030401000000000000000000000037
:1002B000000000000000000000000000000000003E
:1002C00000000012111000000000000000000000FB
:1002D0000000000000000000000000000000B3105B
:1002E000481511241FBECFEFD1E2DEBFCDBF00E025
:1002F0000CBF12E0A0E0B2E0E4EEF3E300E00BBFDD
:1003000002C007900D92A235B107D9F727E0A2E508
:10031000B2E001C01D92A833B207E1F711E0C0E7D7
:10032000D1E000E006C021970109802FFE010E9464
:10033000A316CF36D10780E00807A9F70E949B12C9
:100340000C94E0190C9400002091CC02260F332766
:10035000331F21323105ECF420911903FC0190E0A8
:1003600080E0243069F082E00895A091CC022191D0
:10037000AC0146555D4FA40FB52FB11D2C930196CE
:10038000861798F38091CC02680F6093CC0280E0CE
:10039000089581E00895089508950895E091A802D0
:1003A0008091A702E81730F4F0E0E957FD4F808113
:1003B00090E008958FEF9FEF08959091A8028091AB
:1003C000A7022FEF3FEF981748F4E92FF0E0E95725
:1003D000FD4F208130E09F5F9093A802C9010895EE
:1003E0008091A7029091A802891B990B0895CF9242
:1003F000DF92EF92FF920F931F93CF93DF937C01D5
:10040000CB018A0120911F03222389F0EB016B01AC
:10041000C40ED51ECC15DD0569F06991D701ED91AB
:10042000FC910190F081E02DC7011995F3CF642F65
:100430000E94A401C801DF91CF911F910F91FF90FD
:10044000EF90DF90CF900895CF93DF931F92CDB7B9
:10045000DEB7698320911F032223F9F02091420324
:10046000203258F021E030E0FC013383228390E019
:1004700080E00F90DF91CF91089580912003E82FC5
:10048000F0E0EF5DFC4F998190838F5F80932003B4
:100490008093420381E090E0ECCF61E0CE010196D1
:1004A0000E94A401F7CF8150823108F05AC0E82F92
:1004B000F0E08827E15AFD4F8F4F0C94A3167F027E
:1004C0008302710277027B02B10286028C029002E3
:1004D00096029A029E02A402A802B102AC02B202E3
:1004E000B602809180008F7780938000089580917C
:1004F00080008F7DF9CF80918000877FF5CF84B514
:100500008F7784BD089584B58F7DFBCF8091B00037
:100510008F778093B00008958091B0008F7DF9CFE0
:10052000809190008F778093900008958091900043
:100530008F7DF9CF80919000877FF5CF8091A000CB
:100540008F778093A00008958091A0008F7DF9CFD0
:100550008091A000877FF5CF809120018F778093D5
:1005600020010895809120018F7DF9CF8091200195
:10057000877FF5CFCF93DF93282F30E0F901E9563D
:10058000FD4F8491F901EF5AFD4FD491F901E55FD8
:10059000FD4FC491CC23A1F081110E945302EC2F96
:1005A000F0E0EE0FFF1FEF50FE4FA591B491EC91DC
:1005B000ED2381E090E009F480E0DF91CF91089590
:1005C00080E090E0FACF1F93CF93DF93282F30E0A5
:1005D000F901E956FD4F8491F901EF5AFD4FD4918D
:1005E000F901E55FFD4FC491CC23A9F0162F8111CD
:1005F0000E945302EC2FF0E0EE0FFF1FE952FE4F76
:10060000A591B4918FB7F894EC91111108C0D095D1
:10061000DE23DC938FBFDF91CF911F910895DE2BF6
:10062000F8CF1092190381E0809318031092F3021F
:1006300061E084E10E94E30261E085E10E94E3025F
:10064000E9EBF0E080818E7F808380818D7F8083E5
:1006500088E48093B80085E48093BC000895CF932C
:10066000DF9391E09093A9028823B9F0C091B8007C
:10067000D091BA008091BC008A7B8093BC0060E07E
:1006800084E10E94E30260E085E10E94E3020E94AF
:100690001103D093BA00C093B800DF91CF910895B1
:1006A000CF93DF9390E0FC01EF5AFD4F2491855FDB
:1006B0009D4FFC0184918823D1F090E0880F991F11
:1006C000FC01E354FE4FA591B491FC01E952FE4FA9
:1006D000C591D49161110EC09FB7F8948C91E22F0F
:1006E000E0958E238C932881E223E8839FBFDF91DE
:1006F000CF9108958FB7F894EC91E22BEC938FBFD4
:10070000F6CF3FB7F8948091830290918402A09134
:100710008502B091860226B5A89B05C02F3F19F02F
:100720000196A11DB11D3FBFBA2FA92F982F882771
:10073000BC01CD01620F711D811D911D42E0660F4C
:10074000771F881F991F4A95D1F70895CF92DF929E
:10075000EF92FF920F931F93CF93DF93D0914203B9
:1007600081E0D13208F09CC0C09141030E94810316
:100770006B017C018091190381116CC082E0809330
:10078000190381E0809318038FEF80931703109271
:100790001603D0931503A1E2B3E0E5EFF2E080E0A9
:1007A000D8138DC01092F4028091F402CC0FC82BA4
:1007B000C093F4028091F302813009F084C010925A
:1007C000F3020E9481036B017C018091F40280930B
:1007D000BB0080911B0390911C03A0911D03B0915D
:1007E0001E03892B8A2B8B2BA1F00E948103009181
:1007F0001B0310911C0320911D0330911E036C19E3
:100800007D098E099F09061717072807390708F47D
:1008100042C08091BC0083FDD8CF85EC8093BC00A2
:100820000E9481036B017C0180911903823009F4DD
:100830004CC0809117038F3F09F469C08091170362
:10084000803209F466C080911703803309F463C0D5
:1008500084E026C080911B0390911C03A0911D038E
:10086000B0911E03892B8A2B8B2B09F483CF0E9416
:10087000810300911B0310911C0320911D033091F3
:100880001E036C197D098E099F0906171707280793
:10089000390708F06FCF80911A030E942F0385E07B
:1008A000109220031092420310921F03DF91CF9108
:1008B0001F910F91FF90EF90DF90CF9008959D9141
:1008C00091938F5F6DCF85EEA9CF80911B0390919F
:1008D0001C03A0911D03B0911E03892B8A2B8B2B27
:1008E00009F4A2CF0E94810300911B0310911C0305
:1008F00020911D0330911E036C197D098E099F09FB
:10090000061717072807390708F08ECFC4CF80E0F5
:10091000C7CF82E0C5CF83E0C3CF0F931F93CF93A0
:10092000DF93162F072FCDEFD6E0AA85BB859C85D8
:1009300021E020931F039093410310922003109213
:100940004203ED91FC9111970190F081E02D682F09
:10095000CD0119958A859B85DC01ED91FC91019073
:10096000F081E02D602F19958A859B85DC01ED9142
:10097000FC910190F081E02D612F1995DF91CF91CD
:100980001F910F910C94A603AF92BF92CF92DF926A
:10099000EF92FF920F931F93CF93DF936C017B0134
:1009A0008B01040F151FEB015E01AE18BF08C017C5
:1009B000D10759F06991D601ED91FC910190F08138
:1009C000E02DC6011995892B79F7C501DF91CF91EB
:1009D0001F910F91FF90EF90DF90CF90BF90AF905D
:1009E0000895FC01A089B1898C91A689B78982FDFF
:1009F0000FC09C91818D8F5F8F73228D821749F07C
:100A0000A18DAE0FBF2FB11D5D969C93818F089570
:100A10008C910895FC01538D448D252F30E0842F57
:100A200090E0821B930B541710F0CF960895019716
:100A30000895FC01918D828D981761F0A28DAE0F03
:100A4000BF2FB11D5D968C91928D9F5F9F73928F8A
:100A500090E008958FEF9FEF0895FC01918D828DB6
:100A6000981731F0828DE80FF11D858D90E0089583
:100A70008FEF9FEF0895FC01918D228D892F90E0DB
:100A8000805C9F4F821B91098F73992708958FE493
:100A900093E00E943B0521E0892B09F420E0822F9E
:100AA00008958CEE93E00E943B0521E0892B09F428
:100AB00020E0822F089589E894E00E943B0521E020
:100AC000892B09F420E0822F0895FC01A48DA80F42
:100AD000B92FB11DA35ABF4F2C91848D90E0019680
:100AE0008F739927848FA689B7892C93A089B189A0
:100AF0008C91837080648C93938D848D981306C041
:100B00000288F389E02D80818F7D80830895EF92A4
:100B1000FF920F931F93CF93DF93EC0181E0888FB7
:100B20009B8D8C8D98131AC0E889F989808185FF87
:100B300015C09FB7F894EE89FF896083E889F98929
:100B400080818370806480839FBF81E090E0DF912B
:100B5000CF911F910F91FF90EF900895F62E0B8D7E
:100B600010E00F5F1F4F0F731127E02E8C8D8E1139
:100B70000CC00FB607FCFACFE889F989808185FFA0
:100B8000F5CFCE010E946505F1CFEB8DEC0FFD2F67
:100B9000F11DE35AFF4FF0829FB7F8940B8FEA895B
:100BA000FB8980818062CFCFCF93DF93EC01888D6A
:100BB0008823B9F0AA89BB89E889F9898C9185FDD8
:100BC00003C0808186FD0DC00FB607FCF7CF8C9166
:100BD00085FFF2CF808185FFEDCFCE010E946505B4
:100BE000E9CFDF91CF910895F0E0E0E0199480E043
:100BF00090E0892B29F00E945B0581110E94000082
:100C000080E090E0892B49F080E090E0892B29F08A
:100C10000E94000081110E9400000E945105811174
:100C20000E94F40580E090E0892B29F00E9447059E
:100C300081110C94000008958F929F92AF92BF9201
:100C4000CF92DF92EF92FF920F931F93CF93DF9398
:100C5000EC016A017B0120E030E04FE753E4CB0177
:100C6000B6010E94B7154B015C0120E030E0A901FC
:100C70000E94C01718168CF5C501B4010E948A178E
:100C80008B01B98020E030E0A901C701B6010E94C4
:100C9000C01760E018160CF061E08B2D0E94E30293
:100CA0000F3F110509F0ECF41127C88161E08C2F8A
:100CB0000E94500301151105B9F460E08C2FDF91FB
:100CC000CF911F910F91FF90EF90DF90CF90BF9049
:100CD000AF909F908F900C94E302C501B40190589F
:100CE000CDCF0FEF10E0E1CF0F3F110511F461E020
:100CF000E5CFEC2FF0E0E956FD4FE491E150E23111
:100D000008F0BCC0F0E08827E757F94F8F4F0C94EC
:100D1000A3169B06AC06B106BB06C5063E07CF066A
:100D2000D706DF06E906F306FD060C0716073E07A1
:100D300020072A07340784B5806884BD07BDDF918A
:100D4000CF911F910F91FF90EF90DF90CF90BF90C8
:100D5000AF909F908F90089584B5806284BD08BD48
:100D6000EECF80918000806880938000109389008E
:100D700000938800E4CF809180008062809380009F
:100D800010938B0000938A00DACF809180008860F6
:100D90008093800010938D0000938C00D0CF8091C1
:100DA000B00080688093B0000093B300C8CF8091FA
:100DB000B00080628093B0000093B400C0CF8091F7
:100DC00090008068809390001093990000939800A1
:100DD000B6CF8091900080628093900010939B002A
:100DE00000939A00ACCF809190008860809390002F
:100DF00010939D0000939C00A2CF8091A00080687A
:100E00008093A0008091A0008F7B8093A00010931E
:100E1000A9000093A80093CF8091A00080628093E6
:100E2000A0001093AB000093AA0089CF8091A0008E
:100E300088608093A0001093AD000093AC007FCF3A
:100E400080912001806880932001109329010093F4
:100E5000280175CF8091200180628093200110933A
:100E60002B0100932A016BCF809120018860809331
:100E7000200110932D0100932C0161CF0038110542
:100E80000CF035CF1ACF8EBD00000DB407FEFDCF9C
:100E90008EB50895CF93DF93EC0160E088810E94C6
:100EA000E30288E90E94430780E00E94430780E054
:100EB0000E94430780E00E94430780E00E944307AE
:100EC00061E088810E94E3028BE891E00197F1F7ED
:100ED00060E088810E94E30280EE0E94430761E0A7
:100EE0008881DF91CF910C94E302AF92BF92CF92B1
:100EF000DF92EF92FF920F931F93CF93DF93CDB7C3
:100F0000DEB760970FB6F894DEBF0FBECDBF6C01A1
:100F100060E0FC0180810E94E30280E60E944307BA
:100F20009E012F5F3F4F79015E0131E1A30EB11C9D
:100F3000870180E00E94430790E0B0E0A0E0F80164
:100F400081939193A193B1938F01EA15FB0589F7E2
:100F500061E0F60180810E94E30280E090E0DC0124
:100F6000F70141915191619171917F01BA2FA92FA0
:100F7000982F8827840F951FA61FB71FE017F1072A
:100F800079F79C01AD0166277727CB01621B730BB4
:100F9000840B950B60960FB6F894DEBF0FBECDBFE5
:100FA000DF91CF911F910F91FF90EF90DF90CF9045
:100FB000BF90AF900895FC01248131E030931F036E
:100FC0002093410310922003109242038485682BE2
:100FD00083E493E00E9424020C94A603089590E019
:100FE00080E0089580E30E94BA02892B31F481E306
:100FF0000E94BA0221E0892B09F020E0822F089597
:101000000F931F93CF938C01C62F64600E94DB0760
:101010006C2F6B7FC8010E94DB0783EC90E0019787
:10102000F1F7CF911F910F9108950F931F93CF93D5
:10103000DF938C01C62FD62FD07FD1606D2F0E94F9
:10104000DB076D2FC8010E94000880E1C89FE00106
:101050001124C1606C2FC8010E94DB076C2FC801EE
:101060000E94000881E090E0DF91CF911F910F91E5
:1010700008958F929F92AF92BF92CF92DF92EF929C
:10108000FF9240E050E060E070E888E197E00E9465
:101090001C0640E050E0BA0186E197E00E941C0681
:1010A0000E9481034B015C0184E6C82ED12CE12C07
:1010B000F12C0E948103681979098A099B09683E0D
:1010C000734081059105A8F321E0C21AD108E10817
:1010D000F10888EE880E83E0981EA11CB11CC11493
:1010E000D104E104F10429F7109274021092730202
:1010F0008CE197E00E944A078AE197E0FF90EF9029
:10110000DF90CF90BF90AF909F908F900C944A0744
:10111000FC0101900020E9F73197AF01481B590B02
:10112000BC0189E894E00C94C4048F929F92AF9222
:10113000BF920F931F93CF93DF93CDB7DEB7A197E5
:101140000FB6F894DEBF0FBECDBF19A2423008F42F
:101150004AE08E010F5D1F4F842E912CB12CA12CE3
:10116000A50194010E947516E62FB901CA01EA3063
:10117000F4F4E05DD801EE938D01232B242B252B75
:1011800079F790E080E0109719F0CD010E9488086F
:10119000A1960FB6F894DEBF0FBECDBFDF91CF9101
:1011A0001F910F91BF90AF909F908F900895E95C31
:1011B000E1CFCF92DF92EF92FF92CF93DF936B015B
:1011C0007C01F7FE1FC06DE289E894E00E9487056C
:1011D000EC0166277727CB016C197D098E099F09E1
:1011E0004AE00E949508C80FD91F83E492E00E944C
:1011F00088088C0F9D1FDF91CF91FF90EF90DF90BB
:10120000CF9008954AE00E949508EC01EECFCF936D
:10121000DF930E948808EC0183E492E00E94880832
:101220008C0F9D1FDF91CF9108954F925F926F9227
:101230007F928F929F92AF92BF92CF92DF92EF9266
:10124000FF921F93CF93DF936B017C01D42FAC01EE
:101250009B010E94C5178823D9F086E492E00E9482
:101260008808EC0183E492E00E9488088C0F9D1F9F
:10127000DF91CF911F91FF90EF90DF90CF90BF90C3
:10128000AF909F908F907F906F905F904F90089558
:1012900046015701E894B7F82FEF3FEF4FE75FE7BC
:1012A000C501B4010E94C51781110DC02FEF3FEF9A
:1012B0004FE75FE7C501B4010E94511518161CF4F1
:1012C0008AE492E0CCCF2FEF3FEF4FE75FE4C70116
:1012D000B6010E94C01718161CF48EE492E0BFCF2E
:1012E0002FEF3FEF4FE75FECC701B6010E945115AA
:1012F00087FDF3CF20E030E0A901C701B6010E94CD
:101300005115B12CA12C87FF0AC06DE289E894E049
:101310000E9487055C01F7FAF094F7F8F0941D2F0E
:1013200060E070E080E09FE3C0E020E030E040E279
:1013300051E40E941817CF5FCD17B8F3A7019601AB
:101340000E94AC166B017C010E9491172B013C019D
:101350000E9456159B01AC01C701B6010E94AB1655
:101360006B017C014AE0C301B2010E949508EC01C7
:101370006EE289E894E00E948705C80FD91FCA0D64
:10138000DB1D115008F46ECF20E030E040E251E464
:10139000C701B6010E94B7154B015C010E9491176D
:1013A0006B01F12CE12C4AE0C701B6010E949508BF
:1013B000C80FD91FC701B6010E9456159B01AC0189
:1013C000C501B4010E94AB166B017C01DACF8F928C
:1013D0009F92AF92BF92CF92DF92EF92FF92CF9304
:1013E000DF932FB7F89460917F0270918002809113
:1013F0008102909182022FBFC0906F02D090700244
:10140000E0907102F09072026C197D098E099F09BB
:101410000E94581520E030E048E452E40E94C017D2
:1014200087FDA0C08CE197E00E947507161617068D
:10143000180619060CF0A9C08CE197E00E94750708
:10144000EB018AE197E00E94750797FFA7C08AE148
:1014500097E00E94750790958095709561957F4FF4
:101460008F4F9F4FAE01461B570BBA01072E000C42
:10147000880B990B0E9458156B017C012DEC3CECFC
:101480004CE45DE30E94B71522E63EEB4CEB58E3DB
:101490000E94B7154B015C0122E430E645E65BE3B0
:1014A000C701B6010E94B7159B01AC01C501B4018B
:1014B0000E94AC1660936B0270936C0280936D0275
:1014C00090936E0242E050E0C701B6010E941509F8
:1014D00060916B0270916C0280916D0290916E022E
:1014E0004AE050E00E94150985E492E00E94070955
:1014F0008CE197E00E947507161617061806190664
:101500000CF05EC08CE197E00E9475070E94D9083C
:101510008AE197E00E94750797FF5EC08AE197E035
:101520000E94750790958095709561957F4F8F4FBC
:101530009F4F0E94D90885E492E00E9407092FB7C7
:10154000F89480917F0290918002A0918102B091E5
:1015500082022FBF80936F0290937002A09371025A
:10156000B093720260916B0270916C0280916D0277
:1015700090916E02DF91CF91FF90EF90DF90CF902E
:10158000BF90AF909F908F9008958CE197E00E945C
:101590007507CC27DD27C61BD70B53CF8AE197E011
:1015A0000E9475079B01AC0188279927DC01821BEB
:1015B000930BA40BB50B66277727681B790B52CFCB
:1015C0008CE197E00E9475079095809570956195E4
:1015D0007F4F8F4F9F4F9ACF8AE197E00E94750708
:1015E000A8CF80917C0290917D02009739F48FEF13
:1015F0009FEF90937D0280937C0206C00197C1F417
:1016000010927D0210927C028CE197E00E94750797
:10161000161617061806190674F48CE197E00E9456
:101620007507653977408105910574F00C94390888
:1016300081E090E0DECF8CE197E00E9475076C3688
:10164000784F8F4F9F4F94F34AE959E969E17EEB58
:1016500088E197E00E941C060E94E70922ED3FE620
:101660004FE15EE30E94AC16AB01BC01705886E10D
:1016700097E00E941C06C8CF80917C0290917D0269
:10168000009739F481E090E090937D0280937C0292
:1016900006C00196C1F410927D0210927C028CE18A
:1016A00097E00E947507161617061806190674F4B7
:1016B0008CE197E00E9475076539774081059105B7
:1016C00074F00C9439088FEF9FEFDECF8CE197E038
:1016D0000E9475076C36784F8F4F9F4F94F34AE9FD
:1016E00059E969E17EE388E197E00E941C060E94C7
:1016F000E70923ED3FE64FE15EE30E94AC16AB0144
:10170000BC0186E197E00E941C06C9CF80917C0253
:1017100090917D028230910509F451C0209101021F
:1017200030910202280F391F3093020220930102E8
:10173000892B49F4809103029091040201969093C1
:101740000402809303028CE197E00E94750716164D
:10175000170618061906CCF58CE197E00E9475076C
:1017600065387C41810591050CF04AC06091730297
:1017700070917402072E000C880B990B0E9458156B
:1017800020E030E54DEC55E40E94511518164CF15F
:1017900040E050E060E87EEB88E197E00E941C06A4
:1017A0000E94E70920E030E040E85EE30E94AC16CA
:1017B000AB01BC0186E197E00E941C06C4CF80917A
:1017C0000302909104020197BACF8CE197E00E9446
:1017D000750790958095709561957F4F8F4F9F4FBE
:1017E000BFCF4DEC5CEC6CEC7DEB88E197E00E94A8
:1017F0001C060E94E7092DEC3CEC4CEC5DE3D6CFD7
:101800000C94390885ED8093BC0080911B03909166
:101810001C03A0911D03B0911E030796A11DB11DCD
:1018200023E0B695A795979587952A95D1F72091AE
:10183000BC0024FD03C010921903089540911B03BE
:1018400050911C0360911D0370911E03452B462B84
:10185000472B69F30097A105B10541F025E32A95CF
:10186000F1F700000197A109B109E1CF80911A03B6
:101870000C942F031F920F920FB60F9211240F900A
:101880000FBE0F901F9018951F920F920FB60F92D8
:1018900011240BB60F922F933F934F935F936F9347
:1018A0007F938F939F93AF93BF93EF93FF93809119
:1018B000B900887F803609F44DC008F040C08832F6
:1018C00009F4A9C028F5803109F49DC0C8F4882323
:1018D00009F4FBC0883009F496C0FF91EF91BF91E5
:1018E000AF919F918F917F916F915F914F913F91B8
:1018F0002F910F900BBE0F900FBE0F901F90189559
:10190000883109F488C0803241F78093170314C0EE
:10191000803409F49DC040F48033B9F38833E9F68C
:101920008093170385ECB0C0803509F485C08835F5
:1019300009F496C0883489F60E94020CCECF88390B
:1019400009F48CC038F5883729F050F4883611F046
:10195000803719F683E0809319031092F00257C084
:10196000883809F47BC0803919F0803809F0B5CF88
:101970008091F002803208F071C0E091F00281E0C5
:101980008E0F8093F0028091BB00F0E0E053FD4F9A
:1019900080833DC0803B39F0E0F4803A09F479C09F
:1019A000883A09F09ACF84E0809319031092CD020F
:1019B0001092CC02E091CA02F091CB02199580916D
:1019C000CC0281110FC081E08093CC021092AA0258
:1019D00009C0803C09F4A6CF883C09F4A3CF883B1A
:1019E00009F07BCFE091CD0281E08E0F8093CD0294
:1019F000F0E0E655FD4F80818093BB009091CD02D1
:101A00008091CC0229C08091F4028093BB0085ECC8
:101A10008093BC0062CF90911603809115039817B4
:101A200058F5E091160381E08E0F80931603F0E0E5
:101A3000EB50FD4F8081E9CFE091160381E08E0FDE
:101A4000809316038091BB00F0E0EB50FD4F808344
:101A500090911603809115039817C8F285E8D8CFA6
:101A6000E091160381E08E0F809316038091BB00F6
:101A7000F0E0EB50FD4F80838091180381115CCF23
:101A800081E08093F30284EA8093BC0010921903F2
:101A900024CF85EC8093BC00109219038091F00252
:101AA000803230F4E091F002F0E0E053FD4F10821C
:101AB0006091F00270E0E091CE02F091CF0280EDF3
:101AC00092E019951092F00208CF1092170334CFCC
:101AD0001F920F920FB60F9211242F933F938F9363
:101AE0009F93AF93BF9380917F0290918002A091CA
:101AF0008102B091820230917E0223E0230F2D37C4
:101B000058F50196A11DB11D20937E0280937F029E
:101B100090938002A0938102B0938202809183020D
:101B200090918402A0918502B09186020196A11D38
:101B3000B11D8093830290938402A0938502B09399
:101B40008602BF91AF919F918F913F912F910F90FE
:101B50000FBE0F901F90189526E8230F0296A11D27
:101B6000B11DD2CF1F920F920FB60F9211240BB658
:101B70000F922F933F934F935F936F937F938F9326
:101B80009F93AF93BF93EF93FF93809177029091D0
:101B90007802A0917902B0917A02892B8A2B8B2B43
:101BA000D1F1909176028091000089278093000006
:101BB0008091770290917802A0917902B0917A0297
:101BC000181619061A061B069CF48091770290914C
:101BD0007802A0917902B0917A020197A109B10926
:101BE0008093770290937802A0937902B0937A025F
:101BF000FF91EF91BF91AF919F918F917F916F91E5
:101C00005F914F913F912F910F900BBE0F900FBEA0
:101C10000F901F90189580910002ECEBF1E0E49199
:101C20009FEF90930002E230E9F040F4EE2389F058
:101C3000E13091F060E00E94E302DACFE43049F154
:101C400010F1E530B9F7909173009D7F9093730088
:101C5000F1CF10926E00EECF90916F009D7F909328
:101C60006F00E8CF909170009D7F9093700091E09D
:101C70009093B0009091B100987F94609093B100E0
:101C80001092B300D7CF909171009D7F9093710017
:101C9000D1CF909172009D7F90937200CBCF1F9215
:101CA0000F920FB60F9211240BB60F922F933F9302
:101CB0004F935F936F937F938F939F93AF93BF9354
:101CC000EF93FF938FE493E00E946505FF91EF91FE
:101CD000BF91AF919F918F917F916F915F914F9144
:101CE0003F912F910F900BBE0F900FBE0F901F9042
:101CF00018951F920F920FB60F9211240BB60F92E8
:101D00002F933F934F935F936F937F938F939F9303
:101D1000AF93BF93EF93FF938FE493E00E94F1049E
:101D2000FF91EF91BF91AF919F918F917F916F91B3
:101D30005F914F913F912F910F900BBE0F900FBE6F
:101D40000F901F9018951F920F920FB60F921124AB
:101D50000BB60F922F933F934F935F936F937F93A5
:101D60008F939F93AF93BF93EF93FF938CEE93E08A
:101D70000E946505FF91EF91BF91AF919F918F9167
:101D80007F916F915F914F913F912F910F900BBE7B
:101D90000F900FBE0F901F9018951F920F920FB6C5
:101DA0000F9211240BB60F922F933F934F935F9393
:101DB0006F937F938F939F93AF93BF93EF93FF9313
:101DC0008CEE93E00E94F104FF91EF91BF91AF91EF
:101DD0009F918F917F916F915F914F913F912F9143
:101DE0000F900BBE0F900FBE0F901F9018951F9273
:101DF0000F920FB60F9211240BB60F922F933F93B1
:101E00004F935F936F937F938F939F93AF93BF9302
:101E1000EF93FF9389E894E00E946505FF91EF91AD
:101E2000BF91AF919F918F917F916F915F914F91F2
:101E30003F912F910F900BBE0F900FBE0F901F90F0
:101E400018951F920F920FB60F9211240BB60F9296
:101E50002F933F934F935F936F937F938F939F93B2
:101E6000AF93BF93EF93FF9389E894E00E94F1044E
:101E7000FF91EF91BF91AF919F918F917F916F9162
:101E80005F914F913F912F910F900BBE0F900FBE1E
:101E90000F901F9018951F920F920FB60F9211245A
:101EA0000BB60F922F933F934F935F936F937F9354
:101EB0008F939F93AF93BF93EF93FF9380912705E9
:101EC0000E94BA0220912B0530912C052F5F3F4FC5
:101ED00030932C0520932B0590912A05953618F008
:101EE00096E09093260590912605943009F466C0FB
:101EF000B8F49230F1F0933009F444C09091290580
:101F0000992309F46BC081117CC080912805882336
:101F100009F463C08091280561E00E94E3025EC07D
:101F2000953009F457C0963049F791E09093F70542
:101F30004FC08111E3CF20912B0530912C05243621
:101F4000310528F410922C0510922B05D7CF109252
:101F5000F70510922A05E0912A0591E09E0F9093D3
:101F60002A05F0E020912B0530912C05EE0FFF1F84
:101F7000EA5DFA4F3087278310922C0510922B05CB
:101F800093E019C0813009F0B9CFE0912A0591E0C2
:101F90009E0F90932A05F0E020912B0530912C059F
:101FA000EE0FFF1FEA5DFA4F3087278310922C0552
:101FB00010922B0594E090932605A0CF882359F228
:101FC00020912B0530912C052536310508F496CF4C
:101FD00095E0F1CF811192CFB5CF2F9AFF91EF917C
:101FE000BF91AF919F918F917F916F915F914F9131
:101FF0003F912F910F900BBE0F900FBE0F901F902F
:10200000189580912805882321F08091280560E0AB
:1020100084CF2F98E3CF1F920F920FB60F92112407
:102020000BB60F922F933F934F935F936F937F93D2
:102030008F939F93AF93BF93CF93DF93EF93FF93D0
:1020400080917502C0913406D0E087FF23C01092C2
:10205000850010928400809175028F5F80937502D5
:1020600080917502082E000C990B8C179D0724F4A3
:10207000809175028C3074F180918400909185007C
:1020800084349C4908F465C0809184009091850057
:10209000049661C080917502082E000C990B8C1774
:1020A0009D07CCF63091750225E03203F001112432
:1020B000E850FA4F808186FFCECF3091750232030F
:1020C000F0011124E850FA4F808160E08F730E9484
:1020D000E302C1CF80918400909185003091750218
:1020E00025E03203F0011124E850FA4F418152817A
:1020F000840F951F9093890080938800309175021A
:102100003203F0011124E850FA4F808186FF0CC0A1
:10211000309175023203F0011124E850FA4F8081AA
:1021200061E08F730E94E302FF91EF91DF91CF9105
:10213000BF91AF919F918F917F916F915F914F91DF
:102140003F912F910F900BBE0F900FBE0F901F90DD
:10215000189580E49CE990938900809388008FEF24
:1021600080937502E1CF109246031092450388EEEA
:1021700093E0A0E0B0E08093470390934803A093DE
:102180004903B0934A0327E132E03093440320939C
:102190004303109252031092510380935303909380
:1021A0005403A0935503B093560329E232E03093D1
:1021B000500320934F0345E351E050935C03409359
:1021C0005B0344E351E050935E0340935D0340E3BF
:1021D00051E05093600340935F0341E351E050931B
:1021E00062034093610342E351E0509364034093E0
:1021F000630346E351E050936603409365031092F6
:1022000068031092690310926A0310926B03109294
:10221000EF031092EE038093F0039093F103A093E9
:10222000F203B093F3033093ED032093EC0345EDF9
:1022300050E05093F9034093F80344ED50E050937D
:10224000FB034093FA0340ED50E05093FD034093AD
:10225000FC0341ED50E05093FF034093FE0342ED39
:1022600050E0509301044093000446ED50E0509339
:102270000304409302041092050410920604109285
:1022800007041092080410928C0410928B0480931F
:102290008D0490938E04A0938F04B0939004309398
:1022A0008A042093890485EC90E0909396048093AF
:1022B000950484EC90E0909398048093970480ECCC
:1022C00090E090939A048093990481EC90E090932D
:1022D0009C0480939B0482EC90E090939E048093F6
:1022E0009D0486EC90E09093A00480939F0410924C
:1022F000A2041092A3041092A4041092A504809149
:102300000B0290910C02A0910D02B0910E028093ED
:102310001E0790931F07A0932007B0932107809179
:102320000F0290911002A0911102B09112028093BD
:10233000220790932307A0932407B093250784E0F6
:102340008093260787E0809327071092280784EB65
:102350008093290786E180932A0788E180932B07E1
:1023600087E180932C0789E180932D07E091340663
:10237000EC3008F4A9C08FEF80932E07E09134066B
:10238000EC3008F4B2C08FEF80932F078CE080937D
:10239000FD0684E28093FE0686E08093FF0685E0DA
:1023A000809300078FE1809301078EE180930207FD
:1023B00083E28093030782E28093040785E480939D
:1023C000050784E48093060780E480930907109250
:1023D0000E0710920F07109210071092110710921B
:1023E0001207109213071092140710921507EFE3CB
:1023F000F6E08FEF9FEFDC011282138214821582C8
:10240000168217821086118683879487A587B687E0
:102410008787908BA18BB28B128611821082739664
:1024200026E0ED3FF20741F78DE090E00E94CA17E9
:10243000FC01138212828BE392E0918380831186E8
:1024400087E2848384E1828784E083871486F09323
:102450003C06E0933B0610923D0610923E0685E254
:1024600080932705109229051092360610923506A2
:10247000109238061092370610923A0610923906DA
:1024800061E070E090E080E00E94EF180097F1F1C9
:1024900090933606809335061092380610923706D0
:1024A0002091390630913A06232B11F4FC01108259
:1024B00010923A061092390665E472E08091350672
:1024C000909136060C94D91981E08E0F80933406D2
:1024D000E0932E0725E0E29FF0011124E850FA4F27
:1024E00088EB9BE09283818349CF81E08E0F8093BC
:1024F0003406E0932F0785E0E89FF0011124E850AF
:10250000FA4F88EB9BE09283818340CF8091350620
:1025100090913606009711F00E94661810923606C8
:102520001092350610923A0610923906109238062B
:10253000109237060895789484B5826084BD84B57E
:10254000816084BD85B5826085BD85B5816085BDAE
:1025500080916E00816080936E0010928100809166
:1025600081008260809381008091810081608093EE
:102570008100809180008160809380008091B10013
:1025800084608093B1008091B00081608093B0003E
:102590008091910082608093910080919100816090
:1025A0008093910080919000816080939000809151
:1025B000A10082608093A1008091A100816080933E
:1025C000A1008091A00081608093A00080912101F2
:1025D000826080932101809121018160809321019B
:1025E0008091200181608093200180917A00846035
:1025F00080937A0080917A00826080937A00809143
:102600007A00816080937A0080917A00806880935C
:102610007A001092C100E0919904F0919A0482E04E
:102620008083E0919504F09196041082E0919704E4
:10263000F09198048FEC80831092A104E0919D04A6
:10264000F0919E0486E08083E0919B04F0919C04CD
:10265000808180618083E0919B04F0919C04808163
:1026600088608083E0919B04F0919C048081806865
:102670008083E0919B04F0919C0480818F7D808316
:1026800061E08091FE060E94500360E08091FE06AA
:102690000E94E30260E08091FD060E94500383E403
:1026A00093E090930807809307071092A802109276
:1026B000A70210922003109242030E9411038BEC98
:1026C00091E09093CB028093CA028CEC91E09093BE
:1026D000CF028093CE0280E090E1A0E0B0E0809352
:1026E0000A0790930B07A0930C07B0930D078AE09D
:1026F00090E0A0E0B0E080930E0790930F07A093C6
:102700001007B093110780E090E0A0E0B0E4809360
:10271000120790931307A0931407B093150760E076
:1027200070E185E00E948D046FE979E380E00E940A
:102730008D040FEF16E0CDEFD6E050E4A52E52E069
:10274000B52E66E8862E62E0962E7BECE72E77E0CB
:10275000F72EF801928181918F01898F9A8F61E024
:102760000E94500361E08A8D0E9450036E01FDE1DA
:10277000CF0ED11CF801958183818D8F9E8F61E0F2
:102780000E94500360E08E8D0E94500361E08D8DA9
:102790000E94E3027FB6F89480917B02811125C0EC
:1027A000F5018491F4019491E82FF0E0EE0FFF1F02
:1027B000E354FE4FA591B4918C91982321F461E0EC
:1027C00085E30E94E30261E085E30E9450038CB53B
:1027D00080618CBD8CB580648CBD61E084E30E9417
:1027E000500361E083E30E94500380917B028F5F7E
:1027F00080937B027FBEC7010197F1F760E08D8D6A
:102800000E94E30288E80E94430783E00E94430796
:1028100061E08D8D0E94E302C7010197F1F7C601C7
:102820000E944A072296F7E0C130DF0709F091CFF6
:1028300002E217E0CEE1D7E060E0F80181918F017C
:102840000E945003F7E006321F07B1F782E2E82E3C
:1028500087E0F82E0EE117E095E0D92E2CE0B22E9D
:1028600032E0C32E88898C3008F043C0A88461E030
:102870008A2D0E9450038889D89EF0011124E850C7
:10288000FA4F2A2D2F739081907C922B9083138284
:1028900014826B2D0E9497168B9DA001112430E0AD
:1028A00020E0BA01620F731FD69EF001D79EF00D93
:1028B0001124E850FA4F908196FD12C02F5F3F4FD0
:1028C0002C30310571F781110BC010928000C0923D
:1028D00081001092850010928400C6BAC0926F00E9
:1028E000E889DE9EF0011124E850FA4F808180646F
:1028F00080839E858C85F801828B938B60E00E949B
:10290000500361E0F80183890E94500360E0F80100
:1029100083890E94E30221960E5F1F4FE016F106A5
:1029200009F0A0CFF8941092200189E08093210152
:1029300080E293E090932901809328011092250171
:1029400010922401C2E0C09373007894C0932605CE
:1029500010922A058091270560E00E94500360E0F4
:1029600084E00E94500360E085E00E94500360E034
:1029700080E30E94500360E081E30E945003E091F5
:102980009904F0919A04C083E0919504F091960423
:102990001082E0919704F091980480E18083109276
:1029A000A104E0919D04F0919E0486E08083E09173
:1029B0009B04F0919C04808180618083E0919B0462
:1029C000F0919C04808188608083E0919B04F09169
:1029D0009C04808180688083E0919B04F0919C043A
:1029E00080818F7D8083809125070E94BA02892B88
:1029F000D1F38CE197E00E944A078AE197E00E94B8
:102A00004A0780910302909104020A97A9F08091ED
:102A100001029091020282309105D1F0833091053C
:102A200031F1019749F4C0917C02D0917D02CF3FF2
:102A3000DC0729F40E943C0B0E94F705E2CF0E94BC
:102A4000F207882311F0CD2BA9F30E94860BF4CF57
:102A50000E94F2078823C9F30E943C0B0E94F207F0
:102A6000882399F30E94F10A0E94F10AEECFC091E7
:102A70007C02D0917D02C130D10519F40E94F10A87
:102A8000DBCF0E94F207882301F3CD2BF1F6F6CFBE
:102A90008091350690913606009711F00C946618D7
:102AA00008950E94931508F481E00895E89409C000
:102AB00097FB3EF490958095709561957F4F8F4F71
:102AC0009F4F9923A9F0F92F96E9BB279395F69587
:102AD000879577956795B795F111F8CFFAF4BB0F05
:102AE00011F460FF1BC06F5F7F4F8F4F9F4F16C069
:102AF000882311F096E911C0772321F09EE8872FF3
:102B0000762F05C0662371F096E8862F70E060E0AE
:102B10002AF09A95660F771F881FDAF7880F969527
:102B2000879597F90895990F0008550FAA0BE0E8CB
:102B3000FEEF16161706E807F907C0F0121613067F
:102B4000E407F50798F0621B730B840B950B39F4BF
:102B50000A2661F0232B242B252B21F408950A2625
:102B600009F4A140A6958FEF811D811D08950E9453
:102B7000CA150C943B160E942D1638F00E9434168C
:102B800020F0952311F00C9424160C942A1611248D
:102B90000C946F160E944C1670F3959FC1F3950F1D
:102BA00050E0551F629FF001729FBB27F00DB11DD1
:102BB000639FAA27F00DB11DAA1F649F6627B00D61
:102BC000A11D661F829F2227B00DA11D621F739F4A
:102BD000B00DA11D621F839FA00D611D221F749F58
:102BE0003327A00D611D231F849F600D211D822F9F
:102BF000762F6A2F11249F5750409AF0F1F08823C6
:102C00004AF0EE0FFF1FBB1F661F771F881F9150F2
:102C10005040A9F79E3F510580F00C9424160C9467
:102C20006F165F3FE4F3983ED4F3869577956795EA
:102C3000B795F795E7959F5FC1F7FE2B880F911D1C
:102C40009695879597F9089597F99F6780E870E0C2
:102C500060E008959FEF80EC089500240A94161612
:102C6000170618060906089500240A94121613067A
:102C7000140605060895092E0394000C11F4882308
:102C800052F0BB0F40F4BF2B11F460FF04C06F5F24
:102C90007F4F8F4F9F4F089557FD9058440F551FFA
:102CA00059F05F3F71F04795880F97FB991F61F0CE
:102CB0009F3F79F087950895121613061406551F45
:102CC000F2CF4695F1DF08C0161617061806991FB1
:102CD000F1CF86957105610508940895E894BB27A6
:102CE00066277727CB0197F90895A1E21A2EAA1B30
:102CF000BB1BFD010DC0AA1FBB1FEE1FFF1FA217AC
:102D0000B307E407F50720F0A21BB30BE40BF50BA8
:102D1000661F771F881F991F1A9469F76095709531
:102D2000809590959B01AC01BD01CF010895991B41
:102D300079E004C0991F961708F0961B881F7A95B2
:102D4000C9F780950895EE0FFF1F881F8BBF07906E
:102D5000F691E02D19945058BB27AA270E94C3165C
:102D60000C943B160E942D1638F00E94341620F069
:102D700039F49F3F19F426F40C942A160EF4E095CA
:102D8000E7FB0C942416E92F0E944C1658F3BA174F
:102D9000620773078407950720F079F4A6F50C9471
:102DA0006E160EF4E0950B2EBA2FA02D0B01B90173
:102DB00090010C01CA01A0011124FF27591B99F0B1
:102DC000593F50F4503E68F11A16F040A22F232FBD
:102DD000342F4427585FF3CF469537952795A7950D
:102DE000F0405395C9F77EF41F16BA0B620B730BB4
:102DF000840BBAF09150A1F0FF0FBB1F661F771F25
:102E0000881FC2F70EC0BA0F621F731F841F48F4D9
:102E1000879577956795B795F7959E3F08F0B0CF62
:102E20009395880F08F09927EE0F97958795089549
:102E30000E942C170C943B160E94341658F00E94E6
:102E40002D1640F029F45F3F29F00C9424165111FF
:102E50000C946F160C942A160E944C1668F3992352
:102E6000B1F3552391F3951B550BBB27AA27621786
:102E70007307840738F09F5F5F4F220F331F441F93
:102E8000AA1FA9F335D00E2E3AF0E0E832D09150C7
:102E90005040E695001CCAF72BD0FE2F29D0660FB4
:102EA000771F881FBB1F261737074807AB07B0E8F7
:102EB00009F0BB0B802DBF01FF2793585F4F3AF0FD
:102EC0009E3F510578F00C9424160C946F165F3FCA
:102ED000E4F3983ED4F3869577956795B795F79583
:102EE0009F5FC9F7880F911D9695879597F908956B
:102EF000E1E0660F771F881FBB1F62177307840707
:102F0000BA0720F0621B730B840BBA0BEE1F88F715
:102F1000E09508950E9491176894B1110C946F1672
:102F200008950E94541688F09F5798F0B92F99275A
:102F3000B751B0F0E1F0660F771F881F991F1AF0A4
:102F4000BA95C9F714C0B13091F00E946E16B1E085
:102F500008950C946E16672F782F8827B85F39F084
:102F6000B93FCCF3869577956795B395D9F73EF43D
:102F700090958095709561957F4F8F4F9F4F0895E5
:102F80000E94931508F48FEF08950E949315880B03
:102F9000990B08950F931F93CF93DF938230910580
:102FA00010F482E090E0E0913607F091370730E0CE
:102FB00020E0B0E0A0E0309799F42115310509F444
:102FC0004AC0281B390B24303105D8F58A819B81F2
:102FD0006115710589F1FB0193838283FE0111C0A4
:102FE000408151810281138148175907E0F0481749
:102FF000590799F4109761F012960C931297139653
:103000001C933296CF01DF91CF911F910F910895BC
:103010000093360710933707F4CF2115310551F08F
:103020004217530738F0A901DB019A01BD01DF0106
:10303000F801C1CFEF01F9CF90933707809336079E
:10304000CDCFFE01E20FF31F8193919322503109FE
:1030500039832883D7CF2091340730913507232B2C
:1030600041F42091070230910802309335072093F4
:10307000340720910502309106022115310541F4F3
:103080002DB73EB74091090250910A02241B350B1F
:10309000E0913407F0913507E217F307A0F42E1BF7
:1030A0003F0B2817390778F0AC014E5F5F4F2417AC
:1030B000350748F04E0F5F1F509335074093340794
:1030C000819391939FCFF0E0E0E09CCFCF93DF938B
:1030D0000097E9F0FC01329713821282A091360723
:1030E000B0913707ED0130E020E01097A1F4208186
:1030F0003181820F931F20913407309135072817B3
:10310000390709F061C0F0933507E0933407DF9188
:10311000CF910895EA01CE17DF07E8F54A815B8178
:103120009E0141155105B1F7E901FB83EA834991FD
:103130005991C40FD51FEC17FD0761F4808191816F
:103140000296840F951FE901998388838281938178
:103150009B838A83F0E0E0E012968D919C91139717
:103160000097B9F52D913C911197CD010296820FF0
:10317000931F20913407309135072817390739F606
:10318000309751F51092370710923607B0933507F4
:10319000A0933407BCCFD383C28340815181840F75
:1031A000951FC817D90761F44E5F5F4F88819981D9
:1031B000480F591F518340838A819B819383828367
:1031C0002115310509F0B0CFF0933707E0933607AA
:1031D0009ECFFD01DC01C0CF13821282D7CF4F9268
:1031E0005F926F927F928F929F92AF92BF92CF9297
:1031F000DF92EF92FF920F931F93CF93DF938C0197
:10320000009799F4CB01DF91CF911F910F91FF901F
:10321000EF90DF90CF90BF90AF909F908F907F9076
:103220006F905F904F900C94CA17FC01E60FF71F48
:103230009C0122503109E217F30708F4AEC0D9010E
:10324000CD91DC911197C617D70720F1C530D10574
:1032500078F0CE0104978617970750F0C61BD70B5E
:103260002297C193D1936D937C93CF010E946618EE
:10327000C801DF91CF911F910F91FF90EF90DF90E8
:10328000CF90BF90AF909F908F907F906F905F9006
:103290004F9008955B01AC1ABD0A4C018C0E9D1E27
:1032A000A0913607B0913707512C412CF12CE12C1D
:1032B000109731F58091340790913507881599055D
:1032C00009F05CC04616570608F058C08091050208
:1032D00090910602009741F48DB79EB74091090284
:1032E00050910A02841B950BE817F90708F055C0A6
:1032F000F0933507E0933407F90171836083B8CF09
:103300008D919C91119712966C90129713967C90C8
:103310001397A815B90559F56C0142E0C40ED11CEC
:10332000CA14DB0420F1AC014A195B09DA011296D8
:10333000159780F06282738251834083D9016D9327
:103340007C93E114F10471F0D7011396FC93EE9392
:1033500012978ECF22968C0F9D1FF9019183808347
:10336000F301EFCFF0933707E093360781CF48168C
:10337000590608F42C017D01D3019ACFCB010E949C
:10338000CA177C01009749F0AE01B8010E94D0191C
:10339000C8010E94661887016BCF10E000E068CF7B
:1033A000FB01DC0102C001900D9241505040D8F762
:1033B0000895FB01DC0101900D920020E1F70895D2
:1033C00011E0C0E7D1E000E006C0802FFE010E94BE
:1033D000A3162196011DC137D10780E00807A9F780
:0433E000F894FFCF8F
:1033E400FF02000100000038078000363738391B1F
:1033F4001D1A1C000000002402F701EF07CD01F0A4
:1034040001DD01CE01000000008705C4040A05D4D3
:10341400053B0519052D05000000001508C404EF3F
:1034240007EE070D0A006E616E00696E66006F7626
:02343400660030
:00000001FF
