:100000000C9471010C94A2010C94A2010C94A20115
:100010000C94A2010C94A2010C94A2010C94A201D4
:100020000C94A2010C94500C0C94500C0C94500C99
:100030000C94A2010C94C80D0C94A2010C94A20182
:100040000C94A2010C9421100C94A2010C94A20116
:100050000C94A2010C94A2010C94A2010C947E0DAC
:100060000C94A2010C94370F0C940D0F0C94A20168
:100070000C94A2010C94A2010C94A2010C94A20174
:100080000C94A2010C94A2010C94A2010C94A20164
:100090000C94A2010C94A2010C94A2010C945A0C91
:1000A0000C94A2010C94A2010C94A2010C94A20144
:1000B0000C94A2010C94A2010C94A2010C94610F67
:1000C0000C94A2010C94A2010C94A2010C94E30ED6
:1000D0000C94B90E0C94A2010C948F0E0C94650E26
:1000E0000C94A2010C94F7060C94CD060C94DD013F
:1000F0000C9496020C949A020C949E020C94A80202
:100100000C94B9050C9477020C9467150C943E0777
:100110000C945F050C9447080C9425070C947B0203
:100120000C9424020C947F020C942F070C948602EA
:100130000C944B050C94F7010C94B1020C94F6044A
:100140000C94E3060C9401070C9452070C948C0257
:100150000C94AC020C9471020C94C9100C942108FC
:100160000C9411070C9466070C94A4020C94900252
:100170000C9420080C94F0010C94B2020C944807E3
:100180000C94CD010C94CB010C946D050C9483025E
:100190000C943C050C94DE060C945C070C947007E0
:1001A0000C94B6020C9406060C94CC010C9409072E
:1001B0000C94ED060C941B070C94CE010200002158
:1001C00000240027002A002D003000330001010028
:1001D00000040107010A0100002200250028002B6D
:1001E000002E003100340002010000050108010B5F
:1001F00001000020002300260029002C002F0032DF
:1002000000000100000301060109010505050507BD
:100210000508080808020202020A0A080804040481
:1002200004010101010101010103030303030303AD
:1002300003040707070C0C0C0C0C0C0C0C0202023C
:100240000206060606060606060B0B0B0B0B0B0B2F
:100250000B010210202008081020401020408002CE
:1002600001020108040201010204081020408080FC
:100270004020100804020180040201804020100880
:100280000402010804020101020408102040800158
:100290000204081020408000000A0B02090C0D0E19
:1002A0000807030401000000000000000000000037
:1002B000000000000000000000000000000000003E
:1002C00000000012111000000000000000000000FB
:1002D0000000000000000000000000000000C91045
:1002E000671511241FBECFEFD1E2DEBFCDBF00E006
:1002F0000CBF12E0A0E0B2E0E2E7F3E300E00BBFE6
:1003000002C007900D92A434B107D9F727E0A4E406
:10031000B2E001C01D92A033B207E1F711E0C0E7DF
:10032000D1E000E006C021970109802FFE010E9464
:10033000E116CF36D10780E00807A9F70E94B11275
:100340000C94A7190C9400002091C402260F3327A7
:10035000331F21323105ECF420911103FC0190E0B0
:1003600080E0243069F082E00895A091C4022191D8
:10037000AC014E555D4FA40FB52FB11D2C930196C6
:10038000861798F38091C402680F6093C40280E0DE
:10039000089581E00895089508950895E091A002D8
:1003A00080919F02E81730F4F0E0E158FD4F808122
:1003B00090E008958FEF9FEF08959091A0028091B3
:1003C0009F022FEF3FEF981748F4E92FF0E0E15834
:1003D000FD4F208130E09F5F9093A002C9010895F6
:1003E00080919F029091A002891B990B0895CF9252
:1003F000DF92EF92FF920F931F93CF93DF937C01D5
:10040000CB018A0120911703222389F0EB016B01B4
:10041000C40ED51ECC15DD0569F06991D701ED91AB
:10042000FC910190F081E02DC7011995F3CF642F65
:100430000E94A401C801DF91CF911F910F91FF90FD
:10044000EF90DF90CF900895CF93DF931F92CDB7B9
:10045000DEB76983209117032223F9F020913A0334
:10046000203258F021E030E0FC013383228390E019
:1004700080E00F90DF91CF91089580911803E82FCD
:10048000F0E0E75EFC4F998190838F5F80931803C3
:1004900080933A0381E090E0ECCF61E0CE010196D9
:1004A0000E94A401F7CF8150823108F05AC0E82F92
:1004B000F0E08827E15AFD4F8F4F0C94E1167F0240
:1004C0008302710277027B02B10286028C029002E3
:1004D00096029A029E02A402A802B102AC02B202E3
:1004E000B602809180008F7780938000089580917C
:1004F00080008F7DF9CF80918000877FF5CF84B514
:100500008F7784BD089584B58F7DFBCF8091B00037
:100510008F778093B00008958091B0008F7DF9CFE0
:10052000809190008F778093900008958091900043
:100530008F7DF9CF80919000877FF5CF8091A000CB
:100540008F778093A00008958091A0008F7DF9CFD0
:100550008091A000877FF5CF809120018F778093D5
:1005600020010895809120018F7DF9CF8091200195
:10057000877FF5CFCF93DF93282F30E0F901E9563D
:10058000FD4F8491F901EF5AFD4FD491F901E55FD8
:10059000FD4FC491CC23A1F081110E945302EC2F96
:1005A000F0E0EE0FFF1FEF50FE4FA591B491EC91DC
:1005B000ED2381E090E009F480E0DF91CF91089590
:1005C00080E090E0FACF1F93CF93DF93282F30E0A5
:1005D000F901E956FD4F8491F901EF5AFD4FD4918D
:1005E000F901E55FFD4FC491CC23A9F0162F8111CD
:1005F0000E945302EC2FF0E0EE0FFF1FE952FE4F76
:10060000A591B4918FB7F894EC91111108C0D095D1
:10061000DE23DC938FBFDF91CF911F910895DE2BF6
:10062000F8CF1092110381E0809310031092EB0237
:1006300061E084E10E94E30261E085E10E94E3025F
:10064000E9EBF0E080818E7F808380818D7F8083E5
:1006500088E48093B80085E48093BC000895CF932C
:10066000DF9391E09093A1028823B9F0C091B80084
:10067000D091BA008091BC008A7B8093BC0060E07E
:1006800084E10E94E30260E085E10E94E3020E94AF
:100690001103D093BA00C093B800DF91CF910895B1
:1006A000CF93DF9390E0FC01EF5AFD4F2491855FDB
:1006B0009D4FFC0184918823D1F090E0880F991F11
:1006C000FC01E354FE4FA591B491FC01E952FE4FA9
:1006D000C591D49161110EC09FB7F8948C91E22F0F
:1006E000E0958E238C932881E223E8839FBFDF91DE
:1006F000CF9108958FB7F894EC91E22BEC938FBFD4
:10070000F6CF3FB7F89480917B0290917C02A09144
:100710007D02B0917E0226B5A89B05C02F3F19F03F
:100720000196A11DB11D3FBFBA2FA92F982F882771
:10073000BC01CD01620F711D811D911D42E0660F4C
:10074000771F881F991F4A95D1F70895CF92DF929E
:10075000EF92FF920F931F93CF93DF93D0913A03C1
:1007600081E0D13208F09CC0C09139030E9481031E
:100770006B017C018091110381116CC082E0809338
:10078000110381E0809310038FEF80930F03109289
:100790000E03D0930D03A9E1B3E0EDEEF2E080E0AB
:1007A000D8138DC01092EC028091EC02CC0FC82BB4
:1007B000C093EC028091EB02813009F084C010926A
:1007C000EB020E9481036B017C018091EC0280931B
:1007D000BB008091130390911403A0911503B09175
:1007E0001603892B8A2B8B2BA1F00E948103009189
:1007F00013031091140320911503309116036C1903
:100800007D098E099F09061717072807390708F47D
:1008100042C08091BC0083FDD8CF85EC8093BC00A2
:100820000E9481036B017C0180911103823009F4E5
:100830004CC080910F038F3F09F469C080910F0372
:10084000803209F466C080910F03803309F463C0DD
:1008500084E026C08091130390911403A0911503A6
:10086000B0911603892B8A2B8B2B09F483CF0E941E
:10087000810300911303109114032091150330910B
:1008800016036C197D098E099F090617170728079B
:10089000390708F06FCF809112030E942F0385E083
:1008A0001092180310923A0310921703DF91CF9120
:1008B0001F910F91FF90EF90DF90CF9008959D9141
:1008C00091938F5F6DCF85EEA9CF809113039091A7
:1008D0001403A0911503B0911603892B8A2B8B2B3F
:1008E00009F4A2CF0E948103009113031091140315
:1008F00020911503309116036C197D098E099F090B
:10090000061717072807390708F08ECFC4CF80E0F5
:10091000C7CF82E0C5CF83E0C3CF0F931F93CF93A0
:10092000DF93162F072FC5EFD6E0AA85BB859C85E0
:1009300021E020931703909339031092180310922B
:100940003A03ED91FC9111970190F081E02D682F11
:10095000CD0119958A859B85DC01ED91FC91019073
:10096000F081E02D602F19958A859B85DC01ED9142
:10097000FC910190F081E02D612F1995DF91CF91CD
:100980001F910F910C94A6038F929F92AF92BF92EA
:10099000CF92DF92EF92FF924B015C010E948103A4
:1009A0006B017C010E9481036C197D098E099F09EE
:1009B000683E734081059105A8F321E0821A9108F1
:1009C000A108B10888EEC80E83E0D81EE11CF11C16
:1009D00081149104A104B10429F7FF90EF90DF90F6
:1009E000CF90BF90AF909F908F900895AF92BF929D
:1009F000CF92DF92EF92FF920F931F93CF93DF93EB
:100A00006C017B018B01040F151FEB015E01AE1819
:100A1000BF08C017D10759F06991D601ED91FC913B
:100A20000190F081E02DC6011995892B79F7C50158
:100A3000DF91CF911F910F91FF90EF90DF90CF90BA
:100A4000BF90AF900895FC01A089B1898C91A689CF
:100A5000B78982FD0FC09C91818D8F5F8F73228D2E
:100A6000821749F0A18DAE0FBF2FB11D5D969C93EB
:100A7000818F08958C910895FC01538D448D252F0D
:100A800030E0842F90E0821B930B541710F0CF9628
:100A9000089501970895FC01918D828D981761F05A
:100AA000A28DAE0FBF2FB11D5D968C91928D9F5F71
:100AB0009F73928F90E008958FEF9FEF0895FC0150
:100AC000918D828D981731F0828DE80FF11D858D03
:100AD00090E008958FEF9FEF0895FC01918D228D96
:100AE000892F90E0805C9F4F821B91098F7399271B
:100AF000089587E493E00E946D0521E0892B09F4B5
:100B000020E0822F089584EE93E00E946D0521E09D
:100B1000892B09F420E0822F089581E894E00E9457
:100B20006D0521E0892B09F420E0822F0895FC0156
:100B3000A48DA80FB92FB11DA35ABF4F2C91848D3E
:100B400090E001968F739927848FA689B7892C939B
:100B5000A089B1898C91837080648C93938D848DEE
:100B6000981306C00288F389E02D80818F7D8083F1
:100B70000895EF92FF920F931F93CF93DF93EC01B1
:100B800081E0888F9B8D8C8D98131AC0E889F98934
:100B9000808185FF15C09FB7F894EE89FF89608337
:100BA000E889F98980818370806480839FBF81E0B8
:100BB00090E0DF91CF911F910F91FF90EF900895FA
:100BC000F62E0B8D10E00F5F1F4F0F731127E02ED5
:100BD0008C8D8E110CC00FB607FCFACFE889F9890D
:100BE000808185FFF5CFCE010E949705F1CFEB8D77
:100BF000EC0FFD2FF11DE35AFF4FF0829FB7F894E1
:100C00000B8FEA89FB8980818062CFCFCF93DF93FE
:100C1000EC01888D8823B9F0AA89BB89E889F98914
:100C20008C9185FD03C0808186FD0DC00FB607FC49
:100C3000F7CF8C9185FFF2CF808185FFEDCFCE017C
:100C40000E949705E9CFDF91CF910895F0E0E0E0B1
:100C5000199480E090E0892B29F00E948D05811184
:100C60000E94000080E090E0892B49F080E090E055
:100C7000892B29F00E94000081110E9400000E942F
:100C8000830581110E94260680E090E0892B29F0DF
:100C90000E94790581110C94000008958F929F9213
:100CA000AF92BF92CF92DF92EF92FF920F931F937A
:100CB000CF93DF93EC016A017B0120E030E04FE746
:100CC00053E4CB01B6010E94D6154B015C0120E034
:100CD00030E0A9010E948C1718168CF5C501B401EB
:100CE0000E9456178B01B98020E030E0A901C701AE
:100CF000B6010E948C1760E018160CF061E08B2D95
:100D00000E94E3020F3F110509F0ECF41127C8819E
:100D100061E08C2F0E94500301151105B9F460E0C9
:100D20008C2FDF91CF911F910F91FF90EF90DF906B
:100D3000CF90BF90AF909F908F900C94E302C5012D
:100D4000B4019058CDCF0FEF10E0E1CF0F3F110568
:100D500011F461E0E5CFEC2FF0E0E956FD4FE491AE
:100D6000E150E23108F0BCC0F0E08827E554F94FCB
:100D70008F4F0C94E116CD06DE06E306ED06F7066E
:100D800070070107090711071B0725072F073E07F3
:100D90004807700752075C07660784B5806884BD02
:100DA00007BDDF91CF911F910F91FF90EF90DF90E2
:100DB000CF90BF90AF909F908F90089584B5806240
:100DC00084BD08BDEECF8091800080688093800054
:100DD0001093890000938800E4CF809180008062A6
:100DE0008093800010938B0000938A00DACF80916B
:100DF000800088608093800010938D0000938C00A9
:100E0000D0CF8091B00080688093B0000093B30091
:100E1000C8CF8091B00080628093B0000093B4008E
:100E2000C0CF8091900080688093900010939900CB
:100E300000939800B6CF80919000806280939000DC
:100E400010939B0000939A00ACCF80919000886033
:100E50008093900010939D0000939C00A2CF8091FE
:100E6000A00080688093A0008091A0008F7B809379
:100E7000A0001093A9000093A80093CF8091A00038
:100E800080628093A0001093AB000093AA0089CFEA
:100E90008091A00088608093A0001093AD00009323
:100EA000AC007FCF80912001806880932001109357
:100EB00029010093280175CF8091200180628093E1
:100EC000200110932B0100932A016BCF8091200108
:100ED00088608093200110932D0100932C0161CF35
:100EE000003811050CF035CF1ACF8EBD00000DB4BF
:100EF00007FEFDCF8EB50895CF93DF93EC0160E040
:100F000088810E94E30288E90E94750780E00E94C0
:100F1000750780E00E94750780E00E94750780E0F9
:100F20000E94750761E088810E94E3028BE891E0EE
:100F30000197F1F760E088810E94E30280EE0E9451
:100F4000750761E08881DF91CF910C94E302AF9245
:100F5000BF92CF92DF92EF92FF920F931F93CF93A6
:100F6000DF93CDB7DEB760970FB6F894DEBF0FBE44
:100F7000CDBF6C0160E0FC0180810E94E30280E64D
:100F80000E9475079E012F5F3F4F79015E0131E19D
:100F9000A30EB11C870180E00E94750790E0B0E0CD
:100FA000A0E0F80181939193A193B1938F01EA1589
:100FB000FB0589F761E0F60180810E94E30280E091
:100FC00090E0DC01F70141915191619171917F01B4
:100FD000BA2FA92F982F8827840F951FA61FB71FF8
:100FE000E017F10779F79C01AD0166277727CB0160
:100FF000621B730B840B950B60960FB6F894DEBFE3
:101000000FBECDBFDF91CF911F910F91FF90EF9059
:10101000DF90CF90BF90AF900895FC01248131E024
:1010200030931703209339031092180310923A0358
:101030008485682B8BE393E00E9424020C94A60322
:10104000089590E080E0089580E30E94BA02892B21
:1010500031F481E30E94BA0221E0892B09F020E0FB
:10106000822F08950F931F93CF938C01C62F646036
:101070000E940D086C2F6B7FC8010E940D0883EC45
:1010800090E00197F1F7CF911F910F9108950F9381
:101090001F93CF93DF938C01C62FD62FD07FD160C3
:1010A0006D2F0E940D086D2FC8010E94320880E14B
:1010B000C89FE0011124C1606C2FC8010E940D0877
:1010C0006C2FC8010E94320881E090E0DF91CF913F
:1010D0001F910F91089540E050E060E070E880E1DA
:1010E00097E00E944E0640E050E0BA018EE097E0A3
:1010F0000E944E066AEF70E080E090E00E94C40417
:1011000084E197E00E947C0782E197E00C947C07E1
:101110008F929F92AF92BF92CF92DF92EF92FF9207
:10112000CF93DF932FB7F894609177027091780294
:101130008091790290917A022FBFC0906502D09081
:101140006602E0906702F09068026C197D098E09D2
:101150009F090E94771520E030E048E452E40E94A5
:101160008C1787FD79C084E197E00E94A7071616C7
:101170001706180619060CF082C084E197E00E9459
:10118000A707EB0182E197E00E94A70797FF80C0C5
:1011900082E197E00E94A7079095809570956195F0
:1011A0007F4F8F4F9F4FAE01461B570BBA01072E43
:1011B000000C880B990B0E9477154B015C01209164
:1011C00061023091620240916302509164020E9478
:1011D000EA166B017C01C0926102D0926202E09239
:1011E0006302F092640227EF3CEC42E958E3C50148
:1011F000B4010E94D6154B015C012CE933E549ECA2
:1012000055E3C701B6010E94D6159B01AC01C5018B
:10121000B4010E94EA1620E030E040EA51E40E9466
:10122000D61560935D0270935E0280935F02909387
:1012300060022FB7F8948091770290917802A09184
:101240007902B0917A022FBF809365029093660273
:10125000A0936702B093680260915D0270915E0294
:1012600080915F0290916002DF91CF91FF90EF90AB
:10127000DF90CF90BF90AF909F908F90089584E1C2
:1012800097E00E94A707CC27DD27C61BD70B7ACF94
:1012900082E197E00E94A7079B01AC01882799276C
:1012A000DC01821B930BA40BB50B66277727681B09
:1012B000790B79CF4F925F926F927F928F929F922C
:1012C000AF92BF92CF92DF92EF92FF928091740221
:1012D00090917502009709F055C08FEF9FEF9093A2
:1012E0007502809374028DED882E87E0982EA12CD4
:1012F000B12CC12CD12C7601C39484E197E00E94DB
:10130000A70716161706180619060CF04BC084E13D
:1013100097E00E94A7076E3D7740810591050CF08C
:10132000A2C084E197E00E94A707161617061806C8
:1013300019060CF043C084E197E00E94A7070E94C1
:1013400077152AE939EF46E954E40E94701518161A
:101350000CF440C043E353E363EB7EEB80E197E0A2
:101360000E944E060E94880823E333E343EB5EE3CA
:101370000E94EA16AB01BC0170588EE097E00E9413
:101380004E06BBCF8F3F980719F482E090E0A7CFBD
:10139000029719F481E090E0A2CF109275021092AA
:1013A0007402A1CF84E197E00E94A70790958095F1
:1013B000709561957F4F8F4F9F4FADCF84E197E040
:1013C0000E94A70790958095709561957F4F8F4FEC
:1013D0009F4FB5CF84E197E00E94A7071616170626
:1013E00018061906A4F584E197E00E94A707A50155
:1013F00094010E949416C701B601621B730B840B03
:10140000950B0E94771520E030E040E25FEB0E94F0
:10141000D6152AE939E949E35FE30E94EA162B0170
:101420003C014092690250926A0260926B02709293
:101430006C02BC01A201705880E197E00E944E0648
:101440000E9488089B01AC01C301B20191CF84E1E5
:1014500097E00E94A70790958095709561957F4FC2
:101460008F4F9F4FC4CFFF90EF90DF90CF90BF90F2
:10147000AF909F908F907F906F905F904F900C9463
:101480006B084F925F926F927F928F929F92AF9272
:10149000BF92CF92DF92EF92FF928091740290916F
:1014A0007502009709F054C081E090E090937502B6
:1014B000809374028DED882E87E0982EA12CB12C9C
:1014C000C12CD12C7601C39484E197E00E94A70738
:1014D00016161706180619060CF04AC084E197E0A4
:1014E0000E94A7076E3D7740810591050CF0A0C0D2
:1014F00084E197E00E94A70716161706180619063A
:101500000CF042C084E197E00E94A7070E94771583
:101510002AE939EF46E954E40E94701518160CF4D4
:101520003FC043E353E363EB7EE380E197E00E9437
:101530004E060E94880823E333E343EB5EE30E94F8
:10154000EA16AB01BC018EE097E00E944E06BCCFCC
:101550008F3F980729F41092750210927402AACF57
:10156000029719F48FEF9FEFA1CF82E090E09ECF1A
:1015700084E197E00E94A70790958095709561950A
:101580007F4F8F4F9F4FAECF84E197E00E94A70718
:1015900090958095709561957F4F8F4F9F4FB6CFF7
:1015A00084E197E00E94A707161617061806190689
:1015B0009CF584E197E00E94A707A50194010E9491
:1015C0009416C701B601621B730B840B950B0E9426
:1015D000771520E030E040E25FEB0E94D6152AE963
:1015E00039E949E35FE30E94EA162B013C0140928E
:1015F000690250926A0260926B0270926C02BC01A6
:10160000A20180E197E00E944E060E9488089B019B
:10161000AC01C301B20193CF84E197E00E94A70718
:1016200090958095709561957F4F8F4F9F4FC5CF57
:10163000FF90EF90DF90CF90BF90AF909F908F90F2
:101640007F906F905F904F900C946B088091740224
:10165000909175028230910509F457C020910102E2
:1016600030910202280F391F3093020220930102A9
:10167000892B49F480910302909104020196909382
:1016800004028093030284E197E00E94A7071616E4
:101690001706180619060CF03EC084E197E00E9478
:1016A000A70765357A41810591050CF0BFC084E13B
:1016B00097E00E94A7071616170618061906BCF52C
:1016C00084E197E00E94A7070E94771520E030E8A8
:1016D00048E255E40E9470151816ACF14AE959E940
:1016E00069E97EEB80E197E00E944E060E9488083F
:1016F00022E538EB4EE95EE30E94EA16AB01BC013D
:101700008EE097E00E944E06BECF8091030290913A
:1017100004020197B4CF84E197E00E94A707909557
:101720008095709561957F4F8F4F9F4FBACF84E121
:1017300097E00E94A70790958095709561957F4FDF
:101740008F4F9F4FC1CF84E197E00E94A7071616E5
:10175000170618061906ECF484E197E00E94A70723
:101760000E94771520E030E743E955E40E947015A8
:101770001816DCF04DEC5CEC6CEC7EEB80E197E055
:101780000E944E060E94880825E83BEE41ED5EE38C
:10179000B3CF84E197E00E94A7079095809570955C
:1017A00061957F4F8F4F9F4FDBCF84E197E00E9481
:1017B000A7071616170618061906ECF484E197E039
:1017C0000E94A7070E94771520E030E94DEB55E411
:1017D0000E9470151816DCF04DEC5CEC6CE47EEBAE
:1017E00080E197E00E944E060E9488082EE33AE0CE
:1017F00047E55EE381CF84E197E00E94A7079095DB
:101800008095709561957F4F8F4F9F4FDBCF4DEC4B
:101810005CEC6CEC7DEB80E197E00E944E060E9450
:1018200088082EEA37E441EE5DE366CF0C946B083E
:1018300085ED8093BC008091130390911403A091D7
:101840001503B09116030796A11DB11D23E0B695AF
:10185000A795979587952A95D1F72091BC0024FDEF
:1018600003C0109211030895409113035091140383
:101870006091150370911603452B462B472B69F396
:101880000097A105B10541F025E32A95F1F7000085
:101890000197A109B109E1CF809112030C942F03A4
:1018A0001F920F920FB60F9211240F900FBE0F9040
:1018B0001F9018951F920F920FB60F9211240BB61E
:1018C0000F922F933F934F935F936F937F938F93D9
:1018D0009F93AF93BF93EF93FF938091B900887F5D
:1018E000803609F44DC008F040C0883209F4A9C020
:1018F00028F5803109F49DC0C8F4882309F4FBC0A1
:10190000883009F496C0FF91EF91BF91AF919F91FC
:101910008F917F916F915F914F913F912F910F9098
:101920000BBE0F900FBE0F901F901895883109F4D1
:1019300088C0803241F780930F0314C0803409F4CB
:101940009DC040F48033B9F38833E9F680930F03E8
:1019500085ECB0C0803509F485C0883509F496C09F
:10196000883489F60E94180CCECF883909F48CC0CF
:1019700038F5883729F050F4883611F0803719F699
:1019800083E0809311031092E80257C0883809F46D
:101990007BC0803919F0803809F0B5CF8091E8021A
:1019A000803208F071C0E091E80281E08E0F8093F0
:1019B000E8028091BB00F0E0E853FD4F80833DC01A
:1019C000803B39F0E0F4803A09F479C0883A09F0B4
:1019D0009ACF84E0809311031092C5021092C40242
:1019E000E091C202F091C30219958091C402811165
:1019F0000FC081E08093C4021092A20209C0803C13
:101A000009F4A6CF883C09F4A3CF883B09F07BCF2B
:101A1000E091C50281E08E0F8093C502F0E0EE55A3
:101A2000FD4F80818093BB009091C5028091C402DC
:101A300029C08091EC028093BB0085EC8093BC00B0
:101A400062CF90910E0380910D03981758F5E091A5
:101A50000E0381E08E0F80930E03F0E0E351FD4F03
:101A60008081E9CFE0910E0381E08E0F80930E0319
:101A70008091BB00F0E0E351FD4F808390910E0315
:101A800080910D039817C8F285E8D8CFE0910E0336
:101A900081E08E0F80930E038091BB00F0E0E35154
:101AA000FD4F80838091100381115CCF81E0809392
:101AB000EB0284EA8093BC001092110324CF85ECE2
:101AC0008093BC00109211038091E802803230F4C0
:101AD000E091E802F0E0E853FD4F10826091E802E7
:101AE00070E0E091C602F091C70288EC92E019958F
:101AF0001092E80208CF10920F0334CF1F920F927A
:101B00000FB60F9211242F933F938F939F93AF9310
:101B1000BF938091770290917802A0917902B09161
:101B20007A023091760223E0230F2D3758F5019683
:101B3000A11DB11D209376028093770290937802C5
:101B4000A0937902B0937A0280917B0290917C02FB
:101B5000A0917D02B0917E020196A11DB11D8093DE
:101B60007B0290937C02A0937D02B0937E02BF9192
:101B7000AF919F918F913F912F910F900FBE0F903A
:101B80001F90189526E8230F0296A11DB11DD2CFF4
:101B90001F920F920FB60F9211240BB60F922F9334
:101BA0003F934F935F936F937F938F939F93AF93E5
:101BB000BF93EF93FF9380916F0290917002A09179
:101BC0007102B0917202892B8A2B8B2BD1F19091EB
:101BD0006E028091000089278093000080916F023F
:101BE00090917002A0917102B091720218161906BC
:101BF0001A061B069CF480916F0290917002A091CE
:101C00007102B09172020197A109B10980936F022C
:101C100090937002A0937102B0937202FF91EF91C2
:101C2000BF91AF919F918F917F916F915F914F91F4
:101C30003F912F910F900BBE0F900FBE0F901F90F2
:101C4000189580910002ECEBF1E0E4919FEF909306
:101C50000002E230E9F040F4EE2389F0E13091F047
:101C600060E00E94E302DACFE43049F110F1E530A0
:101C7000B9F7909173009D7F90937300F1CF10920C
:101C80006E00EECF90916F009D7F90936F00E8CF34
:101C9000909170009D7F9093700091E09093B000C0
:101CA0009091B100987F94609093B1001092B3002E
:101CB000D7CF909171009D7F90937100D1CF90917B
:101CC00072009D7F90937200CBCF1F920F920FB640
:101CD0000F9211240BB60F922F933F934F935F9364
:101CE0006F937F938F939F93AF93BF93EF93FF93E4
:101CF00087E493E00E949705FF91EF91BF91AF9128
:101D00009F918F917F916F915F914F913F912F9113
:101D10000F900BBE0F900FBE0F901F9018951F9243
:101D20000F920FB60F9211240BB60F922F933F9381
:101D30004F935F936F937F938F939F93AF93BF93D3
:101D4000EF93FF9387E493E00E942305FF91EF91C7
:101D5000BF91AF919F918F917F916F915F914F91C3
:101D60003F912F910F900BBE0F900FBE0F901F90C1
:101D700018951F920F920FB60F9211240BB60F9267
:101D80002F933F934F935F936F937F938F939F9383
:101D9000AF93BF93EF93FF9384EE93E00E94970578
:101DA000FF91EF91BF91AF919F918F917F916F9133
:101DB0005F914F913F912F910F900BBE0F900FBEEF
:101DC0000F901F9018951F920F920FB60F9211242B
:101DD0000BB60F922F933F934F935F936F937F9325
:101DE0008F939F93AF93BF93EF93FF9384EE93E012
:101DF0000E942305FF91EF91BF91AF919F918F9129
:101E00007F916F915F914F913F912F910F900BBEFA
:101E10000F900FBE0F901F9018951F920F920FB644
:101E20000F9211240BB60F922F933F934F935F9312
:101E30006F937F938F939F93AF93BF93EF93FF9392
:101E400081E894E00E949705FF91EF91BF91AF91D7
:101E50009F918F917F916F915F914F913F912F91C2
:101E60000F900BBE0F900FBE0F901F9018951F92F2
:101E70000F920FB60F9211240BB60F922F933F9330
:101E80004F935F936F937F938F939F93AF93BF9382
:101E9000EF93FF9381E894E00E942305FF91EF9177
:101EA000BF91AF919F918F917F916F915F914F9172
:101EB0003F912F910F900BBE0F900FBE0F901F9070
:101EC00018951F920F920FB60F9211240BB60F9216
:101ED0002F933F934F935F936F937F938F939F9332
:101EE000AF93BF93EF93FF9380911F050E94BA02B7
:101EF00020912305309124052F5F3F4F3093240517
:101F00002093230590912205953618F096E0909342
:101F10001E0590911E05943009F466C0B8F4923005
:101F2000F1F0933009F444C090912105992309F40C
:101F30006BC081117CC080912005882309F463C0A7
:101F40008091200561E00E94E3025EC0953009F4B3
:101F500057C0963049F791E09093EF054FC081113B
:101F6000E3CF20912305309124052436310528F450
:101F70001092240510922305D7CF1092EF051092EE
:101F80002205E091220591E09E0F90932205F0E05A
:101F90002091230530912405EE0FFF1FE25EFA4FDA
:101FA00030872783109224051092230593E019C0EF
:101FB000813009F0B9CFE091220591E09E0F909316
:101FC0002205F0E02091230530912405EE0FFF1F3C
:101FD000E25EFA4F30872783109224051092230582
:101FE00094E090931E05A0CF882359F220912305F9
:101FF000309124052536310508F496CF95E0F1CFD0
:10200000811192CFB5CF2F9AFF91EF91BF91AF91F0
:102010009F918F917F916F915F914F913F912F9100
:102020000F900BBE0F900FBE0F901F9018958091D0
:102030002005882321F08091200560E084CF2F982F
:10204000E3CF1F920F920FB60F9211240BB60F928F
:102050002F933F934F935F936F937F938F939F93B0
:10206000AF93BF93CF93DF93EF93FF9380916D0274
:10207000C0912C06D0E087FF23C0109285001092FB
:10208000840080916D028F5F80936D0280916D025C
:10209000082E000C990B8C179D0724F480916D027B
:1020A0008C3074F1809184009091850084349C4937
:1020B00008F465C08091840090918500049661C009
:1020C00080916D02082E000C990B8C179D07CCF6A1
:1020D00030916D0225E03203F0011124E051FA4FF6
:1020E000808186FFCECF30916D023203F001112442
:1020F000E051FA4F808160E08F730E94E302C1CF0C
:10210000809184009091850030916D0225E032032A
:10211000F0011124E051FA4F41815281840F951F43
:10212000909389008093880030916D023203F00112
:102130001124E051FA4F808186FF0CC030916D026E
:102140003203F0011124E051FA4F808161E08F7376
:102150000E94E302FF91EF91DF91CF91BF91AF9188
:102160009F918F917F916F915F914F913F912F91AF
:102170000F900BBE0F900FBE0F901F90189580E42C
:102180009CE990938900809388008FEF80936D0283
:10219000E1CF10923E0310923D0388EE93E0A0E061
:1021A000B0E080933F0390934003A0934103B0932A
:1021B000420327E132E030933C0320933B0310922B
:1021C0004A031092490380934B0390934C03A093CE
:1021D0004D03B0934E0329E232E03093480320933D
:1021E000470345E351E0509354034093530344E3C2
:1021F00051E0509356034093550340E351E0509310
:1022000058034093570341E351E050935A034093DE
:10221000590342E351E050935C0340935B0346E370
:1022200051E050935E0340935D031092600310925F
:10223000610310926203109263031092E7031092FD
:10224000E6038093E8039093E903A093EA03B09335
:10225000EB033093E5032093E40345ED50E0509306
:10226000F1034093F00344ED50E05093F3034093A7
:10227000F20340ED50E05093F5034093F40341ED39
:1022800050E05093F7034093F60342ED50E0509333
:10229000F9034093F80346ED50E05093FB0340935D
:1022A000FA031092FD031092FE031092FF031092A6
:1022B0000004109284041092830480938504909308
:1022C0008604A0938704B0938804309382042093FB
:1022D000810485EC90E090938E0480938D0484ECCF
:1022E00090E09093900480938F0480EC90E0909322
:1022F00092048093910481EC90E0909394048093F5
:10230000930482EC90E0909396048093950486EC7D
:1023100090E0909398048093970410929A041092FE
:102320009B0410929C0410929D0480910B0290914A
:102330000C02A0910D02B0910E02809316079093AB
:102340001707A0931807B093190780910F02909177
:102350001002A0911102B091120280931A0790937B
:102360001B07A0931C07B0931D0784E080931E07F2
:1023700087E080931F071092200784EB809321074A
:1023800086E18093220788E18093230787E1809389
:10239000240789E180932507E0912C06EC3008F4AE
:1023A000A9C08FEF80932607E0912C06EC3008F44B
:1023B000B2C08FEF809327078CE08093F50684E20C
:1023C0008093F60686E08093F70685E08093F80612
:1023D0008FE18093F9068EE18093FA0683E2809381
:1023E000FB0682E28093FC0685E48093FD0684E48C
:1023F0008093FE0680E480930107109206071092F6
:102400000707109208071092090710920A07109206
:102410000B0710920C0710920D07E7E3F6E08FEF21
:102420009FEFDC01128213821482158216821782BA
:102430001086118683879487A587B6878787908BB8
:10244000A18BB28B128611821082739626E0E53F33
:10245000F20741F78DE090E00E949117FC01138292
:1024600012828BE392E091838083118687E28483DA
:1024700084E1828784E083871486F0933406E093B6
:102480003306109235061092360685E280931F05BA
:102490001092210510922E0610922D0610923006F1
:1024A00010922F06109232061092310661E070E011
:1024B00090E080E00E94B6180097F1F190932E060C
:1024C00080932D061092300610922F06209131062F
:1024D00030913206232B11F4FC0110821092320647
:1024E0001092310663E472E080912D0690912E06E1
:1024F0000C94A01981E08E0F80932C06E0932607A0
:1025000025E0E29FF0011124E051FA4F88EB9BE0B7
:102510009283818349CF81E08E0F80932C06E093D4
:10252000270785E0E89FF0011124E051FA4F88EB7E
:102530009BE09283818340CF80912D0690912E065F
:10254000009711F00E942D1810922E0610922D0661
:1025500010923206109231061092300610922F0619
:102560000895789484B5826084BD84B5816084BD0B
:1025700085B5826085BD85B5816085BD80916E0021
:10258000816080936E001092810080918100826052
:10259000809381008091810081608093810080918F
:1025A00080008160809380008091B100846080937E
:1025B000B1008091B00081608093B0008091910063
:1025C000826080939100809191008160809391005E
:1025D000809190008160809390008091A100826042
:1025E0008093A1008091A10081608093A1008091DF
:1025F000A00081608093A00080912101826080937F
:10260000210180912101816080932101809120012D
:1026100081608093200180917A00846080937A00A9
:1026200080917A00826080937A0080917A00816044
:1026300080937A0080917A00806880937A0010926B
:10264000C100E0919104F091920482E08083E091D6
:102650008D04F0918E041082E0918F04F09190042B
:102660008FEC808310929904E0919504F091960488
:1026700086E08083E0919304F091940480818061EE
:102680008083E0919304F09194048081886080833A
:10269000E0919304F0919404808180688083E091BC
:1026A0009304F091940480818F7D808361E0809118
:1026B000F6060E94500360E08091F6060E94E30255
:1026C00060E08091F5060E9450038BE393E09093C5
:1026D00000078093FF061092A00210929F021092B2
:1026E000180310923A030E9411038BEC91E090932F
:1026F000C3028093C2028CEC91E09093C702809356
:10270000C60280E090E1A0E0B0E0809302079093E1
:102710000307A0930407B09305078AE090E0A0E0C8
:10272000B0E08093060790930707A0930807B09343
:10273000090780E090E0A0E0B0E480930A0790935E
:102740000B07A0930C07B0930D0760E070E185E0E4
:102750000E948D046FE979E380E00E948D0407EF09
:1027600016E0C5EFD6E060E4A62E62E0B62E76E86D
:10277000872E72E0972EEBECEE2EE7E0FE2EF801AE
:10278000928181918F01898F9A8F61E00E9450031D
:1027900061E08A8D0E9450036E01FDE1CF0ED11CD5
:1027A000F801958183818D8F9E8F61E00E94500397
:1027B00060E08E8D0E94500361E08D8D0E94E302E7
:1027C0007FB6F89480917302811125C0F501849140
:1027D000F4019491E82FF0E0EE0FFF1FE354FE4F59
:1027E000A591B4918C91982321F461E085E30E9436
:1027F000E30261E085E30E9450038CB580618CBDEB
:102800008CB580648CBD61E084E30E94500361E07C
:1028100083E30E945003809173028F5F8093730261
:102820007FBEC7010197F1F760E08D8D0E94E30242
:1028300088E80E94750783E00E94750761E08D8D2E
:102840000E94E302C7010197F1F7C6010E947C07CD
:102850002296F6E0C93FDF0709F091CF0AE117E0C1
:10286000C6E1D7E04EE1E42E47E0F42E60E0F80147
:1028700081918F010E945003E016F106B9F78AE1B9
:10288000E82E87E0F82E06E117E095E0D92E2CE03F
:10289000B22E32E0C32E88898C3008F043C0A88461
:1028A00061E08A2D0E9450038889D89EF00111248E
:1028B000E051FA4F2A2D2F739081907C922B9083B8
:1028C000138214826B2D0E94D5168B9DA0011124BA
:1028D00030E020E0BA01620F731FD69EF001D79E50
:1028E000F00D1124E051FA4F908196FD12C02F5F38
:1028F0003F4F2C30310571F781110BC010928000D1
:10290000C09281001092850010928400C6BAC092D5
:102910006F00E889DE9EF0011124E051FA4F8081BA
:10292000806480839E858C85F801828B938B60E028
:102930000E94500361E0F80183890E94500360E027
:10294000F80183890E94E30221960E5F1F4FE01673
:10295000F10609F0A0CFF8941092200189E080934D
:10296000210180E293E09093290180932801109245
:10297000250110922401C2E0C09373007894C093A3
:102980001E051092220580911F0560E00E945003F1
:1029900060E084E00E94500360E085E00E94500304
:1029A00060E080E30E94500360E081E30E945003F6
:1029B000E0919104F0919204C083E0918D04F09134
:1029C0008E041082E0918F04F091900480E1808366
:1029D00010929904E0919504F091960486E080832A
:1029E000E0919304F0919404808180618083E09170
:1029F0009304F0919404808188608083E091930433
:102A0000F0919404808180688083E0919304F09138
:102A1000940480818F7D808364E670E080E090E0A4
:102A20000E94C40480911D070E94BA02892BD1F331
:102A300084E197E00E947C0782E197E00E947C0796
:102A400080910302909104020A97A9F080910102FB
:102A50009091020282309105D1F08330910531F1DD
:102A6000019749F4C0917402D0917502CF3FDC0701
:102A700029F40E94410A0E942906E2CF0E942408FC
:102A8000882311F0CD2BA9F30E94260BF4CF0E94CE
:102A900024088823C9F30E94410A0E94240888233D
:102AA00099F30E945A090E945A09EECFC09174020C
:102AB000D0917502C130D10519F40E945A09DBCFBB
:102AC0000E942408882301F3CD2BF1F6F6CF8091E4
:102AD0002D0690912E06009711F00C942D18089554
:102AE0000E94B21508F481E00895E89409C097FBAC
:102AF0003EF490958095709561957F4F8F4F9F4FD5
:102B00009923A9F0F92F96E9BB279395F695879518
:102B100077956795B795F111F8CFFAF4BB0F11F4DB
:102B200060FF1BC06F5F7F4F8F4F9F4F16C0882382
:102B300011F096E911C0772321F09EE8872F762FB8
:102B400005C0662371F096E8862F70E060E02AF0F9
:102B50009A95660F771F881FDAF7880F96958795E5
:102B600097F90895990F0008550FAA0BE0E8FEEFBA
:102B700016161706E807F907C0F012161306E40741
:102B8000F50798F0621B730B840B950B39F40A263A
:102B900061F0232B242B252B21F408950A2609F418
:102BA000A140A6958FEF811D811D08950E94E91512
:102BB0000C945A160E944C1638F00E94531620F0BE
:102BC000952311F00C9443160C94491611240C947F
:102BD0008E160E946B1670F3959FC1F3950F50E00F
:102BE000551F629FF001729FBB27F00DB11D639FBF
:102BF000AA27F00DB11DAA1F649F6627B00DA11D65
:102C0000661F829F2227B00DA11D621F739FB00D0A
:102C1000A11D621F839FA00D611D221F749F33277A
:102C2000A00D611D231F849F600D211D822F762F13
:102C30006A2F11249F5750409AF0F1F088234AF0F0
:102C4000EE0FFF1FBB1F661F771F881F915050405C
:102C5000A9F79E3F510580F00C9443160C948E16F4
:102C60005F3FE4F3983ED4F3869577956795B795E3
:102C7000F795E7959F5FC1F7FE2B880F911D9695FD
:102C8000879597F9089597F99F6780E870E060E06D
:102C900008959FEF80EC089500240A9416161706F5
:102CA00018060906089500240A941216130614063D
:102CB00005060895092E0394000C11F4882352F0A0
:102CC000BB0F40F4BF2B11F460FF04C06F5F7F4F58
:102CD0008F4F9F4F089557FD9058440F551F59F03F
:102CE0005F3F71F04795880F97FB991F61F09F3FF9
:102CF00079F087950895121613061406551FF2CF22
:102D00004695F1DF08C0161617061806991FF1CF71
:102D100086957105610508940895E894BB27662798
:102D20007727CB0197F90895052E97FB1EF40094A1
:102D30000E94AB1657FD07D00E94B31607FC03D0C4
:102D40004EF40C94AB1650954095309521953F4F1D
:102D50004F4F5F4F089590958095709561957F4F87
:102D60008F4F9F4F0895A1E21A2EAA1BBB1BFD0196
:102D70000DC0AA1FBB1FEE1FFF1FA217B307E4075A
:102D8000F50720F0A21BB30BE40BF50B661F771FB2
:102D9000881F991F1A9469F7609570958095909592
:102DA0009B01AC01BD01CF010895991B79E004C0DE
:102DB000991F961708F0961B881F7A95C9F780957A
:102DC0000895EE0FFF1F881F8BBF0790F691E02D2F
:102DD00019945058BB27AA270E9401170C945A1621
:102DE0000E944C1638F00E94531620F039F49F3F91
:102DF00019F426F40C9449160EF4E095E7FB0C94B4
:102E00004316E92F0E946B1658F3BA17620773072F
:102E10008407950720F079F4A6F50C948D160EF42E
:102E2000E0950B2EBA2FA02D0B01B90190010C01DA
:102E3000CA01A0011124FF27591B99F0593F50F4F2
:102E4000503E68F11A16F040A22F232F342F44274A
:102E5000585FF3CF469537952795A795F040539542
:102E6000C9F77EF41F16BA0B620B730B840BBAF012
:102E70009150A1F0FF0FBB1F661F771F881FC2F77D
:102E80000EC0BA0F621F731F841F48F48795779591
:102E90006795B795F7959E3F08F0B0CF9395880F4B
:102EA00008F09927EE0F9795879508950E945D1772
:102EB0006894B1110C948E1608950E94731688F0D0
:102EC0009F5798F0B92F9927B751B0F0E1F0660FEE
:102ED000771F881F991F1AF0BA95C9F714C0B1302F
:102EE00091F00E948D16B1E008950C948D16672F15
:102EF000782F8827B85F39F0B93FCCF3869577955E
:102F00006795B395D9F73EF4909580957095619546
:102F10007F4F8F4F9F4F08950E94B21508F48FEF97
:102F200008950F931F93CF93DF938230910510F490
:102F300082E090E0E0912E07F0912F0730E020E052
:102F4000B0E0A0E0309799F42115310509F44AC0AA
:102F5000281B390B24303105D8F58A819B816115F6
:102F6000710589F1FB0193838283FE0111C04081C9
:102F700051810281138148175907E0F0481759071A
:102F800099F4109761F012960C93129713961C9374
:102F90003296CF01DF91CF911F910F910895009349
:102FA0002E0710932F07F4CF2115310551F042174A
:102FB000530738F0A901DB019A01BD01DF01F801D7
:102FC000C1CFEF01F9CF90932F0780932E07CDCF7C
:102FD000FE01E20FF31F819391932250310939834F
:102FE0002883D7CF20912C0730912D07232B41F434
:102FF000209107023091080230932D0720932C076F
:1030000020910502309106022115310541F42DB7BA
:103010003EB74091090250910A02241B350BE09102
:103020002C07F0912D07E217F307A0F42E1B3F0B9E
:103030002817390778F0AC014E5F5F4F241735072A
:1030400048F04E0F5F1F50932D0740932C0781933C
:1030500091939FCFF0E0E0E09CCFCF93DF93009778
:10306000E9F0FC01329713821282A0912E07B091F1
:103070002F07ED0130E020E01097A1F4208131818D
:10308000820F931F20912C0730912D0728173907A5
:1030900009F061C0F0932D07E0932C07DF91CF91E9
:1030A0000895EA01CE17DF07E8F54A815B819E01AA
:1030B00041155105B1F7E901FB83EA834991599123
:1030C000C40FD51FEC17FD0761F480819181029632
:1030D000840F951FE90199838883828193819B8363
:1030E0008A83F0E0E0E012968D919C91139700970F
:1030F000B9F52D913C911197CD010296820F931F46
:1031000020912C0730912D072817390739F6309771
:1031100051F510922F0710922E07B0932D07A09310
:103120002C07BCCFD383C28340815181840F951F6C
:10313000C817D90761F44E5F5F4F88819981480FA6
:10314000591F518340838A819B81938382832115F8
:10315000310509F0B0CFF0932F07E0932E079ECFF3
:10316000FD01DC01C0CF13821282D7CF4F925F9254
:103170006F927F928F929F92AF92BF92CF92DF9287
:10318000EF92FF920F931F93CF93DF938C010097E1
:1031900099F4CB01DF91CF911F910F91FF90EF90A8
:1031A000DF90CF90BF90AF909F908F907F906F9067
:1031B0005F904F900C949117FC01E60FF71F9C0154
:1031C00022503109E217F30708F4AEC0D901CD91BE
:1031D000DC911197C617D70720F1C530D10578F0DB
:1031E000CE0104978617970750F0C61BD70B22977E
:1031F000C193D1936D937C93CF010E942D18C80188
:10320000DF91CF911F910F91FF90EF90DF90CF90C2
:10321000BF90AF909F908F907F906F905F904F90F6
:1032200008955B01AC1ABD0A4C018C0E9D1EA09145
:103230002E07B0912F07512C412CF12CE12C109727
:1032400031F580912C0790912D078815990509F08B
:103250005CC04616570608F058C080910502909150
:103260000602009741F48DB79EB740910902509134
:103270000A02841B950BE817F90708F055C0F09374
:103280002D07E0932C07F90171836083B8CF8D91EE
:103290009C91119712966C90129713967C901397AD
:1032A000A815B90559F56C0142E0C40ED11CCA1429
:1032B000DB0420F1AC014A195B09DA01129615977B
:1032C00080F06282738251834083D9016D937C9335
:1032D000E114F10471F0D7011396FC93EE93129769
:1032E0008ECF22968C0F9D1FF90191838083F3016D
:1032F000EFCFF0932F07E0932E0781CF48165906A2
:1033000008F42C017D01D3019ACFCB010E949117C3
:103310007C01009749F0AE01B8010E949719C801DD
:103320000E942D1887016BCF10E000E068CFFB01F1
:10333000DC0102C001900D9241505040D8F7089531
:10334000FB01DC0101900D920020E1F7089511E0EE
:10335000C0E7D1E000E006C0802FFE010E94E11628
:103360002196011DC137D10780E00807A9F7F8941D
:02337000FFCF8D
:10337200FF02000100000030078000363738391B99
:103382001D1A1C000000002402F7012108CD01F0E3
:1033920001DD01CE0100000000B905F6043C05067E
:1033A200066D054B055F05000000004708F6042185
:0433B20008200800E7
:00000001FF
