:100000000C9471010C94A2010C94A2010C94A20115
:100010000C94A2010C94A2010C94A2010C94A201D4
:100020000C94A2010C94A0080C94A0080C94A008B5
:100030000C94A2010C94180A0C94A2010C94A20135
:100040000C94A2010C94920C0C94A2010C94A201A9
:100050000C94A2010C94A2010C94A2010C94CE0960
:100060000C94A2010C94870B0C945D0B0C94A201D0
:100070000C94A2010C94A2010C94A2010C94A20174
:100080000C94A2010C94A2010C94A2010C94A20164
:100090000C94A2010C94A2010C94A2010C94AA0845
:1000A0000C94A2010C94A2010C94A2010C94A20144
:1000B0000C94A2010C94A2010C94A2010C94B10B1B
:1000C0000C94A2010C94A2010C94A2010C94330B89
:1000D0000C94090B0C94A2010C94DF0A0C94B50A41
:1000E0000C94A2010C94CC010C9446070C94710260
:1000F0000C9496020C9444080C9450070C94C1067E
:100100000C94A8020C94AC020C9464070C94A40206
:100110000C949A020C945A070C94CB010C94EA04A8
:100120000C9432070C94B2020C94F5060C9423073D
:100130000C9430050C947B020C9477020C94F7011C
:100140000C943F050C94CD010C940F070C946105A1
:100150000C94AD050C94FA050C948C020C94B60228
:100160000C94FD060C9423120C9486020C94EB065E
:100170000C9405070C947F020C9490020C94F001EF
:100180000C9453050C9483020C949E020C9424024C
:100190000C94E1060C942C080C94CE010C941907D5
:1001A0000C942B080C94DD010C943C070C94D7069E
:1001B0000C943A0D0C94B1020C94D206000020006D
:1001C0002300260029002C002F003200000100002F
:1001D0000301060109010200002100240027002A72
:1001E000002D003000330001010000040107010A66
:1001F0000100002200250028002B002E00310034D1
:100200000002010000050108010B010505050507B5
:100210000508080808020202020A0A080804040481
:1002200004010101010101010103030303030303AD
:1002300003040707070C0C0C0C0C0C0C0C0202023C
:100240000206060606060606060B0B0B0B0B0B0B2F
:100250000B010210202008081020401020408002CE
:1002600001020108040201010204081020408080FC
:100270004020100804020180040201804020100880
:100280000402010804020101020408102040800158
:100290000204081020408000000A0B02090C0D0E19
:1002A0000807030401000000000000000000000037
:1002B000000000000000000000000000000000003E
:1002C00000000012111000000000000000000000FB
:1002D00000000000000000000000000000003A0DD7
:1002E000231211241FBECFEFD1E2DEBFCDBF00E04D
:1002F0000CBF12E0A0E0B2E0E8E6FCE200E00BBFD9
:1003000002C007900D92A234B107D9F727E0A2E40A
:10031000B2E001C01D92A032B207E1F711E0C0E7E0
:10032000D1E000E006C021970109802FFE010E9464
:100330005C13CF36D10780E00807A9F70E94220F8F
:100340000C9422160C9400002091B402260F33273F
:10035000331F21323105ECF420910103FC0190E0C0
:1003600080E0243069F082E00895A091B4022191E8
:10037000AC014E565D4FA40FB52FB11D2C930196C5
:10038000861798F38091B402680F6093B40280E0FE
:10039000089581E00895089508950895E0919002E8
:1003A00080918F02E81730F4F0E0E159FD4F808131
:1003B00090E008958FEF9FEF0895909190028091C3
:1003C0008F022FEF3FEF981748F4E92FF0E0E15943
:1003D000FD4F208130E09F5F90939002C901089506
:1003E00080918F0290919002891B990B0895CF9272
:1003F000DF92EF92FF920F931F93CF93DF937C01D5
:10040000CB018A0120910703222389F0EB016B01C4
:10041000C40ED51ECC15DD0569F06991D701ED91AB
:10042000FC910190F081E02DC7011995F3CF642F65
:100430000E94A401C801DF91CF911F910F91FF90FD
:10044000EF90DF90CF900895CF93DF931F92CDB7B9
:10045000DEB76983209107032223F9F020912A0354
:10046000203258F021E030E0FC013383228390E019
:1004700080E00F90DF91CF91089580910803E82FDD
:10048000F0E0E75FFC4F998190838F5F80930803D2
:1004900080932A0381E090E0ECCF61E0CE010196E9
:1004A0000E94A401F7CF8150823108F05AC0E82F92
:1004B000F0E08827E15AFD4F8F4F0C945C137F02C8
:1004C0008302710277027B02B10286028C029002E3
:1004D00096029A029E02A402A802B102AC02B202E3
:1004E000B602809180008F7780938000089580917C
:1004F00080008F7DF9CF80918000877FF5CF84B514
:100500008F7784BD089584B58F7DFBCF8091B00037
:100510008F778093B00008958091B0008F7DF9CFE0
:10052000809190008F778093900008958091900043
:100530008F7DF9CF80919000877FF5CF8091A000CB
:100540008F778093A00008958091A0008F7DF9CFD0
:100550008091A000877FF5CF809120018F778093D5
:1005600020010895809120018F7DF9CF8091200195
:10057000877FF5CF1F93CF93DF93282F30E0F901CA
:10058000E956FD4F8491F901EF5AFD4FD491F901DD
:10059000E55FFD4FC491CC23A9F0162F81110E9475
:1005A0005302EC2FF0E0EE0FFF1FEF50FE4FA5912E
:1005B000B4918FB7F894EC91111108C0D095DE2357
:1005C000DC938FBFDF91CF911F910895DE2BF8CF81
:1005D0001092010381E0809300031092DB0261E03E
:1005E00084E10E94BA0261E085E10E94BA02E9EB6F
:1005F000F0E080818E7F808380818D7F808388E49E
:100600008093B80085E48093BC000895CF93DF9376
:1006100091E0909391028823B9F0C091B800D091F5
:10062000BA008091BC008A7B8093BC0060E084E1CA
:100630000E94BA0260E085E10E94BA020E94E802CC
:10064000D093BA00C093B800DF91CF910895CF93B3
:10065000DF9390E0FC01EF5AFD4F2491855F9D4FA1
:10066000FC0184918823D1F090E0880F991FFC0150
:10067000E952FE4FA591B491FC01EF50FE4FC59198
:10068000D49161110EC09FB7F8948C91E22FE09540
:100690008E238C932881E223E8839FBFDF91CF9143
:1006A00008958FB7F894EC91E22BEC938FBFF6CFBF
:1006B000863308F0865320917B00982F9870277F0F
:1006C000922B90937B008770806480937C00809154
:1006D0007A00806480937A0080917A0086FDFCCF56
:1006E000809178009091790008953FB7F8948091B7
:1006F0006B0290916C02A0916D02B0916E0226B5D2
:10070000A89B05C02F3F19F00196A11DB11D3FBF49
:10071000BA2FA92F982F8827BC01CD01620F711D18
:10072000811D911D42E0660F771F881F991F4A9512
:10073000D1F70895CF92DF92EF92FF920F931F931C
:10074000CF93DF93D0912A0381E0D13208F09CC08F
:10075000C09129030E9475036B017C018091010304
:1007600081116CC082E08093010381E080930003DB
:100770008FEF8093FF021092FE02D093FD02A9E05A
:10078000B3E0EDEDF2E080E0D8138DC01092DC0212
:100790008091DC02CC0FC82BC093DC028091DB027D
:1007A000813009F084C01092DB020E9475036B0156
:1007B0007C018091DC028093BB00809103039091C7
:1007C0000403A0910503B0910603892B8A2B8B2B80
:1007D000A1F00E947503009103031091040320917E
:1007E0000503309106036C197D098E099F090617D0
:1007F00017072807390708F442C08091BC0083FD21
:10080000D8CF85EC8093BC000E9475036B017C01FE
:1008100080910103823009F44CC08091FF028F3F28
:1008200009F469C08091FF02803209F466C08091AA
:10083000FF02803309F463C084E026C08091030383
:1008400090910403A0910503B0910603892B8A2B94
:100850008B2B09F483CF0E94750300910303109141
:10086000040320910503309106036C197D098E095C
:100870009F09061717072807390708F06FCF8091DF
:1008800002030E94060385E01092080310922A03D7
:1008900010920703DF91CF911F910F91FF90EF907E
:1008A000DF90CF9008959D9191938F5F6DCF85EEEE
:1008B000A9CF8091030390910403A0910503B09107
:1008C0000603892B8A2B8B2B09F4A2CF0E94750378
:1008D0000091030310910403209105033091060356
:1008E0006C197D098E099F09061717072807390714
:1008F00008F08ECFC4CF80E0C7CF82E0C5CF83E0C1
:10090000C3CF0F931F93CF93DF93162F072FC5EEFF
:10091000D6E0AA85BB859C8521E0209307039093B0
:1009200029031092080310922A03ED91FC9111976C
:100930000190F081E02D682FCD0119958A859B8566
:10094000DC01ED91FC910190F081E02D602F199573
:100950008A859B85DC01ED91FC910190F081E02D71
:10096000612F1995DF91CF911F910F910C949A03EC
:100970008F929F92AF92BF92CF92DF92EF92FF92AF
:100980004B015C010E9475036B017C010E947503A1
:100990006C197D098E099F09683E73408105910598
:1009A000A8F321E0821A9108A108B10888EEC80EC8
:1009B00083E0D81EE11CF11C81149104A104B10450
:1009C00029F7FF90EF90DF90CF90BF90AF909F906E
:1009D0008F900895AF92BF92CF92DF92EF92FF92E5
:1009E0000F931F93CF93DF936C017B018B01040F57
:1009F000151FEB015E01AE18BF08C017D10759F0F3
:100A00006991D601ED91FC910190F081E02DC60134
:100A10001995892B79F7C501DF91CF911F910F911E
:100A2000FF90EF90DF90CF90BF90AF900895FC01C2
:100A3000A089B1898C91A689B78982FD0FC09C914C
:100A4000818D8F5F8F73228D821749F0A18DAE0F3C
:100A5000BF2FB11D5D969C93818F08958C91089551
:100A6000FC01538D448D252F30E0842F90E0821BB4
:100A7000930B541710F0CF96089501970895FC0139
:100A8000918D828D981761F0A28DAE0FBF2FB11D91
:100A90005D968C91928D9F5F9F73928F90E00895E9
:100AA0008FEF9FEF0895FC01918D828D981731F0A3
:100AB000828DE80FF11D858D90E008958FEF9FEFF7
:100AC0000895FC01918D228D892F90E0805C9F4FCD
:100AD000821B91098F739927089587E393E00E9401
:100AE000610521E0892B09F420E0822F089584ED2F
:100AF00093E00E94610521E0892B09F420E0822F18
:100B0000089581E794E00E94610521E0892B09F4B2
:100B100020E0822F0895FC01A48DA80FB92FB11DEC
:100B2000A35ABF4F2C91848D90E001968F73992723
:100B3000848FA689B7892C93A089B1898C91837001
:100B400080648C93938D848D981306C00288F389FA
:100B5000E02D80818F7D80830895EF92FF920F9327
:100B60001F93CF93DF93EC0181E0888F9B8D8C8D59
:100B700098131AC0E889F989808185FF15C09FB74D
:100B8000F894EE89FF896083E889F9898081837010
:100B9000806480839FBF81E090E0DF91CF911F91BF
:100BA0000F91FF90EF900895F62E0B8D10E00F5FE0
:100BB0001F4F0F731127E02E8C8D8E110CC00FB6B6
:100BC00007FCFACFE889F989808185FFF5CFCE014E
:100BD0000E948B05F1CFEB8DEC0FFD2FF11DE35A39
:100BE000FF4FF0829FB7F8940B8FEA89FB898081D1
:100BF0008062CFCFCF93DF93EC01888D8823B9F04B
:100C0000AA89BB89E889F9898C9185FD03C0808117
:100C100086FD0DC00FB607FCF7CF8C9185FFF2CF94
:100C2000808185FFEDCFCE010E948B05E9CFDF915A
:100C3000CF910895F0E0E0E0199480E090E0892BF6
:100C400029F00E94810581110E94000080E090E05F
:100C5000892B49F080E090E0892B29F00E94000068
:100C600081110E9400000E94770581110E941A06DE
:100C700080E090E0892B29F00E946D0581110C9491
:100C8000000008958F929F92AF92BF92CF92DF9211
:100C9000EF92FF920F931F93CF93DF93EC016A01C2
:100CA0007B0120E030E04FE753E4CB01B6010E9426
:100CB00092124B015C0120E030E0A9010E94071470
:100CC00018168CF5C501B4010E94D1138B01B980AF
:100CD00020E030E0A901C701B6010E94071460E0DE
:100CE00018160CF061E08B2D0E94BA020F3F11051F
:100CF00009F0ECF41127C88161E08C2F0E942703D2
:100D000001151105B9F460E08C2FDF91CF911F918F
:100D10000F91FF90EF90DF90CF90BF90AF909F909A
:100D20008F900C94BA02C501B4019058CDCF0FEF4B
:100D300010E0E1CF0F3F110511F461E0E5CFEC2F9A
:100D4000F0E0E956FD4FE491E150E23108F0BCC01B
:100D5000F0E08827E155F94F8F4F0C945C13C106E2
:100D6000D206D706E106EB066407F506FD06050781
:100D70000F071907230732073C0764074607500788
:100D80005A0784B5806884BD07BDDF91CF911F915C
:100D90000F91FF90EF90DF90CF90BF90AF909F901A
:100DA0008F90089584B5806284BD08BDEECF809198
:100DB00080008068809380001093890000938800F1
:100DC000E4CF8091800080628093800010938B003C
:100DD00000938A00DACF8091800088608093800041
:100DE00010938D0000938C00D0CF8091B00080686C
:100DF0008093B0000093B300C8CF8091B0008062B0
:100E00008093B0000093B400C0CF809190008068C0
:100E1000809390001093990000939800B6CF809132
:100E2000900080628093900010939B0000939A0042
:100E3000ACCF8091900088608093900010939D00CB
:100E400000939C00A2CF8091A00080688093A000B6
:100E50008091A0008F7B8093A0001093A900009345
:100E6000A80093CF8091A00080628093A00010938F
:100E7000AB000093AA0089CF8091A0008860809386
:100E8000A0001093AD000093AC007FCF80912001B3
:100E9000806880932001109329010093280175CF69
:100EA0008091200180628093200110932B01009398
:100EB0002A016BCF809120018860809320011093DC
:100EC0002D0100932C0161CF003811050CF035CFB6
:100ED0001ACF8EBD00000DB407FEFDCF8EB508956C
:100EE000CF93DF93EC0160E088810E94BA0288E929
:100EF0000E94690780E00E94690780E00E946907FC
:100F000080E00E94690780E00E94690761E08881B3
:100F10000E94BA028BE891E00197F1F760E08881C6
:100F20000E94BA0280EE0E94690761E08881DF9129
:100F3000CF910C94BA02AF92BF92CF92DF92EF9210
:100F4000FF920F931F93CF93DF93CDB7DEB76097D8
:100F50000FB6F894DEBF0FBECDBF6C0160E0FC01A0
:100F600080810E94BA0280E60E9469079E012F5F7D
:100F70003F4F79015E0131E1A30EB11C870180E092
:100F80000E94690790E0B0E0A0E0F801819391939E
:100F9000A193B1938F01EA15FB0589F761E0F60192
:100FA00080810E94BA0280E090E0DC01F70141916B
:100FB0005191619171917F01BA2FA92F982F8827A4
:100FC000840F951FA61FB71FE017F10779F79C0143
:100FD000AD0166277727CB01621B730B840B950B42
:100FE00060960FB6F894DEBF0FBECDBFDF91CF91F4
:100FF0001F910F91FF90EF90DF90CF90BF90AF9037
:101000000895CF92DF92EF92FF92CF93DF93EC019E
:101010000E949B076B017C01CE010E947007C701F3
:10102000B601DF91CF91FF90EF90DF90CF900895C0
:10103000FC01248131E030930703209329031092AF
:10104000080310922A038485682B8BE293E00E94A8
:1010500024020C949A03089590E080E008950F9381
:101060001F93CF938C01C62F64600E9418086C2FC9
:101070006B7FC8010E94180883EC90E00197F1F79C
:10108000CF911F910F9108950F931F93CF93DF93EB
:101090008C01C62FD62FD07FD1606D2F0E941808EB
:1010A0006D2FC8010E942F0880E1C89FE001112424
:1010B000C1606C2FC8010E9418086C2FC8010E94E3
:1010C0002F0881E090E0DF91CF911F910F9108955B
:1010D00085ED8093BC008091030390910403A0915F
:1010E0000503B09106030796A11DB11D23E0B69537
:1010F000A795979587952A95D1F72091BC0024FD57
:1011000003C010920103089540910303509104031A
:101110006091050370910603452B462B472B69F31D
:101120000097A105B10541F025E32A95F1F70000EC
:101130000197A109B109E1CF809102030C94060344
:101140001F920F920FB60F9211240F900FBE0F90A7
:101150001F9018951F920F920FB60F9211240BB685
:101160000F922F933F934F935F936F937F938F9340
:101170009F93AF93BF93EF93FF938091B900887FC4
:10118000803609F44DC008F040C0883209F4A9C087
:1011900028F5803109F49DC0C8F4882309F4FBC008
:1011A000883009F496C0FF91EF91BF91AF919F9164
:1011B0008F917F916F915F914F913F912F910F9000
:1011C0000BBE0F900FBE0F901F901895883109F439
:1011D00088C0803241F78093FF0214C0803409F444
:1011E0009DC040F48033B9F38833E9F68093FF0261
:1011F00085ECB0C0803509F485C0883509F496C007
:10120000883489F60E946808CECF883909F48CC0EA
:1012100038F5883729F050F4883611F0803719F600
:1012200083E0809301031092D80257C0883809F4F4
:101230007BC0803919F0803809F0B5CF8091D80291
:10124000803208F071C0E091D80281E08E0F809367
:10125000D8028091BB00F0E0E854FD4F80833DC090
:10126000803B39F0E0F4803A09F479C0883A09F01B
:101270009ACF84E0809301031092B5021092B402D9
:10128000E091B202F091B30219958091B4028111FC
:101290000FC081E08093B4021092920209C0803C9A
:1012A00009F4A6CF883C09F4A3CF883B09F07BCF93
:1012B000E091B50281E08E0F8093B502F0E0EE562A
:1012C000FD4F80818093BB009091B5028091B40264
:1012D00029C08091DC028093BB0085EC8093BC0028
:1012E00062CF9091FE028091FD02981758F5E0912F
:1012F000FE0281E08E0F8093FE02F0E0E352FD4F8C
:101300008081E9CFE091FE0281E08E0F8093FE02A2
:101310008091BB00F0E0E352FD4F80839091FE028C
:101320008091FD029817C8F285E8D8CFE091FE02BF
:1013300081E08E0F8093FE028091BB00F0E0E352CB
:10134000FD4F80838091000381115CCF81E0809309
:10135000DB0284EA8093BC001092010324CF85EC69
:101360008093BC00109201038091D802803230F447
:10137000E091D802F0E0E854FD4F10826091D8026D
:1013800070E0E091B602F091B70288EB92E0199517
:101390001092D80208CF1092FF0234CF1F920F9202
:1013A0000FB60F9211242F933F938F939F93AF9378
:1013B000BF938091670290916802A0916902B091F9
:1013C0006A023091660223E0230F2D3758F501960B
:1013D000A11DB11D2093660280936702909368025D
:1013E000A0936902B0936A0280916B0290916C02A3
:1013F000A0916D02B0916E020196A11DB11D809366
:101400006B0290936C02A0936D02B0936E02BF9139
:10141000AF919F918F913F912F910F900FBE0F90A1
:101420001F90189526E8230F0296A11DB11DD2CF5B
:101430001F920F920FB60F9211240BB60F922F939B
:101440003F934F935F936F937F938F939F93AF934C
:10145000BF93EF93FF9380915D0290915E02A09104
:101460005F02B0916002892B8A2B8B2BD1F1909176
:101470005C028091000089278093000080915D02CA
:1014800090915E02A0915F02B09160021816190659
:101490001A061B069CF480915D0290915E02A09159
:1014A0005F02B09160020197A109B10980935D02CA
:1014B00090935E02A0935F02B0936002FF91EF9160
:1014C000BF91AF919F918F917F916F915F914F915C
:1014D0003F912F910F900BBE0F900FBE0F901F905A
:1014E000189580910002E6EDF1E0E4919FEF909372
:1014F0000002E230E9F040F4EE2389F0E13091F0AF
:1015000060E00E94BA02DACFE43049F110F1E53030
:10151000B9F7909173009D7F90937300F1CF109273
:101520006E00EECF90916F009D7F90936F00E8CF9B
:10153000909170009D7F9093700091E09093B00027
:101540009091B100987F94609093B1001092B30095
:10155000D7CF909171009D7F90937100D1CF9091E2
:1015600072009D7F90937200CBCF1F920F920FB6A7
:101570000F9211240BB60F922F933F934F935F93CB
:101580006F937F938F939F93AF93BF93EF93FF934B
:1015900087E393E00E948B05FF91EF91BF91AF919C
:1015A0009F918F917F916F915F914F913F912F917B
:1015B0000F900BBE0F900FBE0F901F9018951F92AB
:1015C0000F920FB60F9211240BB60F922F933F93E9
:1015D0004F935F936F937F938F939F93AF93BF933B
:1015E000EF93FF9387E393E00E941705FF91EF913C
:1015F000BF91AF919F918F917F916F915F914F912B
:101600003F912F910F900BBE0F900FBE0F901F9028
:1016100018951F920F920FB60F9211240BB60F92CE
:101620002F933F934F935F936F937F938F939F93EA
:10163000AF93BF93EF93FF9384ED93E00E948B05EC
:10164000FF91EF91BF91AF919F918F917F916F919A
:101650005F914F913F912F910F900BBE0F900FBE56
:101660000F901F9018951F920F920FB60F92112492
:101670000BB60F922F933F934F935F936F937F938C
:101680008F939F93AF93BF93EF93FF9384ED93E07A
:101690000E941705FF91EF91BF91AF919F918F919C
:1016A0007F916F915F914F913F912F910F900BBE62
:1016B0000F900FBE0F901F9018951F920F920FB6AC
:1016C0000F9211240BB60F922F933F934F935F937A
:1016D0006F937F938F939F93AF93BF93EF93FF93FA
:1016E00081E794E00E948B05FF91EF91BF91AF914C
:1016F0009F918F917F916F915F914F913F912F912A
:101700000F900BBE0F900FBE0F901F9018951F9259
:101710000F920FB60F9211240BB60F922F933F9397
:101720004F935F936F937F938F939F93AF93BF93E9
:10173000EF93FF9381E794E00E941705FF91EF91EB
:10174000BF91AF919F918F917F916F915F914F91D9
:101750003F912F910F900BBE0F900FBE0F901F90D7
:1017600018951F920F920FB60F9211240BB60F927D
:101770002F933F934F935F936F937F938F939F9399
:10178000AF93BF93CF93DF93EF93FF9320910F0518
:1017900030E0F901E956FD4F8491F901EF5AFD4F10
:1017A000D491F901E55FFD4FC491CC2379F081110B
:1017B0000E945302EC2FF0E0EE0FFF1FE454FE4FA7
:1017C000A591B491EC91ED2381E009F480E02091A2
:1017D0001305309114052F5F3F4F3093140520936C
:1017E000130590911205953618F096E090930E052A
:1017F00090910E05943009F466C0B8F49230F1F07F
:10180000933009F444C090911105992309F46BC0F9
:1018100081117EC080911005882309F463C08091F6
:10182000100561E00E94BA025EC0953009F457C00D
:10183000963049F791E09093DF054FC08111E3CFD7
:1018400020911305309114052436310528F41092A7
:10185000140510921305D7CF1092DF0510921205D0
:10186000E091120591E09E0F90931205F0E0209117
:10187000130530911405EE0FFF1FE25FFA4F30871A
:101880002783109214051092130593E019C081303C
:1018900009F0B9CFE091120591E09E0F90931205E7
:1018A000F0E02091130530911405EE0FFF1FE25F69
:1018B000FA4F30872783109214051092130594E095
:1018C00090930E05A0CF882359F2209113053091F3
:1018D00014052536310508F496CF95E0F1CF811136
:1018E00092CFB5CF2F9AFF91EF91DF91CF91BF911A
:1018F000AF919F918F917F916F915F914F913F91A8
:101900002F910F900BBE0F900FBE0F901F90189548
:1019100080911005882321F08091100560E082CF2E
:101920002F98E1CF1F920F920FB60F9211240BB692
:101930000F922F933F934F935F936F937F938F9368
:101940009F93AF93BF93CF93DF93EF93FF938091D8
:101950005B02C0911C06D0E087FF23C01092850077
:101960001092840080915B028F5F80935B02809174
:101970005B02082E000C990B8C179D0724F48091B4
:101980005B028C3074F180918400909185008434E6
:101990009C4908F465C0809184009091850004966C
:1019A00061C080915B02082E000C990B8C179D077B
:1019B000CCF630915B0225E03203F0011124E052B5
:1019C000FA4F808186FFCECF30915B023203F00167
:1019D0001124E052FA4F808160E08F730E94BA02B6
:1019E000C1CF809184009091850030915B0225E009
:1019F0003203F0011124E052FA4F41815281840FE9
:101A0000951F909389008093880030915B02320388
:101A1000F0011124E052FA4F808186FF0CC0309112
:101A20005B023203F0011124E052FA4F808161E041
:101A30008F730E94BA02FF91EF91DF91CF91BF9116
:101A4000AF919F918F917F916F915F914F913F9156
:101A50002F910F900BBE0F900FBE0F901F901895F7
:101A600080E49CE990938900809388008FEF8093B5
:101A70005B02E1CF10922E0310922D0388EE93E0CB
:101A8000A0E0B0E080932F0390933003A093310344
:101A9000B093320325E132E030932C0320932B03E3
:101AA00010923A031092390380933B0390933C03C6
:101AB000A0933D03B0933E0327E232E03093380316
:101AC0002093370345E351E050934403409343038D
:101AD00044E351E0509346034093450340E351E013
:101AE000509348034093470341E351E050934A0326
:101AF0004093490342E351E050934C0340934B031E
:101B000046E351E050934E0340934D03109250032F
:101B10001092510310925203109253031092D70364
:101B20001092D6038093D8039093D903A093DA033D
:101B3000B093DB033093D5032093D40345ED50E0FD
:101B40005093E1034093E00344ED50E05093E303EE
:101B50004093E20340ED50E05093E5034093E403EB
:101B600041ED50E05093E7034093E60342ED50E02F
:101B70005093E9034093E80346ED50E05093EB03A4
:101B80004093EA031092ED031092EE031092EF03DC
:101B90001092F003109274041092730480937504F1
:101BA00090937604A0937704B093780430937204F2
:101BB0002093710485EC90E090937E0480937D04E3
:101BC00084EC90E09093800480937F0480EC90E01C
:101BD000909382048093810481EC90E0909384043C
:101BE0008093830482EC90E0909386048093850434
:101BF00086EC90E0909388048093870410928A0486
:101C000010928B0410928C0410928D048091090222
:101C100090910A02A0910B02B0910C0280930607EA
:101C200090930707A0930807B093090780910D02CE
:101C300090910E02A0910F02B091100280930A07BA
:101C400090930B07A0930C07B0930D0784E080934B
:101C50000E0787E080930F071092100784EB8093A4
:101C6000110786E18093120788E18093130787E1CB
:101C70008093140789E180931507E0911C06EC30EE
:101C800008F4A9C08FEF80931607E0911C06EC3092
:101C900008F4B2C08FEF809317078CE08093E506BD
:101CA00084E28093E60686E08093E70685E08093F1
:101CB000E8068FE18093E9068EE18093EA0683E2ED
:101CC0008093EB0682E28093EC0685E48093ED0638
:101CD00084E48093EE0680E48093F1061092F60689
:101CE0001092F7061092F8061092F9061092FA0672
:101CF0001092FB061092FC061092FD06E7E2F6E059
:101D00008FEF9FEFDC0112821382148215821682FC
:101D100017821086118683879487A587B687878761
:101D2000908BA18BB28B128611821082739626E063
:101D3000E53EF20741F78DE090E00E940C14FC01B3
:101D40001382128289E392E091838083118687E275
:101D5000848384E1828784E083871486F093240659
:101D6000E0932306109225061092260685E28093C2
:101D70000F051092110510921E0610921D0610926A
:101D8000200610921F06109222061092210661E092
:101D900070E090E080E00E9431150097F1F190939F
:101DA0001E0680931D061092200610921F06209199
:101DB000210630912206232B11F4FC01108210928F
:101DC00022061092210661E472E080911D06909136
:101DD0001E060C941B1681E08E0F80931C06E09368
:101DE000160725E0E29FF0011124E052FA4F88EB3C
:101DF0009BE09283818349CF81E08E0F80931C0604
:101E0000E093170785E0E89FF0011124E052FA4FB4
:101E100088EB9BE09283818340CF80911D06909157
:101E20001E06009711F00E94A81410921E06109230
:101E30001D06109222061092210610922006109282
:101E40001F060895789484B5826084BD84B581604E
:101E500084BD85B5826085BD85B5816085BD809175
:101E60006E00816080936E001092810080918100ED
:101E700082608093810080918100816080938100E5
:101E8000809180008160809380008091B1008460A7
:101E90008093B1008091B00081608093B000809108
:101EA0009100826080939100809191008160809385
:101EB0009100809190008160809390008091A100BA
:101EC00082608093A1008091A10081608093A10035
:101ED0008091A00081608093A000809121018260A8
:101EE0008093210180912101816080932101809163
:101EF000200181608093200180917A00846080932A
:101F00007A0080917A00826080937A0080917A00D2
:101F1000816080937A0080917A00806880937A0053
:101F20001092C100E0918104F091820482E08083EC
:101F3000E0917D04F0917E041082E0917F04F091A5
:101F400080048FEC808310928904E0918504F091E5
:101F5000860486E08083E0918304F091840480818C
:101F600080618083E0918304F091840480818860A3
:101F70008083E0918304F091840480818068808371
:101F8000E0918304F091840480818F7D808361E0FF
:101F90008091E6060E94270360E08091E6060E9499
:101FA000BA0260E08091E5060E9427038BE293E08D
:101FB0009093F0068093EF061092900210928F0299
:101FC0001092080310922A030E94E8028BEC91E021
:101FD0009093B3028093B2028CEC91E09093B7029D
:101FE0008093B60280E090E1A0E0B0E08093F2063A
:101FF0009093F306A093F406B093F5068AE090E080
:10200000A0E0B0E08093F6069093F706A093F80660
:10201000B093F90680E090E0A0E0B0E48093FA0687
:102020009093FB06A093FC06B093FD0660E070E180
:1020300085E00E9481046FE979E380E00E948104D9
:1020400007EE16E0C5EED6E040E4A42E42E0B42E42
:1020500056E8852E52E0952E6BECE62E67E0F62EC4
:10206000F801928181918F01898F9A8F61E00E949E
:10207000270361E08A8D0E9427036E01FDE1CF0EE8
:10208000D11CF801958183818D8F9E8F61E00E9424
:10209000270360E08E8D0E94270361E08D8D0E94F2
:1020A000BA027FB6F89480916102811125C0F501D2
:1020B0008491F4019491E82FF0E0EE0FFF1FE952B4
:1020C000FE4FA591B4918C91982321F461E085E3B2
:1020D0000E94BA0261E085E30E9427038CB580610B
:1020E0008CBD8CB580648CBD61E084E30E942703C5
:1020F00061E083E30E942703809161028F5F8093F8
:1021000061027FBEC7010197F1F760E08D8D0E94EB
:10211000BA0288E80E94690783E00E94690761E0CB
:102120008D8D0E94BA02C7010197F1F7C6010E9486
:1021300070072296F6E0C93EDF0709F091CF0AE06A
:1021400017E0C6E0D7E060E0F80181918F010E94BE
:102150002703F7E00E301F07B1F706E017E085E030
:10216000F82E9CE0D92E22E0E22E88898C3008F0EF
:1021700043C0C88461E08C2D0E9427038889F89EA3
:10218000F0011124E052FA4F2C2D2F739081907C96
:10219000922B9083138214826D2D0E9450138D9D7B
:1021A000A001112430E020E0BA01620F731FF69EF7
:1021B000F001F79EF00D1124E052FA4F908196FD48
:1021C00012C02F5F3F4F2C30310571F781110BC0CA
:1021D00010928000E092810010928500109284009D
:1021E000E6BAE0926F00E889FE9EF0011124E05209
:1021F000FA4F8081806480839E858C85F801828B74
:10220000938B60E00E94270361E0F80183890E94BC
:10221000270360E0F80183890E94BA0221960E5FCD
:102220001F4FF7E00A301F0709F09FCFF894109274
:10223000200189E08093210180E293E090932901BD
:1022400080932801109225011092240182E080934E
:102250007300789480930E051092120580910F05FB
:1022600060E00E94270360E084E00E94270360E0B2
:1022700085E00E94270360E086E00E94270360E07B
:1022800087E00E94270360E070E0CB016B017C01D6
:10229000A70196010E94641320E030E040E251E47F
:1022A0000E942C1287FF15C084E00E945803BC01D5
:1022B000990F880B990B0E9433126B017C0185E00A
:1022C0000E945803BC01990F880B990B0E9433128E
:1022D000DFCF60ED77E080E090E00E94B80480916D
:1022E00001029091020201979093020280930102F1
:1022F00040E050E060E07FEB80E097E00E94420623
:1023000084E097E00E949B07C0916402D09165022F
:10231000C60FD71FD0936502C093640282E097E096
:102320000E949B079B01AC0188279927DC01821B37
:10233000930BA40BB50B0091620210916302080F7E
:10234000191F109363020093620284E097E00E94D9
:10235000010816161706180619060CF063C084E06B
:1023600097E00E9401086B017C0182E097E00E94E7
:10237000010897FF63C082E097E00E9401089095F2
:102380008095709561957F4F8F4F9F4FA701960164
:10239000261B370B480B590BCA01B9010E94331297
:1023A0006B017C01BE01D7FF03C071956195710976
:1023B00017FF03C0119501951109601B710B072EC2
:1023C000000C880B990B0E9433124B015C012FE625
:1023D00032E143E85AE3C701B6010E9492126B0151
:1023E0007C012CEA35EC47EA57E3C501B4010E94B1
:1023F00092129B01AC01C701B6010E94651320E057
:1024000030E040E05FE30E946513AB01BC018EEF5A
:1024100096E00E94420664EF71E080E090E00E9446
:10242000B80466CF84E097E00E940108CC24DD2444
:102430007601C61AD70AE80AF90A97CF82E097E030
:102440000E940108A3CF80911D0690911E0600975F
:1024500011F00C94A81408950E946E1208F481E003
:102460000895E89409C097FB3EF490958095709587
:1024700061957F4F8F4F9F4F9923A9F0F92F96E9D0
:10248000BB279395F695879577956795B795F11145
:10249000F8CFFAF4BB0F11F460FF1BC06F5F7F4FE2
:1024A0008F4F9F4F16C0882311F096E911C07723F4
:1024B00021F09EE8872F762F05C0662371F096E8FD
:1024C000862F70E060E02AF09A95660F771F881FCC
:1024D000DAF7880F9695879597F90895990F000870
:1024E000550FAA0BE0E8FEEF16161706E807F907E6
:1024F000C0F012161306E407F50798F0621B730B81
:10250000840B950B39F40A2661F0232B242B252B01
:1025100021F408950A2609F4A140A6958FEF811DA4
:10252000811D08950E94A5120C9416130E94081391
:1025300038F00E940F1320F0952311F00C94FF1235
:102540000C94051311240C944A130E94271370F362
:10255000959FC1F3950F50E0551F629FF001729F48
:10256000BB27F00DB11D639FAA27F00DB11DAA1F57
:10257000649F6627B00DA11D661F829F2227B00DA4
:10258000A11D621F739FB00DA11D621F839FA00D2F
:10259000611D221F749F3327A00D611D231F849F7F
:1025A000600D211D822F762F6A2F11249F575040D6
:1025B0009AF0F1F088234AF0EE0FFF1FBB1F661F51
:1025C000771F881F91505040A9F79E3F510580F01A
:1025D0000C94FF120C944A135F3FE4F3983ED4F33B
:1025E000869577956795B795F795E7959F5FC1F7BE
:1025F000FE2B880F911D9695879597F9089597F969
:102600009F6780E870E060E008959FEF80EC089598
:1026100000240A94161617061806090608950024C1
:102620000A9412161306140605060895092E03943B
:10263000000C11F4882352F0BB0F40F4BF2B11F4AF
:1026400060FF04C06F5F7F4F8F4F9F4F089557FD0E
:102650009058440F551F59F05F3F71F04795880F10
:1026600097FB991F61F09F3F79F0879508951216A7
:1026700013061406551FF2CF4695F1DF08C0161653
:1026800017061806991FF1CF869571056105089404
:102690000895E894BB2766277727CB0197F908951B
:1026A000991B79E004C0991F961708F0961B881FA4
:1026B0007A95C9F780950895EE0FFF1F881F8BBF8D
:1026C0000790F691E02D19945058BB27AA270E9435
:1026D0007C130C9416130E94081338F00E940F13F9
:1026E00020F039F49F3F19F426F40C9405130EF4EE
:1026F000E095E7FB0C94FF12E92F0E94271358F393
:10270000BA17620773078407950720F079F4A6F5D6
:102710000C9449130EF4E0950B2EBA2FA02D0B014B
:10272000B90190010C01CA01A0011124FF27591B16
:1027300099F0593F50F4503E68F11A16F040A22F1C
:10274000232F342F4427585FF3CF4695379527958D
:10275000A795F0405395C9F77EF41F16BA0B620B8C
:10276000730B840BBAF09150A1F0FF0FBB1F661FD3
:10277000771F881FC2F70EC0BA0F621F731F841F16
:1027800048F4879577956795B795F7959E3F08F03C
:10279000B0CF9395880F08F09927EE0F97958795FE
:1027A00008950E94D8136894B1110C944A130895A7
:1027B0000E942F1388F09F5798F0B92F9927B7518F
:1027C000B0F0E1F0660F771F881F991F1AF0BA95D5
:1027D000C9F714C0B13091F00E944913B1E00895D7
:1027E0000C944913672F782F8827B85F39F0B93FC9
:1027F000CCF3869577956795B395D9F73EF4909588
:102800008095709561957F4F8F4F9F4F08950E94DF
:102810006E1208F48FEF08950F931F93CF93DF93F9
:102820008230910510F482E090E0E0911E07F09173
:102830001F0730E020E0B0E0A0E0309799F42115C8
:10284000310509F44AC0281B390B24303105D8F56D
:102850008A819B816115710589F1FB0193838283D4
:10286000FE0111C04081518102811381481759072F
:10287000E0F04817590799F4109761F012960C93FD
:10288000129713961C933296CF01DF91CF911F912F
:102890000F91089500931E0710931F07F4CF211581
:1028A000310551F04217530738F0A901DB019A01B5
:1028B000BD01DF01F801C1CFEF01F9CF90931F07F0
:1028C00080931E07CDCFFE01E20FF31F81939193FA
:1028D0002250310939832883D7CF20911C073091AA
:1028E0001D07232B41F420910502309106023093FD
:1028F0001D0720931C07209103023091040221152B
:10290000310541F42DB73EB74091070250910802BE
:10291000241B350BE0911C07F0911D07E217F3070C
:10292000A0F42E1B3F0B2817390778F0AC014E5F3F
:102930005F4F2417350748F04E0F5F1F50931D0758
:1029400040931C07819391939FCFF0E0E0E09CCFF0
:10295000CF93DF930097E9F0FC0132971382128244
:10296000A0911E07B0911F07ED0130E020E0109705
:10297000A1F420813181820F931F20911C07309197
:102980001D072817390709F061C0F0931D07E09370
:102990001C07DF91CF910895EA01CE17DF07E8F514
:1029A0004A815B819E0141155105B1F7E901FB8325
:1029B000EA8349915991C40FD51FEC17FD0761F4C3
:1029C000808191810296840F951FE9019983888304
:1029D000828193819B838A83F0E0E0E012968D915F
:1029E0009C9113970097B9F52D913C911197CD01CA
:1029F0000296820F931F20911C0730911D07281704
:102A0000390739F6309751F510921F0710921E07BB
:102A1000B0931D07A0931C07BCCFD383C283408112
:102A20005181840F951FC817D90761F44E5F5F4F1E
:102A300088819981480F591F518340838A819B81E6
:102A4000938382832115310509F0B0CFF0931F07DE
:102A5000E0931E079ECFFD01DC01C0CF13821282DE
:102A6000D7CF4F925F926F927F928F929F92AF9249
:102A7000BF92CF92DF92EF92FF920F931F93CF936B
:102A8000DF938C01009799F4CB01DF91CF911F91D7
:102A90000F91FF90EF90DF90CF90BF90AF909F90FD
:102AA0008F907F906F905F904F900C940C14FC016E
:102AB000E60FF71F9C0122503109E217F30708F4D3
:102AC000AEC0D901CD91DC911197C617D70720F17F
:102AD000C530D10578F0CE0104978617970750F0DE
:102AE000C61BD70B2297C193D1936D937C93CF01D3
:102AF0000E94A814C801DF91CF911F910F91FF9000
:102B0000EF90DF90CF90BF90AF909F908F907F908D
:102B10006F905F904F9008955B01AC1ABD0A4C0115
:102B20008C0E9D1EA0911E07B0911F07512C412CA9
:102B3000F12CE12C109731F580911C0790911D0725
:102B40008815990509F05CC04616570608F058C06C
:102B50008091030290910402009741F48DB79EB7D3
:102B60004091070250910802841B950BE817F90762
:102B700008F055C0F0931D07E0931C07F90171831D
:102B80006083B8CF8D919C91119712966C9012979B
:102B900013967C901397A815B90559F56C0142E07E
:102BA000C40ED11CCA14DB0420F1AC014A195B0924
:102BB000DA011296159780F0628273825183408306
:102BC000D9016D937C93E114F10471F0D701139650
:102BD000FC93EE9312978ECF22968C0F9D1FF901D6
:102BE00091838083F301EFCFF0931F07E0931E07DB
:102BF00081CF4816590608F42C017D01D3019ACFE4
:102C0000CB010E940C147C01009749F0AE01B80181
:102C10000E941216C8010E94A81487016BCF10E011
:102C200000E068CFFB01DC0102C001900D92415031
:102C30005040D8F70895FB01DC0101900D9200206F
:102C4000E1F7089511E0C0E7D1E000E006C0802F71
:102C5000FE010E945C132196011DC137D10780E05F
:082C60000807A9F7F894FFCF63
:102C6800FF0200000020078000363738391B1D1A84
:102C78001C000000002402F7012C08CD01F001DD42
:102C880001CE0100000000AD05EA043005FA056137
:102C9800053F055305000000004408EA042C082BF2
:022CA800080022
:00000001FF
