:100000000C9471010C94A2010C94A2010C94A20115
:100010000C94A2010C94A2010C94A2010C94A201D4
:100020000C94A2010C9456090C9456090C94560990
:100030000C94A2010C94CE0A0C94A2010C94A2017F
:100040000C94A2010C94270D0C94A2010C94A20113
:100050000C94A2010C94A2010C94A2010C94840AA9
:100060000C94A2010C943D0C0C94130C0C94A20162
:100070000C94A2010C94A2010C94A2010C94A20174
:100080000C94A2010C94A2010C94A2010C94A20164
:100090000C94A2010C94A2010C94A2010C9460098E
:1000A0000C94A2010C94A2010C94A2010C94A20144
:1000B0000C94A2010C94A2010C94A2010C94670C64
:1000C0000C94A2010C94A2010C94A2010C94E90BD3
:1000D0000C94BF0B0C94A2010C94950B0C946B0B1D
:1000E0000C94A2010C949F020C94F5010C94DE0276
:1000F0000C94AE020C946A070C94AB020C94650845
:100100000C94FE050C9499020C94A7020C94B40272
:100110000C94B2050C9497070C94A3020C944C0217
:100120000C94CC020C94A4050C9483070C947E08C8
:100130000C944E070C94D0020C94F4010C94B80269
:100140000C94DA020C9456070C9446070C94AB07F7
:100150000C941F020C9412070C9466080C9432073E
:100160000C9405020C9474070C94BE020C9428079E
:100170000C944B060C948D070C9423070C94C2022C
:100180000C943B050C94D9020C94F6010C94810557
:100190000C94CF0D0C94D4020C94B4110C94C602A0
:1001A0000C94B5070C9490050C9460070C941802FD
:1001B0000C943C070C94A1070C94F301020000215D
:1001C00000240027002A002D003000330001010028
:1001D00000040107010A0100002200250028002B6D
:1001E000002E003100340002010000050108010B5F
:1001F00001000020002300260029002C002F0032DF
:1002000000000100000301060109010505050507BD
:100210000508080808020202020A0A080804040481
:1002200004010101010101010103030303030303AD
:1002300003040707070C0C0C0C0C0C0C0C0202023C
:100240000206060606060606060B0B0B0B0B0B0B2F
:100250000B010210202008081020401020408002CE
:1002600001020108040201010204081020408080FC
:100270004020100804020180040201804020100880
:100280000402010804020101020408102040800158
:100290000204081020408000000A0B02090C0D0E19
:1002A0000807030401000000000000000000000037
:1002B000000000000000000000000000000000003E
:1002C00000000012111000000000000000000000FB
:1002D0000000000000000000000000000000CF0D42
:1002E000B41111241FBECFEFD1E2DEBFCDBF00E0BD
:1002F0000CBF12E0A0E0B2E0E0E8FBE200E00BBFE0
:1003000002C007900D92A034B107D9F727E0A0E40E
:10031000B2E001C01D92AA31B207E1F711E0C0E7D7
:10032000D1E000E006C021970109802FFE010E9464
:10033000E812CF36D10780E00807A9F70E94B70F6F
:100340000C94AE150C940000EBE6F4E0A089B189A2
:1003500082E08C93A485B5851C92A685B7858FEC29
:100360008C93108EA489B58986E08C93A289B38979
:100370008C9180618C93A289B3898C9188608C93D5
:10038000A289B3898C9180688C930288F389E02DCF
:1003900080818F7D808308952091AE02260F3327C0
:1003A000331F21323105ECF42091FB02FC0190E077
:1003B00080E0243069F082E00895A091AE0221919E
:1003C000AC0144575D4FA40FB52FB11D2C9301967E
:1003D000861798F38091AE02680F6093AE0280E0BA
:1003E000089581E00895089508950895E0918A029E
:1003F00080918902E81730F4F0E0E759FD4F8081E1
:1004000090E008958FEF9FEF089590918A02809178
:1004100089022FEF3FEF981748F4E92FF0E0E759F2
:10042000FD4F208130E09F5F90938A02C9010895BB
:100430008091890290918A02891B990B0895CF922D
:10044000DF92EF92FF920F931F93CF93DF937C0184
:10045000CB018A0120910103222389F0EB016B017A
:10046000C40ED51ECC15DD0569F06991D701ED915B
:10047000FC910190F081E02DC7011995F3CF642F15
:100480000E94CC01C801DF91CF911F910F91FF9085
:10049000EF90DF90CF900895CF93DF931F92CDB769
:1004A000DEB76983209101032223F9F02091240310
:1004B000203258F021E030E0FC013383228390E0C9
:1004C00080E00F90DF91CF91089580910203E82F93
:1004D000F0E0ED5FFC4F998190838F5F8093020382
:1004E0008093240381E090E0ECCF61E0CE0101969F
:1004F0000E94CC01F7CF8150823108F05AC0E82F1A
:10050000F0E08827E957FD4F8F4F0C94E812A702BF
:10051000AB0299029F02A302D902AE02B402B80252
:10052000BE02C202C602CC02D002D902D402DA0252
:10053000DE02809180008F77809380000895809103
:1005400080008F7DF9CF80918000877FF5CF84B5C3
:100550008F7784BD089584B58F7DFBCF8091B000E7
:100560008F778093B00008958091B0008F7DF9CF90
:10057000809190008F7780939000089580919000F3
:100580008F7DF9CF80919000877FF5CF8091A0007B
:100590008F778093A00008958091A0008F7DF9CF80
:1005A0008091A000877FF5CF809120018F77809385
:1005B00020010895809120018F7DF9CF8091200145
:1005C000877FF5CFCF93DF93282F30E0F901E956ED
:1005D000FD4F8491F901EF5AFD4FD491F901E55F88
:1005E000FD4FC491CC23A1F081110E947B02EC2F1E
:1005F000F0E0EE0FFF1FEF50FE4FA591B491EC918C
:10060000ED2381E090E009F480E0DF91CF9108953F
:1006100080E090E0FACF1F93CF93DF93282F30E054
:10062000F901E956FD4F8491F901EF5AFD4FD4913C
:10063000F901E55FFD4FC491CC23A9F0162F81117C
:100640000E947B02EC2FF0E0EE0FFF1FE952FE4FFD
:10065000A591B4918FB7F894EC91111108C0D09581
:10066000DE23DC938FBFDF91CF911F910895DE2BA6
:10067000F8CF1092FB0281E08093FA021092D5022B
:1006800061E084E10E940B0361E085E10E940B03BD
:10069000E9EBF0E080818E7F808380818D7F808395
:1006A00088E48093B80085E48093BC000895CF93DC
:1006B000DF9391E090938B028823B9F0C091B8004A
:1006C000D091BA008091BC008A7B8093BC0060E02E
:1006D00084E10E940B0360E085E10E940B030E940D
:1006E0003903D093BA00C093B800DF91CF91089539
:1006F000CF93DF9390E0FC01EF5AFD4F2491855F8B
:100700009D4FFC0184918823D1F090E0880F991FC0
:10071000FC01E354FE4FA591B491FC01E952FE4F58
:10072000C591D49161110EC09FB7F8948C91E22FBE
:10073000E0958E238C932881E223E8839FBFDF918D
:10074000CF9108958FB7F894EC91E22BEC938FBF83
:10075000F6CF863308F0865320917B00982F98704F
:10076000277F922B90937B008770806480937C001E
:1007700080917A00806480937A0080917A0086FD6F
:10078000FCCF809178009091790008953FB7F8945C
:100790008091650290916602A0916702B091680213
:1007A00026B5A89B05C02F3F19F00196A11DB11DCC
:1007B0003FBFBA2FA92F982F8827BC01CD01620F08
:1007C000711D811D911D42E0660F771F881F991FC3
:1007D0004A95D1F70895CF92DF92EF92FF920F934F
:1007E0001F93CF93DF93D091240381E0D13208F09F
:1007F0009CC0C09123030E94C6036B017C018091C1
:10080000FB0281116CC082E08093FB0281E0809347
:10081000FA028FEF8093F9021092F802D093F70258
:10082000A3E0B3E0E7EDF2E080E0D8138DC01092D2
:10083000D6028091D602CC0FC82BC093D6028091ED
:10084000D502813009F084C01092D5020E94C603FF
:100850006B017C018091D6028093BB008091FD02E8
:100860009091FE02A091FF02B0910003892B8A2B88
:100870008B2BA1F00E94C6030091FD021091FE0295
:100880002091FF02309100036C197D098E099F09A8
:10089000061717072807390708F442C08091BC00E3
:1008A00083FDD8CF85EC8093BC000E94C6036B010A
:1008B0007C018091FB02823009F44CC08091F902E6
:1008C0008F3F09F469C08091F902803209F466C053
:1008D0008091F902803309F463C084E026C08091DE
:1008E000FD029091FE02A091FF02B0910003892BBE
:1008F0008A2B8B2B09F483CF0E94C6030091FD0243
:100900001091FE022091FF02309100036C197D09C5
:100910008E099F09061717072807390708F06FCFB8
:100920008091FC020E94570385E01092020310920E
:10093000240310920103DF91CF911F910F91FF903B
:10094000EF90DF90CF9008959D9191938F5F6DCF41
:1009500085EEA9CF8091FD029091FE02A091FF0249
:10096000B0910003892B8A2B8B2B09F4A2CF0E9414
:10097000C6030091FD021091FE022091FF0230910A
:1009800000036C197D098E099F09061717072807B0
:10099000390708F08ECFC4CF80E0C7CF82E0C5CF43
:1009A00083E0C3CF0F931F93CF93DF93162F072FAF
:1009B000CFEDD6E0AA85BB859C8521E0209301037D
:1009C000909323031092020310922403ED91FC9163
:1009D00011970190F081E02D682FCD0119958A853E
:1009E0009B85DC01ED91FC910190F081E02D602F61
:1009F00019958A859B85DC01ED91FC910190F08130
:100A0000E02D612F1995DF91CF911F910F910C94DB
:100A1000EB038F929F92AF92BF92CF92DF92EF92B1
:100A2000FF924B015C010E94C6036B017C010E9496
:100A3000C6036C197D098E099F09683E73408105C4
:100A40009105A8F321E0821A9108A108B10888EE67
:100A5000C80E83E0D81EE11CF11C81149104A1048E
:100A6000B10429F7FF90EF90DF90CF90BF90AF9047
:100A70009F908F900895AF92BF92CF92DF92EF92A6
:100A8000FF920F931F93CF93DF936C017B018B0138
:100A9000040F151FEB015E01AE18BF08C017D10788
:100AA00059F06991D601ED91FC910190F081E02D12
:100AB000C6011995892B79F7C501DF91CF911F9157
:100AC0000F91FF90EF90DF90CF90BF90AF9008957F
:100AD000FC01A089B1898C91A689B78982FD0FC0DC
:100AE0009C91818D8F5F8F73228D821749F0A18D2C
:100AF000AE0FBF2FB11D5D969C93818F08958C9191
:100B00000895FC01538D448D252F30E0842F90E013
:100B1000821B930B541710F0CF96089501970895F8
:100B2000FC01918D828D981761F0A28DAE0FBF2FC1
:100B3000B11D5D968C91928D9F5F9F73928F90E017
:100B400008958FEF9FEF0895FC01918D828D981786
:100B500031F0828DE80FF11D858D90E008958FEFC3
:100B60009FEF0895FC01918D228D892F90E0805C8C
:100B70009F4F821B91098F739927089581E393E01A
:100B80000E94B20521E0892B09F420E0822F08950C
:100B90008EEC93E00E94B20521E0892B09F420E05D
:100BA000822F08958BE694E00E94B20521E0892B04
:100BB00009F420E0822F0895FC01A48DA80FB92F1D
:100BC000B11DA35ABF4F2C91848D90E001968F7375
:100BD0009927848FA689B7892C93A089B1898C9194
:100BE000837080648C93938D848D981306C00288E3
:100BF000F389E02D80818F7D80830895EF92FF92AD
:100C00000F931F93CF93DF93EC0181E0888F9B8D2F
:100C10008C8D98131AC0E889F989808185FF15C0E9
:100C20009FB7F894EE89FF896083E889F98980810C
:100C30008370806480839FBF81E090E0DF91CF91DB
:100C40001F910F91FF90EF900895F62E0B8D10E0FD
:100C50000F5F1F4F0F731127E02E8C8D8E110CC06C
:100C60000FB607FCFACFE889F989808185FFF5CFB7
:100C7000CE010E94DC05F1CFEB8DEC0FFD2FF11DB5
:100C8000E35AFF4FF0829FB7F8940B8FEA89FB89F4
:100C900080818062CFCFCF93DF93EC01888D882352
:100CA000B9F0AA89BB89E889F9898C9185FD03C0CF
:100CB000808186FD0DC00FB607FCF7CF8C9185FFB4
:100CC000F2CF808185FFEDCFCE010E94DC05E9CF18
:100CD000DF91CF910895F0E0E0E0199480E090E09A
:100CE000892B29F00E94D20581110E94000080E02A
:100CF00090E0892B49F080E090E0892B29F00E9458
:100D0000000081110E9400000E94C80581110E940C
:100D10006B0680E090E0892B29F00E94BE058111CE
:100D20000C94000008958F929F92AF92BF92CF9241
:100D3000DF92EF92FF920F931F93CF93DF93EC011B
:100D40006A017B0120E030E04FE753E4CB01B601BC
:100D50000E941E124B015C0120E030E0A9010E94BC
:100D6000931318168CF5C501B4010E945D138B0115
:100D7000B98020E030E0A901C701B6010E949313B9
:100D800060E018160CF061E08B2D0E940B030F3F02
:100D9000110509F0ECF41127C88161E08C2F0E9445
:100DA000780301151105B9F460E08C2FDF91CF9124
:100DB0001F910F91FF90EF90DF90CF90BF90AF9079
:100DC0009F908F900C940B03C501B4019058CDCF28
:100DD0000FEF10E0E1CF0F3F110511F461E0E5CF17
:100DE000EC2FF0E0E956FD4FE491E150E23108F0DC
:100DF000BCC0F0E08827E050F94F8F4F0C94E81208
:100E000012072307280732073C07B50746074E0796
:100E1000560760076A07740783078D07B5079707AA
:100E2000A107AB0784B5806884BD07BDDF91CF9172
:100E30001F910F91FF90EF90DF90CF90BF90AF90F8
:100E40009F908F90089584B5806284BD08BDEECFD9
:100E500080918000806880938000109389000093C7
:100E60008800E4CF8091800080628093800010939E
:100E70008B0000938A00DACF809180008860809395
:100E8000800010938D0000938C00D0CF8091B00033
:100E900080688093B0000093B300C8CF8091B00009
:100EA00080628093B0000093B400C0CF8091900026
:100EB0008068809390001093990000939800B6CFBB
:100EC0008091900080628093900010939B0000932B
:100ED0009A00ACCF8091900088608093900010932E
:100EE0009D0000939C00A2CF8091A0008068809319
:100EF000A0008091A0008F7B8093A0001093A90098
:100F00000093A80093CF8091A00080628093A000FE
:100F10001093AB000093AA0089CF8091A000886055
:100F20008093A0001093AD000093AC007FCF809120
:100F300020018068809320011093290100932801EB
:100F400075CF8091200180628093200110932B0146
:100F500000932A016BCF809120018860809320014B
:100F600010932D0100932C0161CF003811050CF076
:100F700035CF1ACF8EBD00000DB407FEFDCF8EB564
:100F80000895CF93DF93EC0160E088810E940B030A
:100F900088E90E94BA0780E00E94BA0780E00E94B8
:100FA000BA0780E00E94BA0780E00E94BA0761E0B9
:100FB00088810E940B038BE891E00197F1F760E0D4
:100FC00088810E940B0380EE0E94BA0761E088814D
:100FD000DF91CF910C940B03AF92BF92CF92DF922F
:100FE000EF92FF920F931F93CF93DF93CDB7DEB7AE
:100FF00060970FB6F894DEBF0FBECDBF6C0160E006
:10100000FC0180810E940B0380E60E94BA079E01CA
:101010002F5F3F4F79015E0131E1A30EB11C8701C3
:1010200080E00E94BA0790E0B0E0A0E0F801819370
:101030009193A193B1938F01EA15FB0589F761E0C4
:10104000F60180810E940B0380E090E0DC01F70153
:1010500041915191619171917F01BA2FA92F982FE0
:101060008827840F951FA61FB71FE017F10779F790
:101070009C01AD0166277727CB01621B730B840BA4
:10108000950B60960FB6F894DEBF0FBECDBFDF9113
:10109000CF911F910F91FF90EF90DF90CF90BF9075
:1010A000AF900895FC01248131E030930103209337
:1010B000230310920203109224038485682B85E297
:1010C00093E00E944C020C94EB03089590E080E0C2
:1010D00008950F931F93CF938C01C62F64600E94D5
:1010E00052086C2F6B7FC8010E94520883EC90E07D
:1010F0000197F1F7CF911F910F9108950F931F93CF
:10110000CF93DF938C01C62FD62FD07FD1606D2F68
:101110000E9452086D2FC8010E94690880E1C89F93
:10112000E0011124C1606C2FC8010E9452086C2F8D
:10113000C8010E94690881E090E0DF91CF911F9182
:101140000F910895CF92DF92EF92FF928EEF96E08B
:101150000E94EC076135734C810591050CF062C06B
:1011600040E050E060E07FEB8AEF96E00E9493065B
:101170008EEF96E00E94EC07161617061806190661
:101180000CF03FC08EEF96E00E94EC076B017C01F3
:101190008CEF96E00E94EC0797FF3FC08CEF96E043
:1011A0000E94EC0790958095709561957F4F8F4FC9
:1011B0009F4FA7019601261B370B480B590BCA01FD
:1011C000B9010E94BF112FE632E143E85AE30E94C1
:1011D0001E1220E030E0A9010E941E1220E030E043
:1011E00040E05FE30E94F112AB01BC0188EF96E0A2
:1011F0000E94930664EF71E080E090E00E94090590
:10120000A5CF8EEF96E00E94EC07CC24DD2476017A
:10121000C61AD70AE80AF90ABBCF8CEF96E00E94FB
:10122000EC07C7CF8EEF96E00E94C1078CEF96E0E7
:10123000FF90EF90DF90CF900C94C10785ED8093E5
:10124000BC008091FD029091FE02A091FF02B0913E
:1012500000030796A11DB11D23E0B695A7959795AC
:1012600087952A95D1F72091BC0024FD03C01092E8
:10127000FB0208954091FD025091FE026091FF0231
:1012800070910003452B462B472B69F30097A1056E
:10129000B10541F025E32A95F1F700000197A10976
:1012A000B109E1CF8091FC020C9457031F920F9279
:1012B0000FB60F9211240F900FBE0F901F9018952C
:1012C0001F920F920FB60F9211240BB60F922F930D
:1012D0003F934F935F936F937F938F939F93AF93BE
:1012E000BF93EF93FF938091B900887F803609F414
:1012F0004DC008F040C0883209F4A9C028F58031FB
:1013000009F49DC0C8F4882309F4FBC0883009F4AF
:1013100096C0FF91EF91BF91AF919F918F917F9177
:101320006F915F914F913F912F910F900BBE0F9056
:101330000FBE0F901F901895883109F488C0803235
:1013400041F78093F90214C0803409F49DC040F441
:101350008033B9F38833E9F68093F90285ECB0C0A5
:10136000803509F485C0883509F496C0883489F63B
:101370000E941E09CECF883909F48CC038F5883711
:1013800029F050F4883611F0803719F683E0809305
:10139000FB021092D20257C0883809F47BC0803912
:1013A00019F0803809F0B5CF8091D202803208F070
:1013B00071C0E091D20281E08E0F8093D2028091C1
:1013C000BB00F0E0EE54FD4F80833DC0803B39F020
:1013D000E0F4803A09F479C0883A09F09ACF84E0C1
:1013E0008093FB021092AF021092AE02E091AC0229
:1013F000F091AD0219958091AE0281110FC081E08C
:101400008093AE0210928C0209C0803C09F4A6CFF2
:10141000883C09F4A3CF883B09F07BCFE091AF0271
:1014200081E08E0F8093AF02F0E0E457FD4F8081A2
:101430008093BB009091AF028091AE0229C0809151
:10144000D6028093BB0085EC8093BC0062CF909164
:10145000F8028091F702981758F5E091F80281E0C0
:101460008E0F8093F802F0E0E952FD4F8081E9CFC2
:10147000E091F80281E08E0F8093F8028091BB002A
:10148000F0E0E952FD4F80839091F8028091F702DD
:101490009817C8F285E8D8CFE091F80281E08E0F66
:1014A0008093F8028091BB00F0E0E952FD4F808309
:1014B0008091FA0281115CCF81E08093D50284EAA9
:1014C0008093BC001092FB0224CF85EC8093BC007B
:1014D0001092FB028091D202803230F4E091D2026D
:1014E000F0E0EE54FD4F10826091D20270E0E09186
:1014F000B002F091B10282EB92E019951092D20203
:1015000008CF1092F90234CF1F920F920FB60F92AC
:1015100011242F933F938F939F93AF93BF93809109
:10152000610290916202A0916302B09164023091D5
:10153000600223E0230F2D3758F50196A11DB11D40
:10154000209360028093610290936202A0936302F1
:10155000B09364028091650290916602A091670247
:10156000B09168020196A11DB11D80936502909310
:101570006602A0936702B0936802BF91AF919F91FA
:101580008F913F912F910F900FBE0F901F90189544
:1015900026E8230F0296A11DB11DD2CF1F920F92F4
:1015A0000FB60F9211240BB60F922F933F934F93C8
:1015B0005F936F937F938F939F93AF93BF93EF93BB
:1015C000FF9380915B0290915C02A0915D02B091CB
:1015D0005E02892B8A2B8B2BD1F190915A0280913C
:1015E000000089278093000080915B0290915C024B
:1015F000A0915D02B0915E02181619061A061B062C
:101600009CF480915B0290915C02A0915D02B0918C
:101610005E020197A109B10980935B0290935C027D
:10162000A0935D02B0935E02FF91EF91BF91AF91E5
:101630009F918F917F916F915F914F913F912F91EA
:101640000F900BBE0F900FBE0F901F9018958091BA
:101650000002ECEBF1E0E4919FEF90930002E230A6
:10166000E9F040F4EE2389F0E13091F060E00E946F
:101670000B03DACFE43049F110F1E530B9F790917E
:1016800073009D7F90937300F1CF10926E00EECFA8
:1016900090916F009D7F90936F00E8CF90917000C4
:1016A0009D7F9093700091E09093B0009091B10075
:1016B000987F94609093B1001092B300D7CF90912F
:1016C00071009D7F90937100D1CF909172009D7FAA
:1016D00090937200CBCF1F920F920FB60F921124EE
:1016E0000BB60F922F933F934F935F936F937F931C
:1016F0008F939F93AF93BF93EF93FF9381E393E017
:101700000E94DC05FF91EF91BF91AF919F918F9166
:101710007F916F915F914F913F912F910F900BBEF1
:101720000F900FBE0F901F9018951F920F920FB63B
:101730000F9211240BB60F922F933F934F935F9309
:101740006F937F938F939F93AF93BF93EF93FF9389
:1017500081E393E00E946805FF91EF91BF91AF9103
:101760009F918F917F916F915F914F913F912F91B9
:101770000F900BBE0F900FBE0F901F9018951F92E9
:101780000F920FB60F9211240BB60F922F933F9327
:101790004F935F936F937F938F939F93AF93BF9379
:1017A000EF93FF938EEC93E00E94DC05FF91EF91A5
:1017B000BF91AF919F918F917F916F915F914F9169
:1017C0003F912F910F900BBE0F900FBE0F901F9067
:1017D00018951F920F920FB60F9211240BB60F920D
:1017E0002F933F934F935F936F937F938F939F9329
:1017F000AF93BF93EF93FF938EEC93E00E94680545
:10180000FF91EF91BF91AF919F918F917F916F91D8
:101810005F914F913F912F910F900BBE0F900FBE94
:101820000F901F9018951F920F920FB60F921124D0
:101830000BB60F922F933F934F935F936F937F93CA
:101840008F939F93AF93BF93EF93FF938BE694E0B7
:101850000E94DC05FF91EF91BF91AF919F918F9115
:101860007F916F915F914F913F912F910F900BBEA0
:101870000F900FBE0F901F9018951F920F920FB6EA
:101880000F9211240BB60F922F933F934F935F93B8
:101890006F937F938F939F93AF93BF93EF93FF9338
:1018A0008BE694E00E946805FF91EF91BF91AF91A4
:1018B0009F918F917F916F915F914F913F912F9168
:1018C0000F900BBE0F900FBE0F901F9018951F9298
:1018D0000F920FB60F9211240BB60F922F933F93D6
:1018E0004F935F936F937F938F939F93AF93BF9328
:1018F000EF93FF93809109050E94E20220910D056C
:1019000030910E052F5F3F4F30930E0520930D054C
:1019100090910C05953618F096E0909308059091FB
:101920000805943009F466C0B8F49230F1F09330B1
:1019300009F444C090910B05992309F46BC08111FF
:101940007CC080910A05882309F463C080910A0550
:1019500061E00E940B035EC0953009F457C09630D9
:1019600049F791E09093D9054FC08111E3CF2091C1
:101970000D0530910E052436310528F410920E0520
:1019800010920D05D7CF1092D90510920C05E09159
:101990000C0591E09E0F90930C05F0E020910D0551
:1019A00030910E05EE0FFF1FE85FFA4F3087278357
:1019B00010920E0510920D0593E019C0813009F0C8
:1019C000B9CFE0910C0591E09E0F90930C05F0E0EB
:1019D00020910D0530910E05EE0FFF1FE85FFA4FC5
:1019E0003087278310920E0510920D0594E0909396
:1019F0000805A0CF882359F220910D0530910E05DE
:101A00002536310508F496CF95E0F1CF811192CFBC
:101A1000B5CF2F9AFF91EF91BF91AF919F918F9189
:101A20007F916F915F914F913F912F910F900BBEDE
:101A30000F900FBE0F901F90189580910A05882374
:101A400021F080910A0560E084CF2F98E3CF1F92A8
:101A50000F920FB60F9211240BB60F922F933F9354
:101A60004F935F936F937F938F939F93AF93BF93A6
:101A7000CF93DF93EF93FF9380915902C0911606A5
:101A8000D0E087FF23C010928500109284008091DF
:101A900059028F5F8093590280915902082E000CE1
:101AA000990B8C179D0724F4809159028C3074F1A6
:101AB000809184009091850084349C4908F465C02D
:101AC0008091840090918500049661C080915902B4
:101AD000082E000C990B8C179D07CCF630915902FB
:101AE00025E03203F0011124E652FA4F808186FF8F
:101AF000CECF309159023203F0011124E652FA4F51
:101B0000808160E08F730E940B03C1CF80918400BD
:101B1000909185003091590225E03203F0011124A3
:101B2000E652FA4F41815281840F951F90938900AC
:101B300080938800309159023203F0011124E6525B
:101B4000FA4F808186FF0CC0309159023203F001B8
:101B50001124E652FA4F808161E08F730E940B03DB
:101B6000FF91EF91DF91CF91BF91AF919F918F91B5
:101B70007F916F915F914F913F912F910F900BBE8D
:101B80000F900FBE0F901F90189580E49CE99093E2
:101B90008900809388008FEF80935902E1CF1092E3
:101BA00028031092270388EE93E0A0E0B0E0809332
:101BB000290390932A03A0932B03B0932C0323E1D2
:101BC00032E03093260320932503109234031092C1
:101BD00033038093350390933603A0933703B09378
:101BE000380325E232E0309332032093310345E39A
:101BF00051E050933E0340933D0344E351E0509342
:101C0000400340933F0340E351E05093420340932D
:101C1000410341E351E0509344034093430342E3C3
:101C200051E0509346034093450346E351E05093FF
:101C300048034093470310924A0310924B031092BB
:101C40004C0310924D031092D1031092D003809355
:101C5000D2039093D303A093D403B093D5033093CE
:101C6000CF032093CE0345ED50E05093DB03409328
:101C7000DA0344ED50E05093DD034093DC0340ED84
:101C800050E05093DF034093DE0341ED50E050936A
:101C9000E1034093E00342ED50E05093E3034093AF
:101CA000E20346ED50E05093E5034093E4031092C5
:101CB000E7031092E8031092E9031092EA031092EE
:101CC0006E0410926D0480936F0490937004A0933F
:101CD0007104B093720430936C0420936B0485EC10
:101CE00090E0909378048093770484EC90E0909354
:101CF0007A048093790480EC90E090937C04809344
:101D00007B0481EC90E090937E0480937D0482ECD0
:101D100090E09093800480937F0486EC90E0909311
:101D2000820480938104109284041092850410929E
:101D30008604109287048091070290910802A09176
:101D40000902B0910A028093000790930107A093C3
:101D50000207B093030780910B0290910C02A091AF
:101D60000D02B0910E028093040790930507A09393
:101D70000607B093070784E08093080787E0809305
:101D8000090710920A0784EB80930B0786E1809382
:101D90000C0788E180930D0787E180930E0789E1A6
:101DA00080930F07E0911606EC3008F4A9C08FEF7E
:101DB00080931007E0911606EC3008F4B2C08FEF64
:101DC000809311078CE08093DF0684E28093E00625
:101DD00086E08093E10685E08093E2068FE18093C0
:101DE000E3068EE18093E40683E28093E50682E2D7
:101DF0008093E60685E48093E70684E48093E80612
:101E000080E48093EB061092F0061092F106109297
:101E1000F2061092F3061092F4061092F506109254
:101E2000F6061092F706E1E2F6E08FEF9FEFDC0195
:101E300012821382148215821682178210861186EE
:101E400083879487A587B6878787908BA18BB28B72
:101E5000128611821082739626E0EF3DF20741F759
:101E60008DE090E00E949813FC011382128287E3B8
:101E700092E091838083118687E2848384E1828764
:101E800084E083871486F0931E06E0931D0610926B
:101E90001F061092200685E28093090510920B051B
:101EA000109218061092170610921A061092190630
:101EB00010921C0610921B0661E070E090E080E03A
:101EC0000E94BD140097F1F19093180680931706B5
:101ED00010921A061092190620911B0630911C06CA
:101EE000232B11F4FC01108210921C0610921B0689
:101EF0006FE372E080911706909118060C94A71575
:101F000081E08E0F80931606E093100725E0E29F94
:101F1000F0011124E652FA4F88EB9BE09283818313
:101F200049CF81E08E0F80931606E093110785E07C
:101F3000E89FF0011124E652FA4F88EB9BE0928370
:101F4000818340CF8091170690911806009711F079
:101F50000E943414109218061092170610921C0654
:101F600010921B0610921A06109219060895789482
:101F700084B5826084BD84B5816084BD85B582608E
:101F800085BD85B5816085BD80916E00816080933F
:101F90006E001092810080918100826080938100A8
:101FA00080918100816080938100809180008160B8
:101FB000809380008091B10084608093B100809113
:101FC000B00081608093B000809191008260809326
:101FD00091008091910081608093910080919000A8
:101FE0008160809390008091A10082608093A10025
:101FF0008091A10081608093A1008091A000816008
:102000008093A000809121018260809321018091C2
:102010002101816080932101809120018160809362
:10202000200180917A00846080937A0080917A0008
:10203000826080937A0080917A00816080937A0038
:1020400080917A00806880937A001092C1000E948B
:10205000A40161E08091E0060E94780360E0809135
:10206000E0060E940B0360E08091DF060E94780387
:1020700085E293E09093EA068093E90610928A0243
:102080001092890210920203109224030E943903D5
:1020900083EF91E09093AD028093AC0284EF91E0E6
:1020A0009093B1028093B00280E090E1A0E0B0E0B4
:1020B0008093EC069093ED06A093EE06B093EF06A6
:1020C0008AE090E0A0E0B0E08093F0069093F10603
:1020D000A093F206B093F30680E090E0A0E0B0E4B5
:1020E0008093F4069093F506A093F606B093F70656
:1020F00060E070E185E00E94D2046FE979E380E05E
:102100000E94D20401EE16E0CFEDD6E053EEC52ECC
:1021100056E0D52E60E4662E62E0762E76E8872EB5
:1021200072E0972EEBECEE2EE7E0FE2EF8019281A6
:1021300081918F01898F9A8F61E00E94780361E01D
:102140008A8D0E9478035E01FDE1AF0EB11CF8019B
:10215000958183818D8F9E8F61E00E94780360E07E
:102160008E8D0E94780361E08D8D0E940B035FB617
:10217000F89480915F02811125C0F3018491F401EC
:102180009491E82FF0E0EE0FFF1FE354FE4FA5916E
:10219000B4918C91982321F461E085E30E940B03B4
:1021A00061E085E30E9478038CB580618CBD8CB5BD
:1021B00080648CBD61E084E30E94780361E083E386
:1021C0000E94780380915F028F5F80935F025FBE01
:1021D000C7010197F1F760E08D8D0E940B0388E83D
:1021E0000E94BA0783E00E94BA0761E08D8D0E94C9
:1021F0000B03C7010197F1F7C5010E94C1072296A1
:10220000CC16DD0609F092CF04E017E0C0E0D7E07D
:1022100038E0E32E37E0F32E60E0F80181918F0182
:102220000E947803E016F106B9F700E017E085E0B8
:10223000F82E9CE0D92E22E0E22E88898C3008F01E
:1022400043C0C88461E08C2D0E9478038889F89E81
:10225000F0011124E652FA4F2C2D2F739081907CBF
:10226000922B9083138214826D2D0E94DC128D9D1F
:10227000A001112430E020E0BA01620F731FF69E26
:10228000F001F79EF00D1124E652FA4F908196FD71
:1022900012C02F5F3F4F2C30310571F781110BC0F9
:1022A00010928000E09281001092850010928400CC
:1022B000E6BAE0926F00E889FE9EF0011124E65232
:1022C000FA4F8081806480839E858C85F801828BA3
:1022D000938B60E00E94780361E0F80183890E949B
:1022E000780360E0F80183890E940B0321960E5F5A
:1022F0001F4FF7E004301F0709F09FCFF8941092AA
:10230000200189E08093210180E293E090932901EC
:1023100080932801109225011092240182E080937D
:10232000730078948093080510920C05809109053C
:1023300060E00E94780360E084E00E94780360E03F
:1023400085E00E94780360E086E00E94780360E008
:1023500087E00E9478030E94A40184E00E94A90300
:1023600085E00E94A903F9CF809117069091180685
:10237000009711F00C9434140895E89409C097FB69
:102380003EF490958095709561957F4F8F4F9F4F4C
:102390009923A9F0F92F96E9BB279395F695879590
:1023A00077956795B795F111F8CFFAF4BB0F11F453
:1023B00060FF1BC06F5F7F4F8F4F9F4F16C08823FA
:1023C00011F096E911C0772321F09EE8872F762F30
:1023D00005C0662371F096E8862F70E060E02AF071
:1023E0009A95660F771F881FDAF7880F969587955D
:1023F00097F90895990F0008550FAA0BE0E8FEEF32
:1024000016161706E807F907C0F012161306E407B8
:10241000F50798F0621B730B840B950B39F40A26B1
:1024200061F0232B242B252B21F408950A2609F48F
:10243000A140A6958FEF811D811D08950E94311244
:102440000C94A2120E94941238F00E949B1220F069
:10245000952311F00C948B120C94911211240C946E
:10246000D6120E94B31270F3959FC1F3950F50E0FE
:10247000551F629FF001729FBB27F00DB11D639F36
:10248000AA27F00DB11DAA1F649F6627B00DA11DDC
:10249000661F829F2227B00DA11D621F739FB00D82
:1024A000A11D621F839FA00D611D221F749F3327F2
:1024B000A00D611D231F849F600D211D822F762F8B
:1024C0006A2F11249F5750409AF0F1F088234AF068
:1024D000EE0FFF1FBB1F661F771F881F91505040D4
:1024E000A9F79E3F510580F00C948B120C94D612E4
:1024F0005F3FE4F3983ED4F3869577956795B7955B
:10250000F795E7959F5FC1F7FE2B880F911D969574
:10251000879597F9089597F99F6780E870E060E0E4
:1025200008959FEF80EC089500240A94161617066C
:1025300018060906089500240A94121613061406B4
:1025400005060895092E0394000C11F4882352F017
:10255000BB0F40F4BF2B11F460FF04C06F5F7F4FCF
:102560008F4F9F4F089557FD9058440F551F59F0B6
:102570005F3F71F04795880F97FB991F61F09F3F70
:1025800079F087950895121613061406551FF2CF99
:102590004695F1DF08C0161617061806991FF1CFE9
:1025A00086957105610508940895E894BB27662710
:1025B0007727CB0197F90895991B79E004C0991FFB
:1025C000961708F0961B881F7A95C9F7809508958D
:1025D000EE0FFF1F881F8BBF0790F691E02D199417
:1025E0005058BB27AA270E9408130C94A2120E94DD
:1025F000941238F00E949B1220F039F49F3F19F496
:1026000026F40C9491120EF4E095E7FB0C948B12D7
:10261000E92F0E94B31258F3BA17620773078407B1
:10262000950720F079F4A6F50C94D5120EF4E095F8
:102630000B2EBA2FA02D0B01B90190010C01CA017C
:10264000A0011124FF27591B99F0593F50F4503E27
:1026500068F11A16F040A22F232F342F4427585F19
:10266000F3CF469537952795A795F0405395C9F731
:102670007EF41F16BA0B620B730B840BBAF09150E9
:10268000A1F0FF0FBB1F661F771F881FC2F70EC088
:10269000BA0F621F731F841F48F48795779567955B
:1026A000B795F7959E3F08F0B0CF9395880F08F047
:1026B0009927EE0F9795879508950E946413689463
:1026C000B1110C94D61208950E94BB1288F09F5746
:1026D00098F0B92F9927B751B0F0E1F0660F771F46
:1026E000881F991F1AF0BA95C9F714C0B13091F03C
:1026F0000E94D512B1E008950C94D512672F782F5F
:102700008827B85F39F0B93FCCF386957795679500
:10271000B395D9F73EF490958095709561957F4F6C
:102720008F4F9F4F08950E94FA1108F48FEF08957C
:102730000F931F93CF93DF938230910510F482E0C3
:1027400090E0E0911807F091190730E020E0B0E048
:10275000A0E0309799F42115310509F44AC0281BEF
:10276000390B24303105D8F58A819B8161157105BB
:1027700089F1FB0193838283FE0111C04081518165
:102780000281138148175907E0F04817590799F457
:10279000109761F012960C93129713961C93329631
:1027A000CF01DF91CF911F910F91089500931807EA
:1027B00010931907F4CF2115310551F04217530733
:1027C00038F0A901DB019A01BD01DF01F801C1CF99
:1027D000EF01F9CF9093190780931807CDCFFE0131
:1027E000E20FF31F8193919322503109398328839B
:1027F000D7CF2091160730911707232B41F4209152
:10280000030230910402309317072093160720919A
:102810000102309102022115310541F42DB73EB776
:102820004091050250910602241B350BE0911607DA
:10283000F0911707E217F307A0F42E1B3F0B2817A0
:10284000390778F0AC014E5F5F4F2417350748F029
:102850004E0F5F1F50931707409316078193919374
:102860009FCFF0E0E0E09CCFCF93DF930097E9F0BB
:10287000FC01329713821282A0911807B0911907B8
:10288000ED0130E020E01097A1F420813181820F2A
:10289000931F20911607309117072817390709F061
:1028A00061C0F0931707E0931607DF91CF91089569
:1028B000EA01CE17DF07E8F54A815B819E014115E9
:1028C0005105B1F7E901FB83EA8349915991C40F9E
:1028D000D51FEC17FD0761F4808191810296840F6A
:1028E000951FE90199838883828193819B838A83E1
:1028F000F0E0E0E012968D919C9113970097B9F566
:102900002D913C911197CD010296820F931F20913A
:102910001607309117072817390739F6309751F500
:102920001092190710921807B0931707A093160773
:10293000BCCFD383C28340815181840F951FC817B8
:10294000D90761F44E5F5F4F88819981480F591F05
:10295000518340838A819B81938382832115310532
:1029600009F0B0CFF0931907E09318079ECFFD014F
:10297000DC01C0CF13821282D7CF4F925F926F9249
:102980007F928F929F92AF92BF92CF92DF92EF92FF
:10299000FF920F931F93CF93DF938C01009799F4CD
:1029A000CB01DF91CF911F910F91FF90EF90DF90BE
:1029B000CF90BF90AF909F908F907F906F905F90DF
:1029C0004F900C949813FC01E60FF71F9C012250C6
:1029D0003109E217F30708F4AEC0D901CD91DC91BB
:1029E0001197C617D70720F1C530D10578F0CE0171
:1029F00004978617970750F0C61BD70B2297C193F1
:102A0000D1936D937C93CF010E943414C801DF9160
:102A1000CF911F910F91FF90EF90DF90CF90BF90DB
:102A2000AF909F908F907F906F905F904F900895A0
:102A30005B01AC1ABD0A4C018C0E9D1EA0911807BB
:102A4000B0911907512C412CF12CE12C109731F544
:102A500080911607909117078815990509F05CC0B9
:102A60004616570608F058C0809101029091020264
:102A7000009741F48DB79EB7409105025091060230
:102A8000841B950BE817F90708F055C0F09317075A
:102A9000E0931607F90171836083B8CF8D919C9103
:102AA000119712966C90129713967C901397A81515
:102AB000B90559F56C0142E0C40ED11CCA14DB04FF
:102AC00020F1AC014A195B09DA011296159780F0E2
:102AD0006282738251834083D9016D937C93E114A8
:102AE000F10471F0D7011396FC93EE9312978ECFF9
:102AF00022968C0F9D1FF90191838083F301EFCF04
:102B0000F0931907E093180781CF4816590608F487
:102B10002C017D01D3019ACFCB010E9498137C0137
:102B2000009749F0AE01B8010E949E15C8010E94AD
:102B3000341487016BCF10E000E068CFFB01DC01AB
:102B400002C001900D9241505040D8F70895FB010A
:102B5000DC0101900D920020E1F7089511E0C0E73B
:102B6000D1E000E006C0802FFE010E94E81221960D
:102B7000011DC137D10780E00807A9F7F894FFCFFE
:102B8000FF00001A078000363738391B1D1A1C0059
:102B90000000004C021F026608F50118020502F64B
:102BA0000100000000FE053B0581054B06B20590C3
:102BB00005A405000000007E083B056608650800C6
:00000001FF
